{
	"learnw3/learning.sol": {
		"mymood": {
			"abi": [
				{
					"inputs": [
						{
							"internalType": "address",
							"name": "user",
							"type": "address"
						}
					],
					"name": "getMode",
					"outputs": [
						{
							"internalType": "string",
							"name": "",
							"type": "string"
						}
					],
					"stateMutability": "view",
					"type": "function"
				},
				{
					"inputs": [
						{
							"internalType": "address",
							"name": "",
							"type": "address"
						}
					],
					"name": "moods",
					"outputs": [
						{
							"internalType": "string",
							"name": "",
							"type": "string"
						}
					],
					"stateMutability": "view",
					"type": "function"
				},
				{
					"inputs": [
						{
							"internalType": "string",
							"name": "mood",
							"type": "string"
						}
					],
					"name": "setMode",
					"outputs": [],
					"stateMutability": "nonpayable",
					"type": "function"
				}
			],
			"devdoc": {
				"kind": "dev",
				"methods": {},
				"version": 1
			},
			"evm": {
				"assembly": "    /* \"learnw3/learning.sol\":60:416  contract mymood {... */\n  mstore(0x40, 0x80)\n  callvalue\n  dup1\n  iszero\n  tag_1\n  jumpi\n  0x00\n  dup1\n  revert\ntag_1:\n  pop\n  dataSize(sub_0)\n  dup1\n  dataOffset(sub_0)\n  0x00\n  codecopy\n  0x00\n  return\nstop\n\nsub_0: assembly {\n        /* \"learnw3/learning.sol\":60:416  contract mymood {... */\n      mstore(0x40, 0x80)\n      callvalue\n      dup1\n      iszero\n      tag_1\n      jumpi\n      0x00\n      dup1\n      revert\n    tag_1:\n      pop\n      jumpi(tag_2, lt(calldatasize, 0x04))\n      shr(0xe0, calldataload(0x00))\n      dup1\n      0x69d2b352\n      eq\n      tag_3\n      jumpi\n      dup1\n      0x9fc86239\n      eq\n      tag_4\n      jumpi\n      dup1\n      0xa84fd0ed\n      eq\n      tag_5\n      jumpi\n    tag_2:\n      0x00\n      dup1\n      revert\n        /* \"learnw3/learning.sol\":129:168  mapping(address => string) public moods */\n    tag_3:\n      tag_6\n      0x04\n      dup1\n      calldatasize\n      sub\n      dup2\n      add\n      swap1\n      tag_7\n      swap2\n      swap1\n      tag_8\n      jump\t// in\n    tag_7:\n      tag_9\n      jump\t// in\n    tag_6:\n      mload(0x40)\n      tag_10\n      swap2\n      swap1\n      tag_11\n      jump\t// in\n    tag_10:\n      mload(0x40)\n      dup1\n      swap2\n      sub\n      swap1\n      return\n        /* \"learnw3/learning.sol\":177:314  function getMode(address user) public view returns(string memory) {... */\n    tag_4:\n      tag_12\n      0x04\n      dup1\n      calldatasize\n      sub\n      dup2\n      add\n      swap1\n      tag_13\n      swap2\n      swap1\n      tag_8\n      jump\t// in\n    tag_13:\n      tag_14\n      jump\t// in\n    tag_12:\n      mload(0x40)\n      tag_15\n      swap2\n      swap1\n      tag_11\n      jump\t// in\n    tag_15:\n      mload(0x40)\n      dup1\n      swap2\n      sub\n      swap1\n      return\n        /* \"learnw3/learning.sol\":322:411  function setMode(string memory mood) public {... */\n    tag_5:\n      tag_16\n      0x04\n      dup1\n      calldatasize\n      sub\n      dup2\n      add\n      swap1\n      tag_17\n      swap2\n      swap1\n      tag_18\n      jump\t// in\n    tag_17:\n      tag_19\n      jump\t// in\n    tag_16:\n      stop\n        /* \"learnw3/learning.sol\":129:168  mapping(address => string) public moods */\n    tag_9:\n      mstore(0x20, 0x00)\n      dup1\n      0x00\n      mstore\n      keccak256(0x00, 0x40)\n      0x00\n      swap2\n      pop\n      swap1\n      pop\n      dup1\n      sload\n      tag_20\n      swap1\n      tag_21\n      jump\t// in\n    tag_20:\n      dup1\n      0x1f\n      add\n      0x20\n      dup1\n      swap2\n      div\n      mul\n      0x20\n      add\n      mload(0x40)\n      swap1\n      dup2\n      add\n      0x40\n      mstore\n      dup1\n      swap3\n      swap2\n      swap1\n      dup2\n      dup2\n      mstore\n      0x20\n      add\n      dup3\n      dup1\n      sload\n      tag_22\n      swap1\n      tag_21\n      jump\t// in\n    tag_22:\n      dup1\n      iszero\n      tag_23\n      jumpi\n      dup1\n      0x1f\n      lt\n      tag_24\n      jumpi\n      0x0100\n      dup1\n      dup4\n      sload\n      div\n      mul\n      dup4\n      mstore\n      swap2\n      0x20\n      add\n      swap2\n      jump(tag_23)\n    tag_24:\n      dup3\n      add\n      swap2\n      swap1\n      0x00\n      mstore\n      keccak256(0x00, 0x20)\n      swap1\n    tag_25:\n      dup2\n      sload\n      dup2\n      mstore\n      swap1\n      0x01\n      add\n      swap1\n      0x20\n      add\n      dup1\n      dup4\n      gt\n      tag_25\n      jumpi\n      dup3\n      swap1\n      sub\n      0x1f\n      and\n      dup3\n      add\n      swap2\n    tag_23:\n      pop\n      pop\n      pop\n      pop\n      pop\n      dup2\n      jump\t// out\n        /* \"learnw3/learning.sol\":177:314  function getMode(address user) public view returns(string memory) {... */\n    tag_14:\n        /* \"learnw3/learning.sol\":228:241  string memory */\n      0x60\n        /* \"learnw3/learning.sol\":293:298  moods */\n      0x00\n        /* \"learnw3/learning.sol\":293:304  moods[user] */\n      dup1\n        /* \"learnw3/learning.sol\":299:303  user */\n      dup4\n        /* \"learnw3/learning.sol\":293:304  moods[user] */\n      0xffffffffffffffffffffffffffffffffffffffff\n      and\n      0xffffffffffffffffffffffffffffffffffffffff\n      and\n      dup2\n      mstore\n      0x20\n      add\n      swap1\n      dup2\n      mstore\n      0x20\n      add\n      0x00\n      keccak256\n        /* \"learnw3/learning.sol\":286:304  return moods[user] */\n      dup1\n      sload\n      tag_27\n      swap1\n      tag_21\n      jump\t// in\n    tag_27:\n      dup1\n      0x1f\n      add\n      0x20\n      dup1\n      swap2\n      div\n      mul\n      0x20\n      add\n      mload(0x40)\n      swap1\n      dup2\n      add\n      0x40\n      mstore\n      dup1\n      swap3\n      swap2\n      swap1\n      dup2\n      dup2\n      mstore\n      0x20\n      add\n      dup3\n      dup1\n      sload\n      tag_28\n      swap1\n      tag_21\n      jump\t// in\n    tag_28:\n      dup1\n      iszero\n      tag_29\n      jumpi\n      dup1\n      0x1f\n      lt\n      tag_30\n      jumpi\n      0x0100\n      dup1\n      dup4\n      sload\n      div\n      mul\n      dup4\n      mstore\n      swap2\n      0x20\n      add\n      swap2\n      jump(tag_29)\n    tag_30:\n      dup3\n      add\n      swap2\n      swap1\n      0x00\n      mstore\n      keccak256(0x00, 0x20)\n      swap1\n    tag_31:\n      dup2\n      sload\n      dup2\n      mstore\n      swap1\n      0x01\n      add\n      swap1\n      0x20\n      add\n      dup1\n      dup4\n      gt\n      tag_31\n      jumpi\n      dup3\n      swap1\n      sub\n      0x1f\n      and\n      dup3\n      add\n      swap2\n    tag_29:\n      pop\n      pop\n      pop\n      pop\n      pop\n      swap1\n      pop\n        /* \"learnw3/learning.sol\":177:314  function getMode(address user) public view returns(string memory) {... */\n      swap2\n      swap1\n      pop\n      jump\t// out\n        /* \"learnw3/learning.sol\":322:411  function setMode(string memory mood) public {... */\n    tag_19:\n        /* \"learnw3/learning.sol\":397:401  mood */\n      dup1\n        /* \"learnw3/learning.sol\":377:382  moods */\n      0x00\n        /* \"learnw3/learning.sol\":377:394  moods[msg.sender] */\n      dup1\n        /* \"learnw3/learning.sol\":383:393  msg.sender */\n      caller\n        /* \"learnw3/learning.sol\":377:394  moods[msg.sender] */\n      0xffffffffffffffffffffffffffffffffffffffff\n      and\n      0xffffffffffffffffffffffffffffffffffffffff\n      and\n      dup2\n      mstore\n      0x20\n      add\n      swap1\n      dup2\n      mstore\n      0x20\n      add\n      0x00\n      keccak256\n        /* \"learnw3/learning.sol\":377:401  moods[msg.sender] = mood */\n      swap1\n      dup2\n      tag_33\n      swap2\n      swap1\n      tag_34\n      jump\t// in\n    tag_33:\n      pop\n        /* \"learnw3/learning.sol\":322:411  function setMode(string memory mood) public {... */\n      pop\n      jump\t// out\n        /* \"#utility.yul\":7:82   */\n    tag_35:\n        /* \"#utility.yul\":40:46   */\n      0x00\n        /* \"#utility.yul\":73:75   */\n      0x40\n        /* \"#utility.yul\":67:76   */\n      mload\n        /* \"#utility.yul\":57:76   */\n      swap1\n      pop\n        /* \"#utility.yul\":7:82   */\n      swap1\n      jump\t// out\n        /* \"#utility.yul\":88:205   */\n    tag_36:\n        /* \"#utility.yul\":197:198   */\n      0x00\n        /* \"#utility.yul\":194:195   */\n      dup1\n        /* \"#utility.yul\":187:199   */\n      revert\n        /* \"#utility.yul\":211:328   */\n    tag_37:\n        /* \"#utility.yul\":320:321   */\n      0x00\n        /* \"#utility.yul\":317:318   */\n      dup1\n        /* \"#utility.yul\":310:322   */\n      revert\n        /* \"#utility.yul\":334:460   */\n    tag_38:\n        /* \"#utility.yul\":371:378   */\n      0x00\n        /* \"#utility.yul\":411:453   */\n      0xffffffffffffffffffffffffffffffffffffffff\n        /* \"#utility.yul\":404:409   */\n      dup3\n        /* \"#utility.yul\":400:454   */\n      and\n        /* \"#utility.yul\":389:454   */\n      swap1\n      pop\n        /* \"#utility.yul\":334:460   */\n      swap2\n      swap1\n      pop\n      jump\t// out\n        /* \"#utility.yul\":466:562   */\n    tag_39:\n        /* \"#utility.yul\":503:510   */\n      0x00\n        /* \"#utility.yul\":532:556   */\n      tag_79\n        /* \"#utility.yul\":550:555   */\n      dup3\n        /* \"#utility.yul\":532:556   */\n      tag_38\n      jump\t// in\n    tag_79:\n        /* \"#utility.yul\":521:556   */\n      swap1\n      pop\n        /* \"#utility.yul\":466:562   */\n      swap2\n      swap1\n      pop\n      jump\t// out\n        /* \"#utility.yul\":568:690   */\n    tag_40:\n        /* \"#utility.yul\":641:665   */\n      tag_81\n        /* \"#utility.yul\":659:664   */\n      dup2\n        /* \"#utility.yul\":641:665   */\n      tag_39\n      jump\t// in\n    tag_81:\n        /* \"#utility.yul\":634:639   */\n      dup2\n        /* \"#utility.yul\":631:666   */\n      eq\n        /* \"#utility.yul\":621:684   */\n      tag_82\n      jumpi\n        /* \"#utility.yul\":680:681   */\n      0x00\n        /* \"#utility.yul\":677:678   */\n      dup1\n        /* \"#utility.yul\":670:682   */\n      revert\n        /* \"#utility.yul\":621:684   */\n    tag_82:\n        /* \"#utility.yul\":568:690   */\n      pop\n      jump\t// out\n        /* \"#utility.yul\":696:835   */\n    tag_41:\n        /* \"#utility.yul\":742:747   */\n      0x00\n        /* \"#utility.yul\":780:786   */\n      dup2\n        /* \"#utility.yul\":767:787   */\n      calldataload\n        /* \"#utility.yul\":758:787   */\n      swap1\n      pop\n        /* \"#utility.yul\":796:829   */\n      tag_84\n        /* \"#utility.yul\":823:828   */\n      dup2\n        /* \"#utility.yul\":796:829   */\n      tag_40\n      jump\t// in\n    tag_84:\n        /* \"#utility.yul\":696:835   */\n      swap3\n      swap2\n      pop\n      pop\n      jump\t// out\n        /* \"#utility.yul\":841:1170   */\n    tag_8:\n        /* \"#utility.yul\":900:906   */\n      0x00\n        /* \"#utility.yul\":949:951   */\n      0x20\n        /* \"#utility.yul\":937:946   */\n      dup3\n        /* \"#utility.yul\":928:935   */\n      dup5\n        /* \"#utility.yul\":924:947   */\n      sub\n        /* \"#utility.yul\":920:952   */\n      slt\n        /* \"#utility.yul\":917:1036   */\n      iszero\n      tag_86\n      jumpi\n        /* \"#utility.yul\":955:1034   */\n      tag_87\n      tag_36\n      jump\t// in\n    tag_87:\n        /* \"#utility.yul\":917:1036   */\n    tag_86:\n        /* \"#utility.yul\":1075:1076   */\n      0x00\n        /* \"#utility.yul\":1100:1153   */\n      tag_88\n        /* \"#utility.yul\":1145:1152   */\n      dup5\n        /* \"#utility.yul\":1136:1142   */\n      dup3\n        /* \"#utility.yul\":1125:1134   */\n      dup6\n        /* \"#utility.yul\":1121:1143   */\n      add\n        /* \"#utility.yul\":1100:1153   */\n      tag_41\n      jump\t// in\n    tag_88:\n        /* \"#utility.yul\":1090:1153   */\n      swap2\n      pop\n        /* \"#utility.yul\":1046:1163   */\n      pop\n        /* \"#utility.yul\":841:1170   */\n      swap3\n      swap2\n      pop\n      pop\n      jump\t// out\n        /* \"#utility.yul\":1176:1275   */\n    tag_42:\n        /* \"#utility.yul\":1228:1234   */\n      0x00\n        /* \"#utility.yul\":1262:1267   */\n      dup2\n        /* \"#utility.yul\":1256:1268   */\n      mload\n        /* \"#utility.yul\":1246:1268   */\n      swap1\n      pop\n        /* \"#utility.yul\":1176:1275   */\n      swap2\n      swap1\n      pop\n      jump\t// out\n        /* \"#utility.yul\":1281:1450   */\n    tag_43:\n        /* \"#utility.yul\":1365:1376   */\n      0x00\n        /* \"#utility.yul\":1399:1405   */\n      dup3\n        /* \"#utility.yul\":1394:1397   */\n      dup3\n        /* \"#utility.yul\":1387:1406   */\n      mstore\n        /* \"#utility.yul\":1439:1443   */\n      0x20\n        /* \"#utility.yul\":1434:1437   */\n      dup3\n        /* \"#utility.yul\":1430:1444   */\n      add\n        /* \"#utility.yul\":1415:1444   */\n      swap1\n      pop\n        /* \"#utility.yul\":1281:1450   */\n      swap3\n      swap2\n      pop\n      pop\n      jump\t// out\n        /* \"#utility.yul\":1456:1702   */\n    tag_44:\n        /* \"#utility.yul\":1537:1538   */\n      0x00\n        /* \"#utility.yul\":1547:1660   */\n    tag_92:\n        /* \"#utility.yul\":1561:1567   */\n      dup4\n        /* \"#utility.yul\":1558:1559   */\n      dup2\n        /* \"#utility.yul\":1555:1568   */\n      lt\n        /* \"#utility.yul\":1547:1660   */\n      iszero\n      tag_94\n      jumpi\n        /* \"#utility.yul\":1646:1647   */\n      dup1\n        /* \"#utility.yul\":1641:1644   */\n      dup3\n        /* \"#utility.yul\":1637:1648   */\n      add\n        /* \"#utility.yul\":1631:1649   */\n      mload\n        /* \"#utility.yul\":1627:1628   */\n      dup2\n        /* \"#utility.yul\":1622:1625   */\n      dup5\n        /* \"#utility.yul\":1618:1629   */\n      add\n        /* \"#utility.yul\":1611:1650   */\n      mstore\n        /* \"#utility.yul\":1583:1585   */\n      0x20\n        /* \"#utility.yul\":1580:1581   */\n      dup2\n        /* \"#utility.yul\":1576:1586   */\n      add\n        /* \"#utility.yul\":1571:1586   */\n      swap1\n      pop\n        /* \"#utility.yul\":1547:1660   */\n      jump(tag_92)\n    tag_94:\n        /* \"#utility.yul\":1694:1695   */\n      0x00\n        /* \"#utility.yul\":1685:1691   */\n      dup5\n        /* \"#utility.yul\":1680:1683   */\n      dup5\n        /* \"#utility.yul\":1676:1692   */\n      add\n        /* \"#utility.yul\":1669:1696   */\n      mstore\n        /* \"#utility.yul\":1518:1702   */\n      pop\n        /* \"#utility.yul\":1456:1702   */\n      pop\n      pop\n      pop\n      jump\t// out\n        /* \"#utility.yul\":1708:1810   */\n    tag_45:\n        /* \"#utility.yul\":1749:1755   */\n      0x00\n        /* \"#utility.yul\":1800:1802   */\n      0x1f\n        /* \"#utility.yul\":1796:1803   */\n      not\n        /* \"#utility.yul\":1791:1793   */\n      0x1f\n        /* \"#utility.yul\":1784:1789   */\n      dup4\n        /* \"#utility.yul\":1780:1794   */\n      add\n        /* \"#utility.yul\":1776:1804   */\n      and\n        /* \"#utility.yul\":1766:1804   */\n      swap1\n      pop\n        /* \"#utility.yul\":1708:1810   */\n      swap2\n      swap1\n      pop\n      jump\t// out\n        /* \"#utility.yul\":1816:2193   */\n    tag_46:\n        /* \"#utility.yul\":1904:1907   */\n      0x00\n        /* \"#utility.yul\":1932:1971   */\n      tag_97\n        /* \"#utility.yul\":1965:1970   */\n      dup3\n        /* \"#utility.yul\":1932:1971   */\n      tag_42\n      jump\t// in\n    tag_97:\n        /* \"#utility.yul\":1987:2058   */\n      tag_98\n        /* \"#utility.yul\":2051:2057   */\n      dup2\n        /* \"#utility.yul\":2046:2049   */\n      dup6\n        /* \"#utility.yul\":1987:2058   */\n      tag_43\n      jump\t// in\n    tag_98:\n        /* \"#utility.yul\":1980:2058   */\n      swap4\n      pop\n        /* \"#utility.yul\":2067:2132   */\n      tag_99\n        /* \"#utility.yul\":2125:2131   */\n      dup2\n        /* \"#utility.yul\":2120:2123   */\n      dup6\n        /* \"#utility.yul\":2113:2117   */\n      0x20\n        /* \"#utility.yul\":2106:2111   */\n      dup7\n        /* \"#utility.yul\":2102:2118   */\n      add\n        /* \"#utility.yul\":2067:2132   */\n      tag_44\n      jump\t// in\n    tag_99:\n        /* \"#utility.yul\":2157:2186   */\n      tag_100\n        /* \"#utility.yul\":2179:2185   */\n      dup2\n        /* \"#utility.yul\":2157:2186   */\n      tag_45\n      jump\t// in\n    tag_100:\n        /* \"#utility.yul\":2152:2155   */\n      dup5\n        /* \"#utility.yul\":2148:2187   */\n      add\n        /* \"#utility.yul\":2141:2187   */\n      swap2\n      pop\n        /* \"#utility.yul\":1908:2193   */\n      pop\n        /* \"#utility.yul\":1816:2193   */\n      swap3\n      swap2\n      pop\n      pop\n      jump\t// out\n        /* \"#utility.yul\":2199:2512   */\n    tag_11:\n        /* \"#utility.yul\":2312:2316   */\n      0x00\n        /* \"#utility.yul\":2350:2352   */\n      0x20\n        /* \"#utility.yul\":2339:2348   */\n      dup3\n        /* \"#utility.yul\":2335:2353   */\n      add\n        /* \"#utility.yul\":2327:2353   */\n      swap1\n      pop\n        /* \"#utility.yul\":2399:2408   */\n      dup2\n        /* \"#utility.yul\":2393:2397   */\n      dup2\n        /* \"#utility.yul\":2389:2409   */\n      sub\n        /* \"#utility.yul\":2385:2386   */\n      0x00\n        /* \"#utility.yul\":2374:2383   */\n      dup4\n        /* \"#utility.yul\":2370:2387   */\n      add\n        /* \"#utility.yul\":2363:2410   */\n      mstore\n        /* \"#utility.yul\":2427:2505   */\n      tag_102\n        /* \"#utility.yul\":2500:2504   */\n      dup2\n        /* \"#utility.yul\":2491:2497   */\n      dup5\n        /* \"#utility.yul\":2427:2505   */\n      tag_46\n      jump\t// in\n    tag_102:\n        /* \"#utility.yul\":2419:2505   */\n      swap1\n      pop\n        /* \"#utility.yul\":2199:2512   */\n      swap3\n      swap2\n      pop\n      pop\n      jump\t// out\n        /* \"#utility.yul\":2518:2635   */\n    tag_47:\n        /* \"#utility.yul\":2627:2628   */\n      0x00\n        /* \"#utility.yul\":2624:2625   */\n      dup1\n        /* \"#utility.yul\":2617:2629   */\n      revert\n        /* \"#utility.yul\":2641:2758   */\n    tag_48:\n        /* \"#utility.yul\":2750:2751   */\n      0x00\n        /* \"#utility.yul\":2747:2748   */\n      dup1\n        /* \"#utility.yul\":2740:2752   */\n      revert\n        /* \"#utility.yul\":2764:2944   */\n    tag_49:\n        /* \"#utility.yul\":2812:2889   */\n      0x4e487b7100000000000000000000000000000000000000000000000000000000\n        /* \"#utility.yul\":2809:2810   */\n      0x00\n        /* \"#utility.yul\":2802:2890   */\n      mstore\n        /* \"#utility.yul\":2909:2913   */\n      0x41\n        /* \"#utility.yul\":2906:2907   */\n      0x04\n        /* \"#utility.yul\":2899:2914   */\n      mstore\n        /* \"#utility.yul\":2933:2937   */\n      0x24\n        /* \"#utility.yul\":2930:2931   */\n      0x00\n        /* \"#utility.yul\":2923:2938   */\n      revert\n        /* \"#utility.yul\":2950:3231   */\n    tag_50:\n        /* \"#utility.yul\":3033:3060   */\n      tag_107\n        /* \"#utility.yul\":3055:3059   */\n      dup3\n        /* \"#utility.yul\":3033:3060   */\n      tag_45\n      jump\t// in\n    tag_107:\n        /* \"#utility.yul\":3025:3031   */\n      dup2\n        /* \"#utility.yul\":3021:3061   */\n      add\n        /* \"#utility.yul\":3163:3169   */\n      dup2\n        /* \"#utility.yul\":3151:3161   */\n      dup2\n        /* \"#utility.yul\":3148:3170   */\n      lt\n        /* \"#utility.yul\":3127:3145   */\n      0xffffffffffffffff\n        /* \"#utility.yul\":3115:3125   */\n      dup3\n        /* \"#utility.yul\":3112:3146   */\n      gt\n        /* \"#utility.yul\":3109:3171   */\n      or\n        /* \"#utility.yul\":3106:3194   */\n      iszero\n      tag_108\n      jumpi\n        /* \"#utility.yul\":3174:3192   */\n      tag_109\n      tag_49\n      jump\t// in\n    tag_109:\n        /* \"#utility.yul\":3106:3194   */\n    tag_108:\n        /* \"#utility.yul\":3214:3224   */\n      dup1\n        /* \"#utility.yul\":3210:3212   */\n      0x40\n        /* \"#utility.yul\":3203:3225   */\n      mstore\n        /* \"#utility.yul\":2993:3231   */\n      pop\n        /* \"#utility.yul\":2950:3231   */\n      pop\n      pop\n      jump\t// out\n        /* \"#utility.yul\":3237:3366   */\n    tag_51:\n        /* \"#utility.yul\":3271:3277   */\n      0x00\n        /* \"#utility.yul\":3298:3318   */\n      tag_111\n      tag_35\n      jump\t// in\n    tag_111:\n        /* \"#utility.yul\":3288:3318   */\n      swap1\n      pop\n        /* \"#utility.yul\":3327:3360   */\n      tag_112\n        /* \"#utility.yul\":3355:3359   */\n      dup3\n        /* \"#utility.yul\":3347:3353   */\n      dup3\n        /* \"#utility.yul\":3327:3360   */\n      tag_50\n      jump\t// in\n    tag_112:\n        /* \"#utility.yul\":3237:3366   */\n      swap2\n      swap1\n      pop\n      jump\t// out\n        /* \"#utility.yul\":3372:3680   */\n    tag_52:\n        /* \"#utility.yul\":3434:3438   */\n      0x00\n        /* \"#utility.yul\":3524:3542   */\n      0xffffffffffffffff\n        /* \"#utility.yul\":3516:3522   */\n      dup3\n        /* \"#utility.yul\":3513:3543   */\n      gt\n        /* \"#utility.yul\":3510:3566   */\n      iszero\n      tag_114\n      jumpi\n        /* \"#utility.yul\":3546:3564   */\n      tag_115\n      tag_49\n      jump\t// in\n    tag_115:\n        /* \"#utility.yul\":3510:3566   */\n    tag_114:\n        /* \"#utility.yul\":3584:3613   */\n      tag_116\n        /* \"#utility.yul\":3606:3612   */\n      dup3\n        /* \"#utility.yul\":3584:3613   */\n      tag_45\n      jump\t// in\n    tag_116:\n        /* \"#utility.yul\":3576:3613   */\n      swap1\n      pop\n        /* \"#utility.yul\":3668:3672   */\n      0x20\n        /* \"#utility.yul\":3662:3666   */\n      dup2\n        /* \"#utility.yul\":3658:3673   */\n      add\n        /* \"#utility.yul\":3650:3673   */\n      swap1\n      pop\n        /* \"#utility.yul\":3372:3680   */\n      swap2\n      swap1\n      pop\n      jump\t// out\n        /* \"#utility.yul\":3686:3832   */\n    tag_53:\n        /* \"#utility.yul\":3783:3789   */\n      dup3\n        /* \"#utility.yul\":3778:3781   */\n      dup2\n        /* \"#utility.yul\":3773:3776   */\n      dup4\n        /* \"#utility.yul\":3760:3790   */\n      calldatacopy\n        /* \"#utility.yul\":3824:3825   */\n      0x00\n        /* \"#utility.yul\":3815:3821   */\n      dup4\n        /* \"#utility.yul\":3810:3813   */\n      dup4\n        /* \"#utility.yul\":3806:3822   */\n      add\n        /* \"#utility.yul\":3799:3826   */\n      mstore\n        /* \"#utility.yul\":3686:3832   */\n      pop\n      pop\n      pop\n      jump\t// out\n        /* \"#utility.yul\":3838:4263   */\n    tag_54:\n        /* \"#utility.yul\":3916:3921   */\n      0x00\n        /* \"#utility.yul\":3941:4007   */\n      tag_119\n        /* \"#utility.yul\":3957:4006   */\n      tag_120\n        /* \"#utility.yul\":3999:4005   */\n      dup5\n        /* \"#utility.yul\":3957:4006   */\n      tag_52\n      jump\t// in\n    tag_120:\n        /* \"#utility.yul\":3941:4007   */\n      tag_51\n      jump\t// in\n    tag_119:\n        /* \"#utility.yul\":3932:4007   */\n      swap1\n      pop\n        /* \"#utility.yul\":4030:4036   */\n      dup3\n        /* \"#utility.yul\":4023:4028   */\n      dup2\n        /* \"#utility.yul\":4016:4037   */\n      mstore\n        /* \"#utility.yul\":4068:4072   */\n      0x20\n        /* \"#utility.yul\":4061:4066   */\n      dup2\n        /* \"#utility.yul\":4057:4073   */\n      add\n        /* \"#utility.yul\":4106:4109   */\n      dup5\n        /* \"#utility.yul\":4097:4103   */\n      dup5\n        /* \"#utility.yul\":4092:4095   */\n      dup5\n        /* \"#utility.yul\":4088:4104   */\n      add\n        /* \"#utility.yul\":4085:4110   */\n      gt\n        /* \"#utility.yul\":4082:4194   */\n      iszero\n      tag_121\n      jumpi\n        /* \"#utility.yul\":4113:4192   */\n      tag_122\n      tag_48\n      jump\t// in\n    tag_122:\n        /* \"#utility.yul\":4082:4194   */\n    tag_121:\n        /* \"#utility.yul\":4203:4257   */\n      tag_123\n        /* \"#utility.yul\":4250:4256   */\n      dup5\n        /* \"#utility.yul\":4245:4248   */\n      dup3\n        /* \"#utility.yul\":4240:4243   */\n      dup6\n        /* \"#utility.yul\":4203:4257   */\n      tag_53\n      jump\t// in\n    tag_123:\n        /* \"#utility.yul\":3922:4263   */\n      pop\n        /* \"#utility.yul\":3838:4263   */\n      swap4\n      swap3\n      pop\n      pop\n      pop\n      jump\t// out\n        /* \"#utility.yul\":4283:4623   */\n    tag_55:\n        /* \"#utility.yul\":4339:4344   */\n      0x00\n        /* \"#utility.yul\":4388:4391   */\n      dup3\n        /* \"#utility.yul\":4381:4385   */\n      0x1f\n        /* \"#utility.yul\":4373:4379   */\n      dup4\n        /* \"#utility.yul\":4369:4386   */\n      add\n        /* \"#utility.yul\":4365:4392   */\n      slt\n        /* \"#utility.yul\":4355:4477   */\n      tag_125\n      jumpi\n        /* \"#utility.yul\":4396:4475   */\n      tag_126\n      tag_47\n      jump\t// in\n    tag_126:\n        /* \"#utility.yul\":4355:4477   */\n    tag_125:\n        /* \"#utility.yul\":4513:4519   */\n      dup2\n        /* \"#utility.yul\":4500:4520   */\n      calldataload\n        /* \"#utility.yul\":4538:4617   */\n      tag_127\n        /* \"#utility.yul\":4613:4616   */\n      dup5\n        /* \"#utility.yul\":4605:4611   */\n      dup3\n        /* \"#utility.yul\":4598:4602   */\n      0x20\n        /* \"#utility.yul\":4590:4596   */\n      dup7\n        /* \"#utility.yul\":4586:4603   */\n      add\n        /* \"#utility.yul\":4538:4617   */\n      tag_54\n      jump\t// in\n    tag_127:\n        /* \"#utility.yul\":4529:4617   */\n      swap2\n      pop\n        /* \"#utility.yul\":4345:4623   */\n      pop\n        /* \"#utility.yul\":4283:4623   */\n      swap3\n      swap2\n      pop\n      pop\n      jump\t// out\n        /* \"#utility.yul\":4629:5138   */\n    tag_18:\n        /* \"#utility.yul\":4698:4704   */\n      0x00\n        /* \"#utility.yul\":4747:4749   */\n      0x20\n        /* \"#utility.yul\":4735:4744   */\n      dup3\n        /* \"#utility.yul\":4726:4733   */\n      dup5\n        /* \"#utility.yul\":4722:4745   */\n      sub\n        /* \"#utility.yul\":4718:4750   */\n      slt\n        /* \"#utility.yul\":4715:4834   */\n      iszero\n      tag_129\n      jumpi\n        /* \"#utility.yul\":4753:4832   */\n      tag_130\n      tag_36\n      jump\t// in\n    tag_130:\n        /* \"#utility.yul\":4715:4834   */\n    tag_129:\n        /* \"#utility.yul\":4901:4902   */\n      0x00\n        /* \"#utility.yul\":4890:4899   */\n      dup3\n        /* \"#utility.yul\":4886:4903   */\n      add\n        /* \"#utility.yul\":4873:4904   */\n      calldataload\n        /* \"#utility.yul\":4931:4949   */\n      0xffffffffffffffff\n        /* \"#utility.yul\":4923:4929   */\n      dup2\n        /* \"#utility.yul\":4920:4950   */\n      gt\n        /* \"#utility.yul\":4917:5034   */\n      iszero\n      tag_131\n      jumpi\n        /* \"#utility.yul\":4953:5032   */\n      tag_132\n      tag_37\n      jump\t// in\n    tag_132:\n        /* \"#utility.yul\":4917:5034   */\n    tag_131:\n        /* \"#utility.yul\":5058:5121   */\n      tag_133\n        /* \"#utility.yul\":5113:5120   */\n      dup5\n        /* \"#utility.yul\":5104:5110   */\n      dup3\n        /* \"#utility.yul\":5093:5102   */\n      dup6\n        /* \"#utility.yul\":5089:5111   */\n      add\n        /* \"#utility.yul\":5058:5121   */\n      tag_55\n      jump\t// in\n    tag_133:\n        /* \"#utility.yul\":5048:5121   */\n      swap2\n      pop\n        /* \"#utility.yul\":4844:5131   */\n      pop\n        /* \"#utility.yul\":4629:5138   */\n      swap3\n      swap2\n      pop\n      pop\n      jump\t// out\n        /* \"#utility.yul\":5144:5324   */\n    tag_56:\n        /* \"#utility.yul\":5192:5269   */\n      0x4e487b7100000000000000000000000000000000000000000000000000000000\n        /* \"#utility.yul\":5189:5190   */\n      0x00\n        /* \"#utility.yul\":5182:5270   */\n      mstore\n        /* \"#utility.yul\":5289:5293   */\n      0x22\n        /* \"#utility.yul\":5286:5287   */\n      0x04\n        /* \"#utility.yul\":5279:5294   */\n      mstore\n        /* \"#utility.yul\":5313:5317   */\n      0x24\n        /* \"#utility.yul\":5310:5311   */\n      0x00\n        /* \"#utility.yul\":5303:5318   */\n      revert\n        /* \"#utility.yul\":5330:5650   */\n    tag_21:\n        /* \"#utility.yul\":5374:5380   */\n      0x00\n        /* \"#utility.yul\":5411:5412   */\n      0x02\n        /* \"#utility.yul\":5405:5409   */\n      dup3\n        /* \"#utility.yul\":5401:5413   */\n      div\n        /* \"#utility.yul\":5391:5413   */\n      swap1\n      pop\n        /* \"#utility.yul\":5458:5459   */\n      0x01\n        /* \"#utility.yul\":5452:5456   */\n      dup3\n        /* \"#utility.yul\":5448:5460   */\n      and\n        /* \"#utility.yul\":5479:5497   */\n      dup1\n        /* \"#utility.yul\":5469:5550   */\n      tag_136\n      jumpi\n        /* \"#utility.yul\":5535:5539   */\n      0x7f\n        /* \"#utility.yul\":5527:5533   */\n      dup3\n        /* \"#utility.yul\":5523:5540   */\n      and\n        /* \"#utility.yul\":5513:5540   */\n      swap2\n      pop\n        /* \"#utility.yul\":5469:5550   */\n    tag_136:\n        /* \"#utility.yul\":5597:5599   */\n      0x20\n        /* \"#utility.yul\":5589:5595   */\n      dup3\n        /* \"#utility.yul\":5586:5600   */\n      lt\n        /* \"#utility.yul\":5566:5584   */\n      dup2\n        /* \"#utility.yul\":5563:5601   */\n      sub\n        /* \"#utility.yul\":5560:5644   */\n      tag_137\n      jumpi\n        /* \"#utility.yul\":5616:5634   */\n      tag_138\n      tag_56\n      jump\t// in\n    tag_138:\n        /* \"#utility.yul\":5560:5644   */\n    tag_137:\n        /* \"#utility.yul\":5381:5650   */\n      pop\n        /* \"#utility.yul\":5330:5650   */\n      swap2\n      swap1\n      pop\n      jump\t// out\n        /* \"#utility.yul\":5656:5797   */\n    tag_57:\n        /* \"#utility.yul\":5705:5709   */\n      0x00\n        /* \"#utility.yul\":5728:5731   */\n      dup2\n        /* \"#utility.yul\":5720:5731   */\n      swap1\n      pop\n        /* \"#utility.yul\":5751:5754   */\n      dup2\n        /* \"#utility.yul\":5748:5749   */\n      0x00\n        /* \"#utility.yul\":5741:5755   */\n      mstore\n        /* \"#utility.yul\":5785:5789   */\n      0x20\n        /* \"#utility.yul\":5782:5783   */\n      0x00\n        /* \"#utility.yul\":5772:5790   */\n      keccak256\n        /* \"#utility.yul\":5764:5790   */\n      swap1\n      pop\n        /* \"#utility.yul\":5656:5797   */\n      swap2\n      swap1\n      pop\n      jump\t// out\n        /* \"#utility.yul\":5803:5896   */\n    tag_58:\n        /* \"#utility.yul\":5840:5846   */\n      0x00\n        /* \"#utility.yul\":5887:5889   */\n      0x20\n        /* \"#utility.yul\":5882:5884   */\n      0x1f\n        /* \"#utility.yul\":5875:5880   */\n      dup4\n        /* \"#utility.yul\":5871:5885   */\n      add\n        /* \"#utility.yul\":5867:5890   */\n      div\n        /* \"#utility.yul\":5857:5890   */\n      swap1\n      pop\n        /* \"#utility.yul\":5803:5896   */\n      swap2\n      swap1\n      pop\n      jump\t// out\n        /* \"#utility.yul\":5902:6009   */\n    tag_59:\n        /* \"#utility.yul\":5946:5954   */\n      0x00\n        /* \"#utility.yul\":5996:6001   */\n      dup3\n        /* \"#utility.yul\":5990:5994   */\n      dup3\n        /* \"#utility.yul\":5986:6002   */\n      shl\n        /* \"#utility.yul\":5965:6002   */\n      swap1\n      pop\n        /* \"#utility.yul\":5902:6009   */\n      swap3\n      swap2\n      pop\n      pop\n      jump\t// out\n        /* \"#utility.yul\":6015:6408   */\n    tag_60:\n        /* \"#utility.yul\":6084:6090   */\n      0x00\n        /* \"#utility.yul\":6134:6135   */\n      0x08\n        /* \"#utility.yul\":6122:6132   */\n      dup4\n        /* \"#utility.yul\":6118:6136   */\n      mul\n        /* \"#utility.yul\":6157:6254   */\n      tag_143\n        /* \"#utility.yul\":6187:6253   */\n      0xffffffffffffffffffffffffffffffffffffffffffffffffffffffffffffffff\n        /* \"#utility.yul\":6176:6185   */\n      dup3\n        /* \"#utility.yul\":6157:6254   */\n      tag_59\n      jump\t// in\n    tag_143:\n        /* \"#utility.yul\":6275:6314   */\n      tag_144\n        /* \"#utility.yul\":6305:6313   */\n      dup7\n        /* \"#utility.yul\":6294:6303   */\n      dup4\n        /* \"#utility.yul\":6275:6314   */\n      tag_59\n      jump\t// in\n    tag_144:\n        /* \"#utility.yul\":6263:6314   */\n      swap6\n      pop\n        /* \"#utility.yul\":6347:6351   */\n      dup1\n        /* \"#utility.yul\":6343:6352   */\n      not\n        /* \"#utility.yul\":6336:6341   */\n      dup5\n        /* \"#utility.yul\":6332:6353   */\n      and\n        /* \"#utility.yul\":6323:6353   */\n      swap4\n      pop\n        /* \"#utility.yul\":6396:6400   */\n      dup1\n        /* \"#utility.yul\":6386:6394   */\n      dup7\n        /* \"#utility.yul\":6382:6401   */\n      and\n        /* \"#utility.yul\":6375:6380   */\n      dup5\n        /* \"#utility.yul\":6372:6402   */\n      or\n        /* \"#utility.yul\":6362:6402   */\n      swap3\n      pop\n        /* \"#utility.yul\":6091:6408   */\n      pop\n      pop\n        /* \"#utility.yul\":6015:6408   */\n      swap4\n      swap3\n      pop\n      pop\n      pop\n      jump\t// out\n        /* \"#utility.yul\":6414:6491   */\n    tag_61:\n        /* \"#utility.yul\":6451:6458   */\n      0x00\n        /* \"#utility.yul\":6480:6485   */\n      dup2\n        /* \"#utility.yul\":6469:6485   */\n      swap1\n      pop\n        /* \"#utility.yul\":6414:6491   */\n      swap2\n      swap1\n      pop\n      jump\t// out\n        /* \"#utility.yul\":6497:6557   */\n    tag_62:\n        /* \"#utility.yul\":6525:6528   */\n      0x00\n        /* \"#utility.yul\":6546:6551   */\n      dup2\n        /* \"#utility.yul\":6539:6551   */\n      swap1\n      pop\n        /* \"#utility.yul\":6497:6557   */\n      swap2\n      swap1\n      pop\n      jump\t// out\n        /* \"#utility.yul\":6563:6705   */\n    tag_63:\n        /* \"#utility.yul\":6613:6622   */\n      0x00\n        /* \"#utility.yul\":6646:6699   */\n      tag_148\n        /* \"#utility.yul\":6664:6698   */\n      tag_149\n        /* \"#utility.yul\":6673:6697   */\n      tag_150\n        /* \"#utility.yul\":6691:6696   */\n      dup5\n        /* \"#utility.yul\":6673:6697   */\n      tag_61\n      jump\t// in\n    tag_150:\n        /* \"#utility.yul\":6664:6698   */\n      tag_62\n      jump\t// in\n    tag_149:\n        /* \"#utility.yul\":6646:6699   */\n      tag_61\n      jump\t// in\n    tag_148:\n        /* \"#utility.yul\":6633:6699   */\n      swap1\n      pop\n        /* \"#utility.yul\":6563:6705   */\n      swap2\n      swap1\n      pop\n      jump\t// out\n        /* \"#utility.yul\":6711:6786   */\n    tag_64:\n        /* \"#utility.yul\":6754:6757   */\n      0x00\n        /* \"#utility.yul\":6775:6780   */\n      dup2\n        /* \"#utility.yul\":6768:6780   */\n      swap1\n      pop\n        /* \"#utility.yul\":6711:6786   */\n      swap2\n      swap1\n      pop\n      jump\t// out\n        /* \"#utility.yul\":6792:7061   */\n    tag_65:\n        /* \"#utility.yul\":6902:6941   */\n      tag_153\n        /* \"#utility.yul\":6933:6940   */\n      dup4\n        /* \"#utility.yul\":6902:6941   */\n      tag_63\n      jump\t// in\n    tag_153:\n        /* \"#utility.yul\":6963:7054   */\n      tag_154\n        /* \"#utility.yul\":7012:7053   */\n      tag_155\n        /* \"#utility.yul\":7036:7052   */\n      dup3\n        /* \"#utility.yul\":7012:7053   */\n      tag_64\n      jump\t// in\n    tag_155:\n        /* \"#utility.yul\":7004:7010   */\n      dup5\n        /* \"#utility.yul\":6997:7001   */\n      dup5\n        /* \"#utility.yul\":6991:7002   */\n      sload\n        /* \"#utility.yul\":6963:7054   */\n      tag_60\n      jump\t// in\n    tag_154:\n        /* \"#utility.yul\":6957:6961   */\n      dup3\n        /* \"#utility.yul\":6950:7055   */\n      sstore\n        /* \"#utility.yul\":6868:7061   */\n      pop\n        /* \"#utility.yul\":6792:7061   */\n      pop\n      pop\n      pop\n      jump\t// out\n        /* \"#utility.yul\":7067:7140   */\n    tag_66:\n        /* \"#utility.yul\":7112:7115   */\n      0x00\n        /* \"#utility.yul\":7067:7140   */\n      swap1\n      jump\t// out\n        /* \"#utility.yul\":7146:7335   */\n    tag_67:\n        /* \"#utility.yul\":7223:7255   */\n      tag_158\n      tag_66\n      jump\t// in\n    tag_158:\n        /* \"#utility.yul\":7264:7329   */\n      tag_159\n        /* \"#utility.yul\":7322:7328   */\n      dup2\n        /* \"#utility.yul\":7314:7320   */\n      dup5\n        /* \"#utility.yul\":7308:7312   */\n      dup5\n        /* \"#utility.yul\":7264:7329   */\n      tag_65\n      jump\t// in\n    tag_159:\n        /* \"#utility.yul\":7199:7335   */\n      pop\n        /* \"#utility.yul\":7146:7335   */\n      pop\n      pop\n      jump\t// out\n        /* \"#utility.yul\":7341:7527   */\n    tag_68:\n        /* \"#utility.yul\":7401:7521   */\n    tag_161:\n        /* \"#utility.yul\":7418:7421   */\n      dup2\n        /* \"#utility.yul\":7411:7416   */\n      dup2\n        /* \"#utility.yul\":7408:7422   */\n      lt\n        /* \"#utility.yul\":7401:7521   */\n      iszero\n      tag_163\n      jumpi\n        /* \"#utility.yul\":7472:7511   */\n      tag_164\n        /* \"#utility.yul\":7509:7510   */\n      0x00\n        /* \"#utility.yul\":7502:7507   */\n      dup3\n        /* \"#utility.yul\":7472:7511   */\n      tag_67\n      jump\t// in\n    tag_164:\n        /* \"#utility.yul\":7445:7446   */\n      0x01\n        /* \"#utility.yul\":7438:7443   */\n      dup2\n        /* \"#utility.yul\":7434:7447   */\n      add\n        /* \"#utility.yul\":7425:7447   */\n      swap1\n      pop\n        /* \"#utility.yul\":7401:7521   */\n      jump(tag_161)\n    tag_163:\n        /* \"#utility.yul\":7341:7527   */\n      pop\n      pop\n      jump\t// out\n        /* \"#utility.yul\":7533:8076   */\n    tag_69:\n        /* \"#utility.yul\":7634:7636   */\n      0x1f\n        /* \"#utility.yul\":7629:7632   */\n      dup3\n        /* \"#utility.yul\":7626:7637   */\n      gt\n        /* \"#utility.yul\":7623:8069   */\n      iszero\n      tag_166\n      jumpi\n        /* \"#utility.yul\":7668:7706   */\n      tag_167\n        /* \"#utility.yul\":7700:7705   */\n      dup2\n        /* \"#utility.yul\":7668:7706   */\n      tag_57\n      jump\t// in\n    tag_167:\n        /* \"#utility.yul\":7752:7781   */\n      tag_168\n        /* \"#utility.yul\":7770:7780   */\n      dup5\n        /* \"#utility.yul\":7752:7781   */\n      tag_58\n      jump\t// in\n    tag_168:\n        /* \"#utility.yul\":7742:7750   */\n      dup2\n        /* \"#utility.yul\":7738:7782   */\n      add\n        /* \"#utility.yul\":7935:7937   */\n      0x20\n        /* \"#utility.yul\":7923:7933   */\n      dup6\n        /* \"#utility.yul\":7920:7938   */\n      lt\n        /* \"#utility.yul\":7917:7966   */\n      iszero\n      tag_169\n      jumpi\n        /* \"#utility.yul\":7956:7964   */\n      dup2\n        /* \"#utility.yul\":7941:7964   */\n      swap1\n      pop\n        /* \"#utility.yul\":7917:7966   */\n    tag_169:\n        /* \"#utility.yul\":7979:8059   */\n      tag_170\n        /* \"#utility.yul\":8035:8057   */\n      tag_171\n        /* \"#utility.yul\":8053:8056   */\n      dup6\n        /* \"#utility.yul\":8035:8057   */\n      tag_58\n      jump\t// in\n    tag_171:\n        /* \"#utility.yul\":8025:8033   */\n      dup4\n        /* \"#utility.yul\":8021:8058   */\n      add\n        /* \"#utility.yul\":8008:8019   */\n      dup3\n        /* \"#utility.yul\":7979:8059   */\n      tag_68\n      jump\t// in\n    tag_170:\n        /* \"#utility.yul\":7638:8069   */\n      pop\n      pop\n        /* \"#utility.yul\":7623:8069   */\n    tag_166:\n        /* \"#utility.yul\":7533:8076   */\n      pop\n      pop\n      pop\n      jump\t// out\n        /* \"#utility.yul\":8082:8199   */\n    tag_70:\n        /* \"#utility.yul\":8136:8144   */\n      0x00\n        /* \"#utility.yul\":8186:8191   */\n      dup3\n        /* \"#utility.yul\":8180:8184   */\n      dup3\n        /* \"#utility.yul\":8176:8192   */\n      shr\n        /* \"#utility.yul\":8155:8192   */\n      swap1\n      pop\n        /* \"#utility.yul\":8082:8199   */\n      swap3\n      swap2\n      pop\n      pop\n      jump\t// out\n        /* \"#utility.yul\":8205:8374   */\n    tag_71:\n        /* \"#utility.yul\":8249:8255   */\n      0x00\n        /* \"#utility.yul\":8282:8333   */\n      tag_174\n        /* \"#utility.yul\":8330:8331   */\n      0x00\n        /* \"#utility.yul\":8326:8332   */\n      not\n        /* \"#utility.yul\":8318:8323   */\n      dup5\n        /* \"#utility.yul\":8315:8316   */\n      0x08\n        /* \"#utility.yul\":8311:8324   */\n      mul\n        /* \"#utility.yul\":8282:8333   */\n      tag_70\n      jump\t// in\n    tag_174:\n        /* \"#utility.yul\":8278:8334   */\n      not\n        /* \"#utility.yul\":8363:8367   */\n      dup1\n        /* \"#utility.yul\":8357:8361   */\n      dup4\n        /* \"#utility.yul\":8353:8368   */\n      and\n        /* \"#utility.yul\":8343:8368   */\n      swap2\n      pop\n        /* \"#utility.yul\":8256:8374   */\n      pop\n        /* \"#utility.yul\":8205:8374   */\n      swap3\n      swap2\n      pop\n      pop\n      jump\t// out\n        /* \"#utility.yul\":8379:8674   */\n    tag_72:\n        /* \"#utility.yul\":8455:8459   */\n      0x00\n        /* \"#utility.yul\":8601:8630   */\n      tag_176\n        /* \"#utility.yul\":8626:8629   */\n      dup4\n        /* \"#utility.yul\":8620:8624   */\n      dup4\n        /* \"#utility.yul\":8601:8630   */\n      tag_71\n      jump\t// in\n    tag_176:\n        /* \"#utility.yul\":8593:8630   */\n      swap2\n      pop\n        /* \"#utility.yul\":8663:8666   */\n      dup3\n        /* \"#utility.yul\":8660:8661   */\n      0x02\n        /* \"#utility.yul\":8656:8667   */\n      mul\n        /* \"#utility.yul\":8650:8654   */\n      dup3\n        /* \"#utility.yul\":8647:8668   */\n      or\n        /* \"#utility.yul\":8639:8668   */\n      swap1\n      pop\n        /* \"#utility.yul\":8379:8674   */\n      swap3\n      swap2\n      pop\n      pop\n      jump\t// out\n        /* \"#utility.yul\":8679:10074   */\n    tag_34:\n        /* \"#utility.yul\":8796:8833   */\n      tag_178\n        /* \"#utility.yul\":8829:8832   */\n      dup3\n        /* \"#utility.yul\":8796:8833   */\n      tag_42\n      jump\t// in\n    tag_178:\n        /* \"#utility.yul\":8898:8916   */\n      0xffffffffffffffff\n        /* \"#utility.yul\":8890:8896   */\n      dup2\n        /* \"#utility.yul\":8887:8917   */\n      gt\n        /* \"#utility.yul\":8884:8940   */\n      iszero\n      tag_179\n      jumpi\n        /* \"#utility.yul\":8920:8938   */\n      tag_180\n      tag_49\n      jump\t// in\n    tag_180:\n        /* \"#utility.yul\":8884:8940   */\n    tag_179:\n        /* \"#utility.yul\":8964:9002   */\n      tag_181\n        /* \"#utility.yul\":8996:9000   */\n      dup3\n        /* \"#utility.yul\":8990:9001   */\n      sload\n        /* \"#utility.yul\":8964:9002   */\n      tag_21\n      jump\t// in\n    tag_181:\n        /* \"#utility.yul\":9049:9116   */\n      tag_182\n        /* \"#utility.yul\":9109:9115   */\n      dup3\n        /* \"#utility.yul\":9101:9107   */\n      dup3\n        /* \"#utility.yul\":9095:9099   */\n      dup6\n        /* \"#utility.yul\":9049:9116   */\n      tag_69\n      jump\t// in\n    tag_182:\n        /* \"#utility.yul\":9143:9144   */\n      0x00\n        /* \"#utility.yul\":9167:9171   */\n      0x20\n        /* \"#utility.yul\":9154:9171   */\n      swap1\n      pop\n        /* \"#utility.yul\":9199:9201   */\n      0x1f\n        /* \"#utility.yul\":9191:9197   */\n      dup4\n        /* \"#utility.yul\":9188:9202   */\n      gt\n        /* \"#utility.yul\":9216:9217   */\n      0x01\n        /* \"#utility.yul\":9211:9829   */\n      dup2\n      eq\n      tag_184\n      jumpi\n        /* \"#utility.yul\":9873:9874   */\n      0x00\n        /* \"#utility.yul\":9890:9896   */\n      dup5\n        /* \"#utility.yul\":9887:9964   */\n      iszero\n      tag_185\n      jumpi\n        /* \"#utility.yul\":9939:9948   */\n      dup3\n        /* \"#utility.yul\":9934:9937   */\n      dup8\n        /* \"#utility.yul\":9930:9949   */\n      add\n        /* \"#utility.yul\":9924:9950   */\n      mload\n        /* \"#utility.yul\":9915:9950   */\n      swap1\n      pop\n        /* \"#utility.yul\":9887:9964   */\n    tag_185:\n        /* \"#utility.yul\":9990:10057   */\n      tag_186\n        /* \"#utility.yul\":10050:10056   */\n      dup6\n        /* \"#utility.yul\":10043:10048   */\n      dup3\n        /* \"#utility.yul\":9990:10057   */\n      tag_72\n      jump\t// in\n    tag_186:\n        /* \"#utility.yul\":9984:9988   */\n      dup7\n        /* \"#utility.yul\":9977:10058   */\n      sstore\n        /* \"#utility.yul\":9846:10068   */\n      pop\n        /* \"#utility.yul\":9181:10068   */\n      jump(tag_183)\n        /* \"#utility.yul\":9211:9829   */\n    tag_184:\n        /* \"#utility.yul\":9263:9267   */\n      0x1f\n        /* \"#utility.yul\":9259:9268   */\n      not\n        /* \"#utility.yul\":9251:9257   */\n      dup5\n        /* \"#utility.yul\":9247:9269   */\n      and\n        /* \"#utility.yul\":9297:9334   */\n      tag_187\n        /* \"#utility.yul\":9329:9333   */\n      dup7\n        /* \"#utility.yul\":9297:9334   */\n      tag_57\n      jump\t// in\n    tag_187:\n        /* \"#utility.yul\":9356:9357   */\n      0x00\n        /* \"#utility.yul\":9370:9578   */\n    tag_188:\n        /* \"#utility.yul\":9384:9391   */\n      dup3\n        /* \"#utility.yul\":9381:9382   */\n      dup2\n        /* \"#utility.yul\":9378:9392   */\n      lt\n        /* \"#utility.yul\":9370:9578   */\n      iszero\n      tag_190\n      jumpi\n        /* \"#utility.yul\":9463:9472   */\n      dup5\n        /* \"#utility.yul\":9458:9461   */\n      dup10\n        /* \"#utility.yul\":9454:9473   */\n      add\n        /* \"#utility.yul\":9448:9474   */\n      mload\n        /* \"#utility.yul\":9440:9446   */\n      dup3\n        /* \"#utility.yul\":9433:9475   */\n      sstore\n        /* \"#utility.yul\":9514:9515   */\n      0x01\n        /* \"#utility.yul\":9506:9512   */\n      dup3\n        /* \"#utility.yul\":9502:9516   */\n      add\n        /* \"#utility.yul\":9492:9516   */\n      swap2\n      pop\n        /* \"#utility.yul\":9561:9563   */\n      0x20\n        /* \"#utility.yul\":9550:9559   */\n      dup6\n        /* \"#utility.yul\":9546:9564   */\n      add\n        /* \"#utility.yul\":9533:9564   */\n      swap5\n      pop\n        /* \"#utility.yul\":9407:9411   */\n      0x20\n        /* \"#utility.yul\":9404:9405   */\n      dup2\n        /* \"#utility.yul\":9400:9412   */\n      add\n        /* \"#utility.yul\":9395:9412   */\n      swap1\n      pop\n        /* \"#utility.yul\":9370:9578   */\n      jump(tag_188)\n    tag_190:\n        /* \"#utility.yul\":9606:9612   */\n      dup7\n        /* \"#utility.yul\":9597:9604   */\n      dup4\n        /* \"#utility.yul\":9594:9613   */\n      lt\n        /* \"#utility.yul\":9591:9770   */\n      iszero\n      tag_191\n      jumpi\n        /* \"#utility.yul\":9664:9673   */\n      dup5\n        /* \"#utility.yul\":9659:9662   */\n      dup10\n        /* \"#utility.yul\":9655:9674   */\n      add\n        /* \"#utility.yul\":9649:9675   */\n      mload\n        /* \"#utility.yul\":9707:9755   */\n      tag_192\n        /* \"#utility.yul\":9749:9753   */\n      0x1f\n        /* \"#utility.yul\":9741:9747   */\n      dup10\n        /* \"#utility.yul\":9737:9754   */\n      and\n        /* \"#utility.yul\":9726:9735   */\n      dup3\n        /* \"#utility.yul\":9707:9755   */\n      tag_71\n      jump\t// in\n    tag_192:\n        /* \"#utility.yul\":9699:9705   */\n      dup4\n        /* \"#utility.yul\":9692:9756   */\n      sstore\n        /* \"#utility.yul\":9614:9770   */\n      pop\n        /* \"#utility.yul\":9591:9770   */\n    tag_191:\n        /* \"#utility.yul\":9816:9817   */\n      0x01\n        /* \"#utility.yul\":9812:9813   */\n      0x02\n        /* \"#utility.yul\":9804:9810   */\n      dup9\n        /* \"#utility.yul\":9800:9814   */\n      mul\n        /* \"#utility.yul\":9796:9818   */\n      add\n        /* \"#utility.yul\":9790:9794   */\n      dup9\n        /* \"#utility.yul\":9783:9819   */\n      sstore\n        /* \"#utility.yul\":9218:9829   */\n      pop\n      pop\n      pop\n        /* \"#utility.yul\":9181:10068   */\n    tag_183:\n      pop\n        /* \"#utility.yul\":8771:10074   */\n      pop\n      pop\n      pop\n        /* \"#utility.yul\":8679:10074   */\n      pop\n      pop\n      jump\t// out\n\n    auxdata: 0xa26469706673582212209be3b941e592fe46eda14df566ddc3959f7f0dff57941810d390bf4d6dd52f5264736f6c63430008130033\n}\n",
				"bytecode": {
					"linkReferences": {},
					"object": "608060405234801561001057600080fd5b5061086e806100206000396000f3fe608060405234801561001057600080fd5b50600436106100415760003560e01c806369d2b352146100465780639fc8623914610076578063a84fd0ed146100a6575b600080fd5b610060600480360381019061005b91906102f3565b6100c2565b60405161006d91906103b0565b60405180910390f35b610090600480360381019061008b91906102f3565b610162565b60405161009d91906103b0565b60405180910390f35b6100c060048036038101906100bb9190610507565b610232565b005b600060205280600052604060002060009150905080546100e19061057f565b80601f016020809104026020016040519081016040528092919081815260200182805461010d9061057f565b801561015a5780601f1061012f5761010080835404028352916020019161015a565b820191906000526020600020905b81548152906001019060200180831161013d57829003601f168201915b505050505081565b60606000808373ffffffffffffffffffffffffffffffffffffffff1673ffffffffffffffffffffffffffffffffffffffff16815260200190815260200160002080546101ad9061057f565b80601f01602080910402602001604051908101604052809291908181526020018280546101d99061057f565b80156102265780601f106101fb57610100808354040283529160200191610226565b820191906000526020600020905b81548152906001019060200180831161020957829003601f168201915b50505050509050919050565b806000803373ffffffffffffffffffffffffffffffffffffffff1673ffffffffffffffffffffffffffffffffffffffff168152602001908152602001600020908161027d9190610766565b5050565b6000604051905090565b600080fd5b600080fd5b600073ffffffffffffffffffffffffffffffffffffffff82169050919050565b60006102c082610295565b9050919050565b6102d0816102b5565b81146102db57600080fd5b50565b6000813590506102ed816102c7565b92915050565b6000602082840312156103095761030861028b565b5b6000610317848285016102de565b91505092915050565b600081519050919050565b600082825260208201905092915050565b60005b8381101561035a57808201518184015260208101905061033f565b60008484015250505050565b6000601f19601f8301169050919050565b600061038282610320565b61038c818561032b565b935061039c81856020860161033c565b6103a581610366565b840191505092915050565b600060208201905081810360008301526103ca8184610377565b905092915050565b600080fd5b600080fd5b7f4e487b7100000000000000000000000000000000000000000000000000000000600052604160045260246000fd5b61041482610366565b810181811067ffffffffffffffff82111715610433576104326103dc565b5b80604052505050565b6000610446610281565b9050610452828261040b565b919050565b600067ffffffffffffffff821115610472576104716103dc565b5b61047b82610366565b9050602081019050919050565b82818337600083830152505050565b60006104aa6104a584610457565b61043c565b9050828152602081018484840111156104c6576104c56103d7565b5b6104d1848285610488565b509392505050565b600082601f8301126104ee576104ed6103d2565b5b81356104fe848260208601610497565b91505092915050565b60006020828403121561051d5761051c61028b565b5b600082013567ffffffffffffffff81111561053b5761053a610290565b5b610547848285016104d9565b91505092915050565b7f4e487b7100000000000000000000000000000000000000000000000000000000600052602260045260246000fd5b6000600282049050600182168061059757607f821691505b6020821081036105aa576105a9610550565b5b50919050565b60008190508160005260206000209050919050565b60006020601f8301049050919050565b600082821b905092915050565b6000600883026106127fffffffffffffffffffffffffffffffffffffffffffffffffffffffffffffffff826105d5565b61061c86836105d5565b95508019841693508086168417925050509392505050565b6000819050919050565b6000819050919050565b600061066361065e61065984610634565b61063e565b610634565b9050919050565b6000819050919050565b61067d83610648565b6106916106898261066a565b8484546105e2565b825550505050565b600090565b6106a6610699565b6106b1818484610674565b505050565b5b818110156106d5576106ca60008261069e565b6001810190506106b7565b5050565b601f82111561071a576106eb816105b0565b6106f4846105c5565b81016020851015610703578190505b61071761070f856105c5565b8301826106b6565b50505b505050565b600082821c905092915050565b600061073d6000198460080261071f565b1980831691505092915050565b6000610756838361072c565b9150826002028217905092915050565b61076f82610320565b67ffffffffffffffff811115610788576107876103dc565b5b610792825461057f565b61079d8282856106d9565b600060209050601f8311600181146107d057600084156107be578287015190505b6107c8858261074a565b865550610830565b601f1984166107de866105b0565b60005b82811015610806578489015182556001820191506020850194506020810190506107e1565b86831015610823578489015161081f601f89168261072c565b8355505b6001600288020188555050505b50505050505056fea26469706673582212209be3b941e592fe46eda14df566ddc3959f7f0dff57941810d390bf4d6dd52f5264736f6c63430008130033",
					"opcodes": "PUSH1 0x80 PUSH1 0x40 MSTORE CALLVALUE DUP1 ISZERO PUSH2 0x10 JUMPI PUSH1 0x0 DUP1 REVERT JUMPDEST POP PUSH2 0x86E DUP1 PUSH2 0x20 PUSH1 0x0 CODECOPY PUSH1 0x0 RETURN INVALID PUSH1 0x80 PUSH1 0x40 MSTORE CALLVALUE DUP1 ISZERO PUSH2 0x10 JUMPI PUSH1 0x0 DUP1 REVERT JUMPDEST POP PUSH1 0x4 CALLDATASIZE LT PUSH2 0x41 JUMPI PUSH1 0x0 CALLDATALOAD PUSH1 0xE0 SHR DUP1 PUSH4 0x69D2B352 EQ PUSH2 0x46 JUMPI DUP1 PUSH4 0x9FC86239 EQ PUSH2 0x76 JUMPI DUP1 PUSH4 0xA84FD0ED EQ PUSH2 0xA6 JUMPI JUMPDEST PUSH1 0x0 DUP1 REVERT JUMPDEST PUSH2 0x60 PUSH1 0x4 DUP1 CALLDATASIZE SUB DUP2 ADD SWAP1 PUSH2 0x5B SWAP2 SWAP1 PUSH2 0x2F3 JUMP JUMPDEST PUSH2 0xC2 JUMP JUMPDEST PUSH1 0x40 MLOAD PUSH2 0x6D SWAP2 SWAP1 PUSH2 0x3B0 JUMP JUMPDEST PUSH1 0x40 MLOAD DUP1 SWAP2 SUB SWAP1 RETURN JUMPDEST PUSH2 0x90 PUSH1 0x4 DUP1 CALLDATASIZE SUB DUP2 ADD SWAP1 PUSH2 0x8B SWAP2 SWAP1 PUSH2 0x2F3 JUMP JUMPDEST PUSH2 0x162 JUMP JUMPDEST PUSH1 0x40 MLOAD PUSH2 0x9D SWAP2 SWAP1 PUSH2 0x3B0 JUMP JUMPDEST PUSH1 0x40 MLOAD DUP1 SWAP2 SUB SWAP1 RETURN JUMPDEST PUSH2 0xC0 PUSH1 0x4 DUP1 CALLDATASIZE SUB DUP2 ADD SWAP1 PUSH2 0xBB SWAP2 SWAP1 PUSH2 0x507 JUMP JUMPDEST PUSH2 0x232 JUMP JUMPDEST STOP JUMPDEST PUSH1 0x0 PUSH1 0x20 MSTORE DUP1 PUSH1 0x0 MSTORE PUSH1 0x40 PUSH1 0x0 KECCAK256 PUSH1 0x0 SWAP2 POP SWAP1 POP DUP1 SLOAD PUSH2 0xE1 SWAP1 PUSH2 0x57F JUMP JUMPDEST DUP1 PUSH1 0x1F ADD PUSH1 0x20 DUP1 SWAP2 DIV MUL PUSH1 0x20 ADD PUSH1 0x40 MLOAD SWAP1 DUP2 ADD PUSH1 0x40 MSTORE DUP1 SWAP3 SWAP2 SWAP1 DUP2 DUP2 MSTORE PUSH1 0x20 ADD DUP3 DUP1 SLOAD PUSH2 0x10D SWAP1 PUSH2 0x57F JUMP JUMPDEST DUP1 ISZERO PUSH2 0x15A JUMPI DUP1 PUSH1 0x1F LT PUSH2 0x12F JUMPI PUSH2 0x100 DUP1 DUP4 SLOAD DIV MUL DUP4 MSTORE SWAP2 PUSH1 0x20 ADD SWAP2 PUSH2 0x15A JUMP JUMPDEST DUP3 ADD SWAP2 SWAP1 PUSH1 0x0 MSTORE PUSH1 0x20 PUSH1 0x0 KECCAK256 SWAP1 JUMPDEST DUP2 SLOAD DUP2 MSTORE SWAP1 PUSH1 0x1 ADD SWAP1 PUSH1 0x20 ADD DUP1 DUP4 GT PUSH2 0x13D JUMPI DUP3 SWAP1 SUB PUSH1 0x1F AND DUP3 ADD SWAP2 JUMPDEST POP POP POP POP POP DUP2 JUMP JUMPDEST PUSH1 0x60 PUSH1 0x0 DUP1 DUP4 PUSH20 0xFFFFFFFFFFFFFFFFFFFFFFFFFFFFFFFFFFFFFFFF AND PUSH20 0xFFFFFFFFFFFFFFFFFFFFFFFFFFFFFFFFFFFFFFFF AND DUP2 MSTORE PUSH1 0x20 ADD SWAP1 DUP2 MSTORE PUSH1 0x20 ADD PUSH1 0x0 KECCAK256 DUP1 SLOAD PUSH2 0x1AD SWAP1 PUSH2 0x57F JUMP JUMPDEST DUP1 PUSH1 0x1F ADD PUSH1 0x20 DUP1 SWAP2 DIV MUL PUSH1 0x20 ADD PUSH1 0x40 MLOAD SWAP1 DUP2 ADD PUSH1 0x40 MSTORE DUP1 SWAP3 SWAP2 SWAP1 DUP2 DUP2 MSTORE PUSH1 0x20 ADD DUP3 DUP1 SLOAD PUSH2 0x1D9 SWAP1 PUSH2 0x57F JUMP JUMPDEST DUP1 ISZERO PUSH2 0x226 JUMPI DUP1 PUSH1 0x1F LT PUSH2 0x1FB JUMPI PUSH2 0x100 DUP1 DUP4 SLOAD DIV MUL DUP4 MSTORE SWAP2 PUSH1 0x20 ADD SWAP2 PUSH2 0x226 JUMP JUMPDEST DUP3 ADD SWAP2 SWAP1 PUSH1 0x0 MSTORE PUSH1 0x20 PUSH1 0x0 KECCAK256 SWAP1 JUMPDEST DUP2 SLOAD DUP2 MSTORE SWAP1 PUSH1 0x1 ADD SWAP1 PUSH1 0x20 ADD DUP1 DUP4 GT PUSH2 0x209 JUMPI DUP3 SWAP1 SUB PUSH1 0x1F AND DUP3 ADD SWAP2 JUMPDEST POP POP POP POP POP SWAP1 POP SWAP2 SWAP1 POP JUMP JUMPDEST DUP1 PUSH1 0x0 DUP1 CALLER PUSH20 0xFFFFFFFFFFFFFFFFFFFFFFFFFFFFFFFFFFFFFFFF AND PUSH20 0xFFFFFFFFFFFFFFFFFFFFFFFFFFFFFFFFFFFFFFFF AND DUP2 MSTORE PUSH1 0x20 ADD SWAP1 DUP2 MSTORE PUSH1 0x20 ADD PUSH1 0x0 KECCAK256 SWAP1 DUP2 PUSH2 0x27D SWAP2 SWAP1 PUSH2 0x766 JUMP JUMPDEST POP POP JUMP JUMPDEST PUSH1 0x0 PUSH1 0x40 MLOAD SWAP1 POP SWAP1 JUMP JUMPDEST PUSH1 0x0 DUP1 REVERT JUMPDEST PUSH1 0x0 DUP1 REVERT JUMPDEST PUSH1 0x0 PUSH20 0xFFFFFFFFFFFFFFFFFFFFFFFFFFFFFFFFFFFFFFFF DUP3 AND SWAP1 POP SWAP2 SWAP1 POP JUMP JUMPDEST PUSH1 0x0 PUSH2 0x2C0 DUP3 PUSH2 0x295 JUMP JUMPDEST SWAP1 POP SWAP2 SWAP1 POP JUMP JUMPDEST PUSH2 0x2D0 DUP2 PUSH2 0x2B5 JUMP JUMPDEST DUP2 EQ PUSH2 0x2DB JUMPI PUSH1 0x0 DUP1 REVERT JUMPDEST POP JUMP JUMPDEST PUSH1 0x0 DUP2 CALLDATALOAD SWAP1 POP PUSH2 0x2ED DUP2 PUSH2 0x2C7 JUMP JUMPDEST SWAP3 SWAP2 POP POP JUMP JUMPDEST PUSH1 0x0 PUSH1 0x20 DUP3 DUP5 SUB SLT ISZERO PUSH2 0x309 JUMPI PUSH2 0x308 PUSH2 0x28B JUMP JUMPDEST JUMPDEST PUSH1 0x0 PUSH2 0x317 DUP5 DUP3 DUP6 ADD PUSH2 0x2DE JUMP JUMPDEST SWAP2 POP POP SWAP3 SWAP2 POP POP JUMP JUMPDEST PUSH1 0x0 DUP2 MLOAD SWAP1 POP SWAP2 SWAP1 POP JUMP JUMPDEST PUSH1 0x0 DUP3 DUP3 MSTORE PUSH1 0x20 DUP3 ADD SWAP1 POP SWAP3 SWAP2 POP POP JUMP JUMPDEST PUSH1 0x0 JUMPDEST DUP4 DUP2 LT ISZERO PUSH2 0x35A JUMPI DUP1 DUP3 ADD MLOAD DUP2 DUP5 ADD MSTORE PUSH1 0x20 DUP2 ADD SWAP1 POP PUSH2 0x33F JUMP JUMPDEST PUSH1 0x0 DUP5 DUP5 ADD MSTORE POP POP POP POP JUMP JUMPDEST PUSH1 0x0 PUSH1 0x1F NOT PUSH1 0x1F DUP4 ADD AND SWAP1 POP SWAP2 SWAP1 POP JUMP JUMPDEST PUSH1 0x0 PUSH2 0x382 DUP3 PUSH2 0x320 JUMP JUMPDEST PUSH2 0x38C DUP2 DUP6 PUSH2 0x32B JUMP JUMPDEST SWAP4 POP PUSH2 0x39C DUP2 DUP6 PUSH1 0x20 DUP7 ADD PUSH2 0x33C JUMP JUMPDEST PUSH2 0x3A5 DUP2 PUSH2 0x366 JUMP JUMPDEST DUP5 ADD SWAP2 POP POP SWAP3 SWAP2 POP POP JUMP JUMPDEST PUSH1 0x0 PUSH1 0x20 DUP3 ADD SWAP1 POP DUP2 DUP2 SUB PUSH1 0x0 DUP4 ADD MSTORE PUSH2 0x3CA DUP2 DUP5 PUSH2 0x377 JUMP JUMPDEST SWAP1 POP SWAP3 SWAP2 POP POP JUMP JUMPDEST PUSH1 0x0 DUP1 REVERT JUMPDEST PUSH1 0x0 DUP1 REVERT JUMPDEST PUSH32 0x4E487B7100000000000000000000000000000000000000000000000000000000 PUSH1 0x0 MSTORE PUSH1 0x41 PUSH1 0x4 MSTORE PUSH1 0x24 PUSH1 0x0 REVERT JUMPDEST PUSH2 0x414 DUP3 PUSH2 0x366 JUMP JUMPDEST DUP2 ADD DUP2 DUP2 LT PUSH8 0xFFFFFFFFFFFFFFFF DUP3 GT OR ISZERO PUSH2 0x433 JUMPI PUSH2 0x432 PUSH2 0x3DC JUMP JUMPDEST JUMPDEST DUP1 PUSH1 0x40 MSTORE POP POP POP JUMP JUMPDEST PUSH1 0x0 PUSH2 0x446 PUSH2 0x281 JUMP JUMPDEST SWAP1 POP PUSH2 0x452 DUP3 DUP3 PUSH2 0x40B JUMP JUMPDEST SWAP2 SWAP1 POP JUMP JUMPDEST PUSH1 0x0 PUSH8 0xFFFFFFFFFFFFFFFF DUP3 GT ISZERO PUSH2 0x472 JUMPI PUSH2 0x471 PUSH2 0x3DC JUMP JUMPDEST JUMPDEST PUSH2 0x47B DUP3 PUSH2 0x366 JUMP JUMPDEST SWAP1 POP PUSH1 0x20 DUP2 ADD SWAP1 POP SWAP2 SWAP1 POP JUMP JUMPDEST DUP3 DUP2 DUP4 CALLDATACOPY PUSH1 0x0 DUP4 DUP4 ADD MSTORE POP POP POP JUMP JUMPDEST PUSH1 0x0 PUSH2 0x4AA PUSH2 0x4A5 DUP5 PUSH2 0x457 JUMP JUMPDEST PUSH2 0x43C JUMP JUMPDEST SWAP1 POP DUP3 DUP2 MSTORE PUSH1 0x20 DUP2 ADD DUP5 DUP5 DUP5 ADD GT ISZERO PUSH2 0x4C6 JUMPI PUSH2 0x4C5 PUSH2 0x3D7 JUMP JUMPDEST JUMPDEST PUSH2 0x4D1 DUP5 DUP3 DUP6 PUSH2 0x488 JUMP JUMPDEST POP SWAP4 SWAP3 POP POP POP JUMP JUMPDEST PUSH1 0x0 DUP3 PUSH1 0x1F DUP4 ADD SLT PUSH2 0x4EE JUMPI PUSH2 0x4ED PUSH2 0x3D2 JUMP JUMPDEST JUMPDEST DUP2 CALLDATALOAD PUSH2 0x4FE DUP5 DUP3 PUSH1 0x20 DUP7 ADD PUSH2 0x497 JUMP JUMPDEST SWAP2 POP POP SWAP3 SWAP2 POP POP JUMP JUMPDEST PUSH1 0x0 PUSH1 0x20 DUP3 DUP5 SUB SLT ISZERO PUSH2 0x51D JUMPI PUSH2 0x51C PUSH2 0x28B JUMP JUMPDEST JUMPDEST PUSH1 0x0 DUP3 ADD CALLDATALOAD PUSH8 0xFFFFFFFFFFFFFFFF DUP2 GT ISZERO PUSH2 0x53B JUMPI PUSH2 0x53A PUSH2 0x290 JUMP JUMPDEST JUMPDEST PUSH2 0x547 DUP5 DUP3 DUP6 ADD PUSH2 0x4D9 JUMP JUMPDEST SWAP2 POP POP SWAP3 SWAP2 POP POP JUMP JUMPDEST PUSH32 0x4E487B7100000000000000000000000000000000000000000000000000000000 PUSH1 0x0 MSTORE PUSH1 0x22 PUSH1 0x4 MSTORE PUSH1 0x24 PUSH1 0x0 REVERT JUMPDEST PUSH1 0x0 PUSH1 0x2 DUP3 DIV SWAP1 POP PUSH1 0x1 DUP3 AND DUP1 PUSH2 0x597 JUMPI PUSH1 0x7F DUP3 AND SWAP2 POP JUMPDEST PUSH1 0x20 DUP3 LT DUP2 SUB PUSH2 0x5AA JUMPI PUSH2 0x5A9 PUSH2 0x550 JUMP JUMPDEST JUMPDEST POP SWAP2 SWAP1 POP JUMP JUMPDEST PUSH1 0x0 DUP2 SWAP1 POP DUP2 PUSH1 0x0 MSTORE PUSH1 0x20 PUSH1 0x0 KECCAK256 SWAP1 POP SWAP2 SWAP1 POP JUMP JUMPDEST PUSH1 0x0 PUSH1 0x20 PUSH1 0x1F DUP4 ADD DIV SWAP1 POP SWAP2 SWAP1 POP JUMP JUMPDEST PUSH1 0x0 DUP3 DUP3 SHL SWAP1 POP SWAP3 SWAP2 POP POP JUMP JUMPDEST PUSH1 0x0 PUSH1 0x8 DUP4 MUL PUSH2 0x612 PUSH32 0xFFFFFFFFFFFFFFFFFFFFFFFFFFFFFFFFFFFFFFFFFFFFFFFFFFFFFFFFFFFFFFFF DUP3 PUSH2 0x5D5 JUMP JUMPDEST PUSH2 0x61C DUP7 DUP4 PUSH2 0x5D5 JUMP JUMPDEST SWAP6 POP DUP1 NOT DUP5 AND SWAP4 POP DUP1 DUP7 AND DUP5 OR SWAP3 POP POP POP SWAP4 SWAP3 POP POP POP JUMP JUMPDEST PUSH1 0x0 DUP2 SWAP1 POP SWAP2 SWAP1 POP JUMP JUMPDEST PUSH1 0x0 DUP2 SWAP1 POP SWAP2 SWAP1 POP JUMP JUMPDEST PUSH1 0x0 PUSH2 0x663 PUSH2 0x65E PUSH2 0x659 DUP5 PUSH2 0x634 JUMP JUMPDEST PUSH2 0x63E JUMP JUMPDEST PUSH2 0x634 JUMP JUMPDEST SWAP1 POP SWAP2 SWAP1 POP JUMP JUMPDEST PUSH1 0x0 DUP2 SWAP1 POP SWAP2 SWAP1 POP JUMP JUMPDEST PUSH2 0x67D DUP4 PUSH2 0x648 JUMP JUMPDEST PUSH2 0x691 PUSH2 0x689 DUP3 PUSH2 0x66A JUMP JUMPDEST DUP5 DUP5 SLOAD PUSH2 0x5E2 JUMP JUMPDEST DUP3 SSTORE POP POP POP POP JUMP JUMPDEST PUSH1 0x0 SWAP1 JUMP JUMPDEST PUSH2 0x6A6 PUSH2 0x699 JUMP JUMPDEST PUSH2 0x6B1 DUP2 DUP5 DUP5 PUSH2 0x674 JUMP JUMPDEST POP POP POP JUMP JUMPDEST JUMPDEST DUP2 DUP2 LT ISZERO PUSH2 0x6D5 JUMPI PUSH2 0x6CA PUSH1 0x0 DUP3 PUSH2 0x69E JUMP JUMPDEST PUSH1 0x1 DUP2 ADD SWAP1 POP PUSH2 0x6B7 JUMP JUMPDEST POP POP JUMP JUMPDEST PUSH1 0x1F DUP3 GT ISZERO PUSH2 0x71A JUMPI PUSH2 0x6EB DUP2 PUSH2 0x5B0 JUMP JUMPDEST PUSH2 0x6F4 DUP5 PUSH2 0x5C5 JUMP JUMPDEST DUP2 ADD PUSH1 0x20 DUP6 LT ISZERO PUSH2 0x703 JUMPI DUP2 SWAP1 POP JUMPDEST PUSH2 0x717 PUSH2 0x70F DUP6 PUSH2 0x5C5 JUMP JUMPDEST DUP4 ADD DUP3 PUSH2 0x6B6 JUMP JUMPDEST POP POP JUMPDEST POP POP POP JUMP JUMPDEST PUSH1 0x0 DUP3 DUP3 SHR SWAP1 POP SWAP3 SWAP2 POP POP JUMP JUMPDEST PUSH1 0x0 PUSH2 0x73D PUSH1 0x0 NOT DUP5 PUSH1 0x8 MUL PUSH2 0x71F JUMP JUMPDEST NOT DUP1 DUP4 AND SWAP2 POP POP SWAP3 SWAP2 POP POP JUMP JUMPDEST PUSH1 0x0 PUSH2 0x756 DUP4 DUP4 PUSH2 0x72C JUMP JUMPDEST SWAP2 POP DUP3 PUSH1 0x2 MUL DUP3 OR SWAP1 POP SWAP3 SWAP2 POP POP JUMP JUMPDEST PUSH2 0x76F DUP3 PUSH2 0x320 JUMP JUMPDEST PUSH8 0xFFFFFFFFFFFFFFFF DUP2 GT ISZERO PUSH2 0x788 JUMPI PUSH2 0x787 PUSH2 0x3DC JUMP JUMPDEST JUMPDEST PUSH2 0x792 DUP3 SLOAD PUSH2 0x57F JUMP JUMPDEST PUSH2 0x79D DUP3 DUP3 DUP6 PUSH2 0x6D9 JUMP JUMPDEST PUSH1 0x0 PUSH1 0x20 SWAP1 POP PUSH1 0x1F DUP4 GT PUSH1 0x1 DUP2 EQ PUSH2 0x7D0 JUMPI PUSH1 0x0 DUP5 ISZERO PUSH2 0x7BE JUMPI DUP3 DUP8 ADD MLOAD SWAP1 POP JUMPDEST PUSH2 0x7C8 DUP6 DUP3 PUSH2 0x74A JUMP JUMPDEST DUP7 SSTORE POP PUSH2 0x830 JUMP JUMPDEST PUSH1 0x1F NOT DUP5 AND PUSH2 0x7DE DUP7 PUSH2 0x5B0 JUMP JUMPDEST PUSH1 0x0 JUMPDEST DUP3 DUP2 LT ISZERO PUSH2 0x806 JUMPI DUP5 DUP10 ADD MLOAD DUP3 SSTORE PUSH1 0x1 DUP3 ADD SWAP2 POP PUSH1 0x20 DUP6 ADD SWAP5 POP PUSH1 0x20 DUP2 ADD SWAP1 POP PUSH2 0x7E1 JUMP JUMPDEST DUP7 DUP4 LT ISZERO PUSH2 0x823 JUMPI DUP5 DUP10 ADD MLOAD PUSH2 0x81F PUSH1 0x1F DUP10 AND DUP3 PUSH2 0x72C JUMP JUMPDEST DUP4 SSTORE POP JUMPDEST PUSH1 0x1 PUSH1 0x2 DUP9 MUL ADD DUP9 SSTORE POP POP POP JUMPDEST POP POP POP POP POP POP JUMP INVALID LOG2 PUSH5 0x6970667358 0x22 SLT KECCAK256 SWAP12 0xE3 0xB9 COINBASE 0xE5 SWAP3 INVALID CHAINID 0xED LOG1 0x4D CREATE2 PUSH7 0xDDC3959F7F0DFF JUMPI SWAP5 XOR LT 0xD3 SWAP1 0xBF 0x4D PUSH14 0xD52F5264736F6C63430008130033 "
				},
				"gasEstimates": {
					"creation": {
						"codeDepositCost": "431600",
						"executionCost": "468",
						"totalCost": "432068"
					},
					"external": {
						"getMode(address)": "infinite",
						"moods(address)": "infinite",
						"setMode(string)": "infinite"
					}
				},
				"methodIdentifiers": {
					"getMode(address)": "9fc86239",
					"moods(address)": "69d2b352",
					"setMode(string)": "a84fd0ed"
				}
			},
			"storageLayout": {
				"storage": [
					{
						"astId": 5,
						"contract": "learnw3/learning.sol:mymood",
						"label": "moods",
						"offset": 0,
						"slot": "0",
						"type": "t_mapping(t_address,t_string_storage)"
					}
				],
				"types": {
					"t_address": {
						"encoding": "inplace",
						"label": "address",
						"numberOfBytes": "20"
					},
					"t_mapping(t_address,t_string_storage)": {
						"encoding": "mapping",
						"key": "t_address",
						"label": "mapping(address => string)",
						"numberOfBytes": "32",
						"value": "t_string_storage"
					},
					"t_string_storage": {
						"encoding": "bytes",
						"label": "string",
						"numberOfBytes": "32"
					}
				}
			},
			"userdoc": {
				"kind": "user",
				"methods": {},
				"version": 1
			}
		}
	}
}