{
	"30days challenge with isa/challenge.sol": {
		"dayschallenge30": {
			"abi": [
				{
					"inputs": [
						{
							"internalType": "uint256",
							"name": "c",
							"type": "uint256"
						}
					],
					"name": "leteven",
					"outputs": [
						{
							"internalType": "bool",
							"name": "",
							"type": "bool"
						}
					],
					"stateMutability": "pure",
					"type": "function"
				},
				{
					"inputs": [
						{
							"internalType": "uint256",
							"name": "a",
							"type": "uint256"
						},
						{
							"internalType": "uint256",
							"name": "b",
							"type": "uint256"
						}
					],
					"name": "multiply",
					"outputs": [
						{
							"internalType": "uint256",
							"name": "",
							"type": "uint256"
						}
					],
					"stateMutability": "pure",
					"type": "function"
				}
			],
			"devdoc": {
				"kind": "dev",
				"methods": {},
				"version": 1
			},
			"evm": {
				"assembly": "    /* \"30days challenge with isa/challenge.sol\":67:502  contract dayschallenge30 {... */\n  mstore(0x40, 0x80)\n  callvalue\n  dup1\n  iszero\n  tag_1\n  jumpi\n  0x00\n  dup1\n  revert\ntag_1:\n  pop\n  dataSize(sub_0)\n  dup1\n  dataOffset(sub_0)\n  0x00\n  codecopy\n  0x00\n  return\nstop\n\nsub_0: assembly {\n        /* \"30days challenge with isa/challenge.sol\":67:502  contract dayschallenge30 {... */\n      mstore(0x40, 0x80)\n      callvalue\n      dup1\n      iszero\n      tag_1\n      jumpi\n      0x00\n      dup1\n      revert\n    tag_1:\n      pop\n      jumpi(tag_2, lt(calldatasize, 0x04))\n      shr(0xe0, calldataload(0x00))\n      dup1\n      0x165c4a16\n      eq\n      tag_3\n      jumpi\n      dup1\n      0xf28fe09d\n      eq\n      tag_4\n      jumpi\n    tag_2:\n      0x00\n      dup1\n      revert\n        /* \"30days challenge with isa/challenge.sol\":105:198  function multiply( uint a, uint b) public pure returns (uint){... */\n    tag_3:\n      tag_5\n      0x04\n      dup1\n      calldatasize\n      sub\n      dup2\n      add\n      swap1\n      tag_6\n      swap2\n      swap1\n      tag_7\n      jump\t// in\n    tag_6:\n      tag_8\n      jump\t// in\n    tag_5:\n      mload(0x40)\n      tag_9\n      swap2\n      swap1\n      tag_10\n      jump\t// in\n    tag_9:\n      mload(0x40)\n      dup1\n      swap2\n      sub\n      swap1\n      return\n        /* \"30days challenge with isa/challenge.sol\":380:499  function leteven(uint c) public pure returns(bool) {... */\n    tag_4:\n      tag_11\n      0x04\n      dup1\n      calldatasize\n      sub\n      dup2\n      add\n      swap1\n      tag_12\n      swap2\n      swap1\n      tag_13\n      jump\t// in\n    tag_12:\n      tag_14\n      jump\t// in\n    tag_11:\n      mload(0x40)\n      tag_15\n      swap2\n      swap1\n      tag_16\n      jump\t// in\n    tag_15:\n      mload(0x40)\n      dup1\n      swap2\n      sub\n      swap1\n      return\n        /* \"30days challenge with isa/challenge.sol\":105:198  function multiply( uint a, uint b) public pure returns (uint){... */\n    tag_8:\n        /* \"30days challenge with isa/challenge.sol\":161:165  uint */\n      0x00\n        /* \"30days challenge with isa/challenge.sol\":188:189  b */\n      dup2\n        /* \"30days challenge with isa/challenge.sol\":184:185  a */\n      dup4\n        /* \"30days challenge with isa/challenge.sol\":184:189  a * b */\n      tag_18\n      swap2\n      swap1\n      tag_19\n      jump\t// in\n    tag_18:\n        /* \"30days challenge with isa/challenge.sol\":177:190  return(a * b) */\n      swap1\n      pop\n        /* \"30days challenge with isa/challenge.sol\":105:198  function multiply( uint a, uint b) public pure returns (uint){... */\n      swap3\n      swap2\n      pop\n      pop\n      jump\t// out\n        /* \"30days challenge with isa/challenge.sol\":380:499  function leteven(uint c) public pure returns(bool) {... */\n    tag_14:\n        /* \"30days challenge with isa/challenge.sol\":425:429  bool */\n      0x00\n        /* \"30days challenge with isa/challenge.sol\":459:460  0 */\n      dup1\n        /* \"30days challenge with isa/challenge.sol\":454:455  2 */\n      0x02\n        /* \"30days challenge with isa/challenge.sol\":450:451  c */\n      dup4\n        /* \"30days challenge with isa/challenge.sol\":450:455  c % 2 */\n      tag_21\n      swap2\n      swap1\n      tag_22\n      jump\t// in\n    tag_21:\n        /* \"30days challenge with isa/challenge.sol\":450:460  c % 2 == 0 */\n      eq\n        /* \"30days challenge with isa/challenge.sol\":442:461  require(c % 2 == 0) */\n      tag_23\n      jumpi\n      0x00\n      dup1\n      revert\n    tag_23:\n        /* \"30days challenge with isa/challenge.sol\":487:491  true */\n      0x01\n        /* \"30days challenge with isa/challenge.sol\":480:491  return true */\n      swap1\n      pop\n        /* \"30days challenge with isa/challenge.sol\":380:499  function leteven(uint c) public pure returns(bool) {... */\n      swap2\n      swap1\n      pop\n      jump\t// out\n        /* \"#utility.yul\":88:205   */\n    tag_25:\n        /* \"#utility.yul\":197:198   */\n      0x00\n        /* \"#utility.yul\":194:195   */\n      dup1\n        /* \"#utility.yul\":187:199   */\n      revert\n        /* \"#utility.yul\":334:411   */\n    tag_27:\n        /* \"#utility.yul\":371:378   */\n      0x00\n        /* \"#utility.yul\":400:405   */\n      dup2\n        /* \"#utility.yul\":389:405   */\n      swap1\n      pop\n        /* \"#utility.yul\":334:411   */\n      swap2\n      swap1\n      pop\n      jump\t// out\n        /* \"#utility.yul\":417:539   */\n    tag_28:\n        /* \"#utility.yul\":490:514   */\n      tag_41\n        /* \"#utility.yul\":508:513   */\n      dup2\n        /* \"#utility.yul\":490:514   */\n      tag_27\n      jump\t// in\n    tag_41:\n        /* \"#utility.yul\":483:488   */\n      dup2\n        /* \"#utility.yul\":480:515   */\n      eq\n        /* \"#utility.yul\":470:533   */\n      tag_42\n      jumpi\n        /* \"#utility.yul\":529:530   */\n      0x00\n        /* \"#utility.yul\":526:527   */\n      dup1\n        /* \"#utility.yul\":519:531   */\n      revert\n        /* \"#utility.yul\":470:533   */\n    tag_42:\n        /* \"#utility.yul\":417:539   */\n      pop\n      jump\t// out\n        /* \"#utility.yul\":545:684   */\n    tag_29:\n        /* \"#utility.yul\":591:596   */\n      0x00\n        /* \"#utility.yul\":629:635   */\n      dup2\n        /* \"#utility.yul\":616:636   */\n      calldataload\n        /* \"#utility.yul\":607:636   */\n      swap1\n      pop\n        /* \"#utility.yul\":645:678   */\n      tag_44\n        /* \"#utility.yul\":672:677   */\n      dup2\n        /* \"#utility.yul\":645:678   */\n      tag_28\n      jump\t// in\n    tag_44:\n        /* \"#utility.yul\":545:684   */\n      swap3\n      swap2\n      pop\n      pop\n      jump\t// out\n        /* \"#utility.yul\":690:1164   */\n    tag_7:\n        /* \"#utility.yul\":758:764   */\n      0x00\n        /* \"#utility.yul\":766:772   */\n      dup1\n        /* \"#utility.yul\":815:817   */\n      0x40\n        /* \"#utility.yul\":803:812   */\n      dup4\n        /* \"#utility.yul\":794:801   */\n      dup6\n        /* \"#utility.yul\":790:813   */\n      sub\n        /* \"#utility.yul\":786:818   */\n      slt\n        /* \"#utility.yul\":783:902   */\n      iszero\n      tag_46\n      jumpi\n        /* \"#utility.yul\":821:900   */\n      tag_47\n      tag_25\n      jump\t// in\n    tag_47:\n        /* \"#utility.yul\":783:902   */\n    tag_46:\n        /* \"#utility.yul\":941:942   */\n      0x00\n        /* \"#utility.yul\":966:1019   */\n      tag_48\n        /* \"#utility.yul\":1011:1018   */\n      dup6\n        /* \"#utility.yul\":1002:1008   */\n      dup3\n        /* \"#utility.yul\":991:1000   */\n      dup7\n        /* \"#utility.yul\":987:1009   */\n      add\n        /* \"#utility.yul\":966:1019   */\n      tag_29\n      jump\t// in\n    tag_48:\n        /* \"#utility.yul\":956:1019   */\n      swap3\n      pop\n        /* \"#utility.yul\":912:1029   */\n      pop\n        /* \"#utility.yul\":1068:1070   */\n      0x20\n        /* \"#utility.yul\":1094:1147   */\n      tag_49\n        /* \"#utility.yul\":1139:1146   */\n      dup6\n        /* \"#utility.yul\":1130:1136   */\n      dup3\n        /* \"#utility.yul\":1119:1128   */\n      dup7\n        /* \"#utility.yul\":1115:1137   */\n      add\n        /* \"#utility.yul\":1094:1147   */\n      tag_29\n      jump\t// in\n    tag_49:\n        /* \"#utility.yul\":1084:1147   */\n      swap2\n      pop\n        /* \"#utility.yul\":1039:1157   */\n      pop\n        /* \"#utility.yul\":690:1164   */\n      swap3\n      pop\n      swap3\n      swap1\n      pop\n      jump\t// out\n        /* \"#utility.yul\":1170:1288   */\n    tag_30:\n        /* \"#utility.yul\":1257:1281   */\n      tag_51\n        /* \"#utility.yul\":1275:1280   */\n      dup2\n        /* \"#utility.yul\":1257:1281   */\n      tag_27\n      jump\t// in\n    tag_51:\n        /* \"#utility.yul\":1252:1255   */\n      dup3\n        /* \"#utility.yul\":1245:1282   */\n      mstore\n        /* \"#utility.yul\":1170:1288   */\n      pop\n      pop\n      jump\t// out\n        /* \"#utility.yul\":1294:1516   */\n    tag_10:\n        /* \"#utility.yul\":1387:1391   */\n      0x00\n        /* \"#utility.yul\":1425:1427   */\n      0x20\n        /* \"#utility.yul\":1414:1423   */\n      dup3\n        /* \"#utility.yul\":1410:1428   */\n      add\n        /* \"#utility.yul\":1402:1428   */\n      swap1\n      pop\n        /* \"#utility.yul\":1438:1509   */\n      tag_53\n        /* \"#utility.yul\":1506:1507   */\n      0x00\n        /* \"#utility.yul\":1495:1504   */\n      dup4\n        /* \"#utility.yul\":1491:1508   */\n      add\n        /* \"#utility.yul\":1482:1488   */\n      dup5\n        /* \"#utility.yul\":1438:1509   */\n      tag_30\n      jump\t// in\n    tag_53:\n        /* \"#utility.yul\":1294:1516   */\n      swap3\n      swap2\n      pop\n      pop\n      jump\t// out\n        /* \"#utility.yul\":1522:1851   */\n    tag_13:\n        /* \"#utility.yul\":1581:1587   */\n      0x00\n        /* \"#utility.yul\":1630:1632   */\n      0x20\n        /* \"#utility.yul\":1618:1627   */\n      dup3\n        /* \"#utility.yul\":1609:1616   */\n      dup5\n        /* \"#utility.yul\":1605:1628   */\n      sub\n        /* \"#utility.yul\":1601:1633   */\n      slt\n        /* \"#utility.yul\":1598:1717   */\n      iszero\n      tag_55\n      jumpi\n        /* \"#utility.yul\":1636:1715   */\n      tag_56\n      tag_25\n      jump\t// in\n    tag_56:\n        /* \"#utility.yul\":1598:1717   */\n    tag_55:\n        /* \"#utility.yul\":1756:1757   */\n      0x00\n        /* \"#utility.yul\":1781:1834   */\n      tag_57\n        /* \"#utility.yul\":1826:1833   */\n      dup5\n        /* \"#utility.yul\":1817:1823   */\n      dup3\n        /* \"#utility.yul\":1806:1815   */\n      dup6\n        /* \"#utility.yul\":1802:1824   */\n      add\n        /* \"#utility.yul\":1781:1834   */\n      tag_29\n      jump\t// in\n    tag_57:\n        /* \"#utility.yul\":1771:1834   */\n      swap2\n      pop\n        /* \"#utility.yul\":1727:1844   */\n      pop\n        /* \"#utility.yul\":1522:1851   */\n      swap3\n      swap2\n      pop\n      pop\n      jump\t// out\n        /* \"#utility.yul\":1857:1947   */\n    tag_31:\n        /* \"#utility.yul\":1891:1898   */\n      0x00\n        /* \"#utility.yul\":1934:1939   */\n      dup2\n        /* \"#utility.yul\":1927:1940   */\n      iszero\n        /* \"#utility.yul\":1920:1941   */\n      iszero\n        /* \"#utility.yul\":1909:1941   */\n      swap1\n      pop\n        /* \"#utility.yul\":1857:1947   */\n      swap2\n      swap1\n      pop\n      jump\t// out\n        /* \"#utility.yul\":1953:2062   */\n    tag_32:\n        /* \"#utility.yul\":2034:2055   */\n      tag_60\n        /* \"#utility.yul\":2049:2054   */\n      dup2\n        /* \"#utility.yul\":2034:2055   */\n      tag_31\n      jump\t// in\n    tag_60:\n        /* \"#utility.yul\":2029:2032   */\n      dup3\n        /* \"#utility.yul\":2022:2056   */\n      mstore\n        /* \"#utility.yul\":1953:2062   */\n      pop\n      pop\n      jump\t// out\n        /* \"#utility.yul\":2068:2278   */\n    tag_16:\n        /* \"#utility.yul\":2155:2159   */\n      0x00\n        /* \"#utility.yul\":2193:2195   */\n      0x20\n        /* \"#utility.yul\":2182:2191   */\n      dup3\n        /* \"#utility.yul\":2178:2196   */\n      add\n        /* \"#utility.yul\":2170:2196   */\n      swap1\n      pop\n        /* \"#utility.yul\":2206:2271   */\n      tag_62\n        /* \"#utility.yul\":2268:2269   */\n      0x00\n        /* \"#utility.yul\":2257:2266   */\n      dup4\n        /* \"#utility.yul\":2253:2270   */\n      add\n        /* \"#utility.yul\":2244:2250   */\n      dup5\n        /* \"#utility.yul\":2206:2271   */\n      tag_32\n      jump\t// in\n    tag_62:\n        /* \"#utility.yul\":2068:2278   */\n      swap3\n      swap2\n      pop\n      pop\n      jump\t// out\n        /* \"#utility.yul\":2284:2464   */\n    tag_33:\n        /* \"#utility.yul\":2332:2409   */\n      0x4e487b7100000000000000000000000000000000000000000000000000000000\n        /* \"#utility.yul\":2329:2330   */\n      0x00\n        /* \"#utility.yul\":2322:2410   */\n      mstore\n        /* \"#utility.yul\":2429:2433   */\n      0x11\n        /* \"#utility.yul\":2426:2427   */\n      0x04\n        /* \"#utility.yul\":2419:2434   */\n      mstore\n        /* \"#utility.yul\":2453:2457   */\n      0x24\n        /* \"#utility.yul\":2450:2451   */\n      0x00\n        /* \"#utility.yul\":2443:2458   */\n      revert\n        /* \"#utility.yul\":2470:2880   */\n    tag_19:\n        /* \"#utility.yul\":2510:2517   */\n      0x00\n        /* \"#utility.yul\":2533:2553   */\n      tag_65\n        /* \"#utility.yul\":2551:2552   */\n      dup3\n        /* \"#utility.yul\":2533:2553   */\n      tag_27\n      jump\t// in\n    tag_65:\n        /* \"#utility.yul\":2528:2553   */\n      swap2\n      pop\n        /* \"#utility.yul\":2567:2587   */\n      tag_66\n        /* \"#utility.yul\":2585:2586   */\n      dup4\n        /* \"#utility.yul\":2567:2587   */\n      tag_27\n      jump\t// in\n    tag_66:\n        /* \"#utility.yul\":2562:2587   */\n      swap3\n      pop\n        /* \"#utility.yul\":2622:2623   */\n      dup3\n        /* \"#utility.yul\":2619:2620   */\n      dup3\n        /* \"#utility.yul\":2615:2624   */\n      mul\n        /* \"#utility.yul\":2644:2674   */\n      tag_67\n        /* \"#utility.yul\":2662:2673   */\n      dup2\n        /* \"#utility.yul\":2644:2674   */\n      tag_27\n      jump\t// in\n    tag_67:\n        /* \"#utility.yul\":2633:2674   */\n      swap2\n      pop\n        /* \"#utility.yul\":2823:2824   */\n      dup3\n        /* \"#utility.yul\":2814:2821   */\n      dup3\n        /* \"#utility.yul\":2810:2825   */\n      div\n        /* \"#utility.yul\":2807:2808   */\n      dup5\n        /* \"#utility.yul\":2804:2826   */\n      eq\n        /* \"#utility.yul\":2784:2785   */\n      dup4\n        /* \"#utility.yul\":2777:2786   */\n      iszero\n        /* \"#utility.yul\":2757:2840   */\n      or\n        /* \"#utility.yul\":2734:2873   */\n      tag_68\n      jumpi\n        /* \"#utility.yul\":2853:2871   */\n      tag_69\n      tag_33\n      jump\t// in\n    tag_69:\n        /* \"#utility.yul\":2734:2873   */\n    tag_68:\n        /* \"#utility.yul\":2518:2880   */\n      pop\n        /* \"#utility.yul\":2470:2880   */\n      swap3\n      swap2\n      pop\n      pop\n      jump\t// out\n        /* \"#utility.yul\":2886:3066   */\n    tag_34:\n        /* \"#utility.yul\":2934:3011   */\n      0x4e487b7100000000000000000000000000000000000000000000000000000000\n        /* \"#utility.yul\":2931:2932   */\n      0x00\n        /* \"#utility.yul\":2924:3012   */\n      mstore\n        /* \"#utility.yul\":3031:3035   */\n      0x12\n        /* \"#utility.yul\":3028:3029   */\n      0x04\n        /* \"#utility.yul\":3021:3036   */\n      mstore\n        /* \"#utility.yul\":3055:3059   */\n      0x24\n        /* \"#utility.yul\":3052:3053   */\n      0x00\n        /* \"#utility.yul\":3045:3060   */\n      revert\n        /* \"#utility.yul\":3072:3248   */\n    tag_22:\n        /* \"#utility.yul\":3104:3105   */\n      0x00\n        /* \"#utility.yul\":3121:3141   */\n      tag_72\n        /* \"#utility.yul\":3139:3140   */\n      dup3\n        /* \"#utility.yul\":3121:3141   */\n      tag_27\n      jump\t// in\n    tag_72:\n        /* \"#utility.yul\":3116:3141   */\n      swap2\n      pop\n        /* \"#utility.yul\":3155:3175   */\n      tag_73\n        /* \"#utility.yul\":3173:3174   */\n      dup4\n        /* \"#utility.yul\":3155:3175   */\n      tag_27\n      jump\t// in\n    tag_73:\n        /* \"#utility.yul\":3150:3175   */\n      swap3\n      pop\n        /* \"#utility.yul\":3194:3195   */\n      dup3\n        /* \"#utility.yul\":3184:3219   */\n      tag_74\n      jumpi\n        /* \"#utility.yul\":3199:3217   */\n      tag_75\n      tag_34\n      jump\t// in\n    tag_75:\n        /* \"#utility.yul\":3184:3219   */\n    tag_74:\n        /* \"#utility.yul\":3240:3241   */\n      dup3\n        /* \"#utility.yul\":3237:3238   */\n      dup3\n        /* \"#utility.yul\":3233:3242   */\n      mod\n        /* \"#utility.yul\":3228:3242   */\n      swap1\n      pop\n        /* \"#utility.yul\":3072:3248   */\n      swap3\n      swap2\n      pop\n      pop\n      jump\t// out\n\n    auxdata: 0xa2646970667358221220f0d5cbd56aa2c77cc644411b351f109655ac78e7b020282f85ab0f858956fef764736f6c63430008130033\n}\n",
				"bytecode": {
					"linkReferences": {},
					"object": "608060405234801561001057600080fd5b506102e3806100206000396000f3fe608060405234801561001057600080fd5b50600436106100365760003560e01c8063165c4a161461003b578063f28fe09d1461006b575b600080fd5b6100556004803603810190610050919061010f565b61009b565b604051610062919061015e565b60405180910390f35b61008560048036038101906100809190610179565b6100b1565b60405161009291906101c1565b60405180910390f35b600081836100a9919061020b565b905092915050565b6000806002836100c1919061027c565b146100cb57600080fd5b60019050919050565b600080fd5b6000819050919050565b6100ec816100d9565b81146100f757600080fd5b50565b600081359050610109816100e3565b92915050565b60008060408385031215610126576101256100d4565b5b6000610134858286016100fa565b9250506020610145858286016100fa565b9150509250929050565b610158816100d9565b82525050565b6000602082019050610173600083018461014f565b92915050565b60006020828403121561018f5761018e6100d4565b5b600061019d848285016100fa565b91505092915050565b60008115159050919050565b6101bb816101a6565b82525050565b60006020820190506101d660008301846101b2565b92915050565b7f4e487b7100000000000000000000000000000000000000000000000000000000600052601160045260246000fd5b6000610216826100d9565b9150610221836100d9565b925082820261022f816100d9565b91508282048414831517610246576102456101dc565b5b5092915050565b7f4e487b7100000000000000000000000000000000000000000000000000000000600052601260045260246000fd5b6000610287826100d9565b9150610292836100d9565b9250826102a2576102a161024d565b5b82820690509291505056fea2646970667358221220f0d5cbd56aa2c77cc644411b351f109655ac78e7b020282f85ab0f858956fef764736f6c63430008130033",
					"opcodes": "PUSH1 0x80 PUSH1 0x40 MSTORE CALLVALUE DUP1 ISZERO PUSH2 0x10 JUMPI PUSH1 0x0 DUP1 REVERT JUMPDEST POP PUSH2 0x2E3 DUP1 PUSH2 0x20 PUSH1 0x0 CODECOPY PUSH1 0x0 RETURN INVALID PUSH1 0x80 PUSH1 0x40 MSTORE CALLVALUE DUP1 ISZERO PUSH2 0x10 JUMPI PUSH1 0x0 DUP1 REVERT JUMPDEST POP PUSH1 0x4 CALLDATASIZE LT PUSH2 0x36 JUMPI PUSH1 0x0 CALLDATALOAD PUSH1 0xE0 SHR DUP1 PUSH4 0x165C4A16 EQ PUSH2 0x3B JUMPI DUP1 PUSH4 0xF28FE09D EQ PUSH2 0x6B JUMPI JUMPDEST PUSH1 0x0 DUP1 REVERT JUMPDEST PUSH2 0x55 PUSH1 0x4 DUP1 CALLDATASIZE SUB DUP2 ADD SWAP1 PUSH2 0x50 SWAP2 SWAP1 PUSH2 0x10F JUMP JUMPDEST PUSH2 0x9B JUMP JUMPDEST PUSH1 0x40 MLOAD PUSH2 0x62 SWAP2 SWAP1 PUSH2 0x15E JUMP JUMPDEST PUSH1 0x40 MLOAD DUP1 SWAP2 SUB SWAP1 RETURN JUMPDEST PUSH2 0x85 PUSH1 0x4 DUP1 CALLDATASIZE SUB DUP2 ADD SWAP1 PUSH2 0x80 SWAP2 SWAP1 PUSH2 0x179 JUMP JUMPDEST PUSH2 0xB1 JUMP JUMPDEST PUSH1 0x40 MLOAD PUSH2 0x92 SWAP2 SWAP1 PUSH2 0x1C1 JUMP JUMPDEST PUSH1 0x40 MLOAD DUP1 SWAP2 SUB SWAP1 RETURN JUMPDEST PUSH1 0x0 DUP2 DUP4 PUSH2 0xA9 SWAP2 SWAP1 PUSH2 0x20B JUMP JUMPDEST SWAP1 POP SWAP3 SWAP2 POP POP JUMP JUMPDEST PUSH1 0x0 DUP1 PUSH1 0x2 DUP4 PUSH2 0xC1 SWAP2 SWAP1 PUSH2 0x27C JUMP JUMPDEST EQ PUSH2 0xCB JUMPI PUSH1 0x0 DUP1 REVERT JUMPDEST PUSH1 0x1 SWAP1 POP SWAP2 SWAP1 POP JUMP JUMPDEST PUSH1 0x0 DUP1 REVERT JUMPDEST PUSH1 0x0 DUP2 SWAP1 POP SWAP2 SWAP1 POP JUMP JUMPDEST PUSH2 0xEC DUP2 PUSH2 0xD9 JUMP JUMPDEST DUP2 EQ PUSH2 0xF7 JUMPI PUSH1 0x0 DUP1 REVERT JUMPDEST POP JUMP JUMPDEST PUSH1 0x0 DUP2 CALLDATALOAD SWAP1 POP PUSH2 0x109 DUP2 PUSH2 0xE3 JUMP JUMPDEST SWAP3 SWAP2 POP POP JUMP JUMPDEST PUSH1 0x0 DUP1 PUSH1 0x40 DUP4 DUP6 SUB SLT ISZERO PUSH2 0x126 JUMPI PUSH2 0x125 PUSH2 0xD4 JUMP JUMPDEST JUMPDEST PUSH1 0x0 PUSH2 0x134 DUP6 DUP3 DUP7 ADD PUSH2 0xFA JUMP JUMPDEST SWAP3 POP POP PUSH1 0x20 PUSH2 0x145 DUP6 DUP3 DUP7 ADD PUSH2 0xFA JUMP JUMPDEST SWAP2 POP POP SWAP3 POP SWAP3 SWAP1 POP JUMP JUMPDEST PUSH2 0x158 DUP2 PUSH2 0xD9 JUMP JUMPDEST DUP3 MSTORE POP POP JUMP JUMPDEST PUSH1 0x0 PUSH1 0x20 DUP3 ADD SWAP1 POP PUSH2 0x173 PUSH1 0x0 DUP4 ADD DUP5 PUSH2 0x14F JUMP JUMPDEST SWAP3 SWAP2 POP POP JUMP JUMPDEST PUSH1 0x0 PUSH1 0x20 DUP3 DUP5 SUB SLT ISZERO PUSH2 0x18F JUMPI PUSH2 0x18E PUSH2 0xD4 JUMP JUMPDEST JUMPDEST PUSH1 0x0 PUSH2 0x19D DUP5 DUP3 DUP6 ADD PUSH2 0xFA JUMP JUMPDEST SWAP2 POP POP SWAP3 SWAP2 POP POP JUMP JUMPDEST PUSH1 0x0 DUP2 ISZERO ISZERO SWAP1 POP SWAP2 SWAP1 POP JUMP JUMPDEST PUSH2 0x1BB DUP2 PUSH2 0x1A6 JUMP JUMPDEST DUP3 MSTORE POP POP JUMP JUMPDEST PUSH1 0x0 PUSH1 0x20 DUP3 ADD SWAP1 POP PUSH2 0x1D6 PUSH1 0x0 DUP4 ADD DUP5 PUSH2 0x1B2 JUMP JUMPDEST SWAP3 SWAP2 POP POP JUMP JUMPDEST PUSH32 0x4E487B7100000000000000000000000000000000000000000000000000000000 PUSH1 0x0 MSTORE PUSH1 0x11 PUSH1 0x4 MSTORE PUSH1 0x24 PUSH1 0x0 REVERT JUMPDEST PUSH1 0x0 PUSH2 0x216 DUP3 PUSH2 0xD9 JUMP JUMPDEST SWAP2 POP PUSH2 0x221 DUP4 PUSH2 0xD9 JUMP JUMPDEST SWAP3 POP DUP3 DUP3 MUL PUSH2 0x22F DUP2 PUSH2 0xD9 JUMP JUMPDEST SWAP2 POP DUP3 DUP3 DIV DUP5 EQ DUP4 ISZERO OR PUSH2 0x246 JUMPI PUSH2 0x245 PUSH2 0x1DC JUMP JUMPDEST JUMPDEST POP SWAP3 SWAP2 POP POP JUMP JUMPDEST PUSH32 0x4E487B7100000000000000000000000000000000000000000000000000000000 PUSH1 0x0 MSTORE PUSH1 0x12 PUSH1 0x4 MSTORE PUSH1 0x24 PUSH1 0x0 REVERT JUMPDEST PUSH1 0x0 PUSH2 0x287 DUP3 PUSH2 0xD9 JUMP JUMPDEST SWAP2 POP PUSH2 0x292 DUP4 PUSH2 0xD9 JUMP JUMPDEST SWAP3 POP DUP3 PUSH2 0x2A2 JUMPI PUSH2 0x2A1 PUSH2 0x24D JUMP JUMPDEST JUMPDEST DUP3 DUP3 MOD SWAP1 POP SWAP3 SWAP2 POP POP JUMP INVALID LOG2 PUSH5 0x6970667358 0x22 SLT KECCAK256 CREATE 0xD5 0xCB 0xD5 PUSH11 0xA2C77CC644411B351F1096 SSTORE 0xAC PUSH25 0xE7B020282F85AB0F858956FEF764736F6C6343000813003300 "
				},
				"gasEstimates": {
					"creation": {
						"codeDepositCost": "147800",
						"executionCost": "196",
						"totalCost": "147996"
					},
					"external": {
						"leteven(uint256)": "infinite",
						"multiply(uint256,uint256)": "infinite"
					}
				},
				"methodIdentifiers": {
					"leteven(uint256)": "f28fe09d",
					"multiply(uint256,uint256)": "165c4a16"
				}
			},
			"storageLayout": {
				"storage": [],
				"types": null
			},
			"userdoc": {
				"kind": "user",
				"methods": {},
				"version": 1
			}
		}
	}
}