{
	"tests/practice.sol": {
		"myfirstcontract": {
			"abi": [
				{
					"inputs": [],
					"name": "balance",
					"outputs": [
						{
							"internalType": "uint256",
							"name": "",
							"type": "uint256"
						}
					],
					"stateMutability": "view",
					"type": "function"
				},
				{
					"inputs": [
						{
							"internalType": "uint256",
							"name": "amount",
							"type": "uint256"
						}
					],
					"name": "checkvalue",
					"outputs": [
						{
							"internalType": "bool",
							"name": "",
							"type": "bool"
						}
					],
					"stateMutability": "view",
					"type": "function"
				},
				{
					"inputs": [
						{
							"internalType": "uint256",
							"name": "amount",
							"type": "uint256"
						}
					],
					"name": "deposit",
					"outputs": [],
					"stateMutability": "nonpayable",
					"type": "function"
				},
				{
					"inputs": [],
					"name": "getnameage",
					"outputs": [
						{
							"internalType": "string",
							"name": "",
							"type": "string"
						},
						{
							"internalType": "uint256",
							"name": "",
							"type": "uint256"
						}
					],
					"stateMutability": "view",
					"type": "function"
				},
				{
					"inputs": [],
					"name": "loan",
					"outputs": [
						{
							"internalType": "bool",
							"name": "",
							"type": "bool"
						}
					],
					"stateMutability": "view",
					"type": "function"
				},
				{
					"inputs": [
						{
							"internalType": "string",
							"name": "_name",
							"type": "string"
						},
						{
							"internalType": "uint256",
							"name": "_age",
							"type": "uint256"
						}
					],
					"name": "setnameage",
					"outputs": [],
					"stateMutability": "nonpayable",
					"type": "function"
				},
				{
					"inputs": [
						{
							"internalType": "uint256",
							"name": "amount",
							"type": "uint256"
						}
					],
					"name": "withdraw",
					"outputs": [],
					"stateMutability": "nonpayable",
					"type": "function"
				}
			],
			"devdoc": {
				"kind": "dev",
				"methods": {},
				"version": 1
			},
			"evm": {
				"assembly": "    /* \"tests/practice.sol\":1061:1411  contract myfirstcontract is bank{... */\n  mstore(0x40, 0x80)\n    /* \"tests/practice.sol\":1113:1115  10 */\n  0x0a\n    /* \"tests/practice.sol\":1100:1115  uint  bank = 10 */\n  0x02\n  sstore\n    /* \"tests/practice.sol\":1061:1411  contract myfirstcontract is bank{... */\n  callvalue\n  dup1\n  iszero\n  tag_1\n  jumpi\n  0x00\n  dup1\n  revert\ntag_1:\n  pop\n  dataSize(sub_0)\n  dup1\n  dataOffset(sub_0)\n  0x00\n  codecopy\n  0x00\n  return\nstop\n\nsub_0: assembly {\n        /* \"tests/practice.sol\":1061:1411  contract myfirstcontract is bank{... */\n      mstore(0x40, 0x80)\n      callvalue\n      dup1\n      iszero\n      tag_1\n      jumpi\n      0x00\n      dup1\n      revert\n    tag_1:\n      pop\n      jumpi(tag_2, lt(calldatasize, 0x04))\n      shr(0xe0, calldataload(0x00))\n      dup1\n      0x958159cc\n      gt\n      tag_10\n      jumpi\n      dup1\n      0x958159cc\n      eq\n      tag_6\n      jumpi\n      dup1\n      0xb69ef8a8\n      eq\n      tag_7\n      jumpi\n      dup1\n      0xb6b55f25\n      eq\n      tag_8\n      jumpi\n      dup1\n      0xd285b7b4\n      eq\n      tag_9\n      jumpi\n      jump(tag_2)\n    tag_10:\n      dup1\n      0x23f85971\n      eq\n      tag_3\n      jumpi\n      dup1\n      0x26a1f421\n      eq\n      tag_4\n      jumpi\n      dup1\n      0x2e1a7d4d\n      eq\n      tag_5\n      jumpi\n    tag_2:\n      0x00\n      dup1\n      revert\n        /* \"tests/practice.sol\":1173:1283  function setnameage(string memory _name, uint _age) public{... */\n    tag_3:\n      tag_11\n      0x04\n      dup1\n      calldatasize\n      sub\n      dup2\n      add\n      swap1\n      tag_12\n      swap2\n      swap1\n      tag_13\n      jump\t// in\n    tag_12:\n      tag_14\n      jump\t// in\n    tag_11:\n      stop\n        /* \"tests/practice.sol\":852:952  function checkvalue(uint amount) public view returns (bool){... */\n    tag_4:\n      tag_15\n      0x04\n      dup1\n      calldatasize\n      sub\n      dup2\n      add\n      swap1\n      tag_16\n      swap2\n      swap1\n      tag_17\n      jump\t// in\n    tag_16:\n      tag_18\n      jump\t// in\n    tag_15:\n      mload(0x40)\n      tag_19\n      swap2\n      swap1\n      tag_20\n      jump\t// in\n    tag_19:\n      mload(0x40)\n      dup1\n      swap2\n      sub\n      swap1\n      return\n        /* \"tests/practice.sol\":543:681  function withdraw(uint amount)  public ownerfuc{... */\n    tag_5:\n      tag_21\n      0x04\n      dup1\n      calldatasize\n      sub\n      dup2\n      add\n      swap1\n      tag_22\n      swap2\n      swap1\n      tag_17\n      jump\t// in\n    tag_22:\n      tag_23\n      jump\t// in\n    tag_21:\n      stop\n        /* \"tests/practice.sol\":1291:1394  function getnameage() public view returns (string memory, uint){... */\n    tag_6:\n      tag_24\n      tag_25\n      jump\t// in\n    tag_24:\n      mload(0x40)\n      tag_26\n      swap3\n      swap2\n      swap1\n      tag_27\n      jump\t// in\n    tag_26:\n      mload(0x40)\n      dup1\n      swap2\n      sub\n      swap1\n      return\n        /* \"tests/practice.sol\":769:844  function balance() public view returns(uint){... */\n    tag_7:\n      tag_28\n      tag_29\n      jump\t// in\n    tag_28:\n      mload(0x40)\n      tag_30\n      swap2\n      swap1\n      tag_31\n      jump\t// in\n    tag_30:\n      mload(0x40)\n      dup1\n      swap2\n      sub\n      swap1\n      return\n        /* \"tests/practice.sol\":689:761  function deposit(uint amount) public  {... */\n    tag_8:\n      tag_32\n      0x04\n      dup1\n      calldatasize\n      sub\n      dup2\n      add\n      swap1\n      tag_33\n      swap2\n      swap1\n      tag_17\n      jump\t// in\n    tag_33:\n      tag_34\n      jump\t// in\n    tag_32:\n      stop\n        /* \"tests/practice.sol\":963:1046  function loan() public view  returns (bool){... */\n    tag_9:\n      tag_35\n      tag_36\n      jump\t// in\n    tag_35:\n      mload(0x40)\n      tag_37\n      swap2\n      swap1\n      tag_20\n      jump\t// in\n    tag_37:\n      mload(0x40)\n      dup1\n      swap2\n      sub\n      swap1\n      return\n        /* \"tests/practice.sol\":1173:1283  function setnameage(string memory _name, uint _age) public{... */\n    tag_14:\n        /* \"tests/practice.sol\":1249:1254  _name */\n      dup2\n        /* \"tests/practice.sol\":1242:1246  name */\n      0x04\n        /* \"tests/practice.sol\":1242:1254  name = _name */\n      swap1\n      dup2\n      tag_39\n      swap2\n      swap1\n      tag_40\n      jump\t// in\n    tag_39:\n      pop\n        /* \"tests/practice.sol\":1271:1275  _age */\n      dup1\n        /* \"tests/practice.sol\":1265:1268  age */\n      0x03\n        /* \"tests/practice.sol\":1265:1275  age = _age */\n      dup2\n      swap1\n      sstore\n      pop\n        /* \"tests/practice.sol\":1173:1283  function setnameage(string memory _name, uint _age) public{... */\n      pop\n      pop\n      jump\t// out\n        /* \"tests/practice.sol\":852:952  function checkvalue(uint amount) public view returns (bool){... */\n    tag_18:\n        /* \"tests/practice.sol\":906:910  bool */\n      0x00\n        /* \"tests/practice.sol\":939:944  value */\n      dup1\n      sload\n        /* \"tests/practice.sol\":929:935  amount */\n      dup3\n        /* \"tests/practice.sol\":929:944  amount <= value */\n      gt\n      iszero\n        /* \"tests/practice.sol\":922:944  return amount <= value */\n      swap1\n      pop\n        /* \"tests/practice.sol\":852:952  function checkvalue(uint amount) public view returns (bool){... */\n      swap2\n      swap1\n      pop\n      jump\t// out\n        /* \"tests/practice.sol\":543:681  function withdraw(uint amount)  public ownerfuc{... */\n    tag_23:\n        /* \"tests/practice.sol\":502:512  msg.sender */\n      caller\n        /* \"tests/practice.sol\":493:512  owner == msg.sender */\n      0xffffffffffffffffffffffffffffffffffffffff\n      and\n        /* \"tests/practice.sol\":493:498  owner */\n      0x01\n      0x00\n      swap1\n      sload\n      swap1\n      0x0100\n      exp\n      swap1\n      div\n      0xffffffffffffffffffffffffffffffffffffffff\n      and\n        /* \"tests/practice.sol\":493:512  owner == msg.sender */\n      0xffffffffffffffffffffffffffffffffffffffff\n      and\n      eq\n        /* \"tests/practice.sol\":485:513  require(owner == msg.sender) */\n      tag_43\n      jumpi\n      0x00\n      dup1\n      revert\n    tag_43:\n        /* \"tests/practice.sol\":604:622  checkvalue(amount) */\n      tag_45\n        /* \"tests/practice.sol\":615:621  amount */\n      dup2\n        /* \"tests/practice.sol\":604:614  checkvalue */\n      tag_18\n        /* \"tests/practice.sol\":604:622  checkvalue(amount) */\n      jump\t// in\n    tag_45:\n        /* \"tests/practice.sol\":601:664  if(checkvalue(amount)){... */\n      iszero\n      tag_46\n      jumpi\n        /* \"tests/practice.sol\":646:652  amount */\n      dup1\n        /* \"tests/practice.sol\":638:643  value */\n      0x00\n      dup1\n        /* \"tests/practice.sol\":638:652  value -=amount */\n      dup3\n      dup3\n      sload\n      tag_47\n      swap2\n      swap1\n      tag_48\n      jump\t// in\n    tag_47:\n      swap3\n      pop\n      pop\n      dup2\n      swap1\n      sstore\n      pop\n        /* \"tests/practice.sol\":601:664  if(checkvalue(amount)){... */\n    tag_46:\n        /* \"tests/practice.sol\":543:681  function withdraw(uint amount)  public ownerfuc{... */\n      pop\n      jump\t// out\n        /* \"tests/practice.sol\":1291:1394  function getnameage() public view returns (string memory, uint){... */\n    tag_25:\n        /* \"tests/practice.sol\":1334:1347  string memory */\n      0x60\n        /* \"tests/practice.sol\":1349:1353  uint */\n      0x00\n        /* \"tests/practice.sol\":1374:1378  name */\n      0x04\n        /* \"tests/practice.sol\":1380:1383  age */\n      sload(0x03)\n        /* \"tests/practice.sol\":1367:1384  return(name, age) */\n      dup2\n      dup1\n      sload\n      tag_50\n      swap1\n      tag_51\n      jump\t// in\n    tag_50:\n      dup1\n      0x1f\n      add\n      0x20\n      dup1\n      swap2\n      div\n      mul\n      0x20\n      add\n      mload(0x40)\n      swap1\n      dup2\n      add\n      0x40\n      mstore\n      dup1\n      swap3\n      swap2\n      swap1\n      dup2\n      dup2\n      mstore\n      0x20\n      add\n      dup3\n      dup1\n      sload\n      tag_52\n      swap1\n      tag_51\n      jump\t// in\n    tag_52:\n      dup1\n      iszero\n      tag_53\n      jumpi\n      dup1\n      0x1f\n      lt\n      tag_54\n      jumpi\n      0x0100\n      dup1\n      dup4\n      sload\n      div\n      mul\n      dup4\n      mstore\n      swap2\n      0x20\n      add\n      swap2\n      jump(tag_53)\n    tag_54:\n      dup3\n      add\n      swap2\n      swap1\n      0x00\n      mstore\n      keccak256(0x00, 0x20)\n      swap1\n    tag_55:\n      dup2\n      sload\n      dup2\n      mstore\n      swap1\n      0x01\n      add\n      swap1\n      0x20\n      add\n      dup1\n      dup4\n      gt\n      tag_55\n      jumpi\n      dup3\n      swap1\n      sub\n      0x1f\n      and\n      dup3\n      add\n      swap2\n    tag_53:\n      pop\n      pop\n      pop\n      pop\n      pop\n      swap2\n      pop\n      swap2\n      pop\n      swap2\n      pop\n        /* \"tests/practice.sol\":1291:1394  function getnameage() public view returns (string memory, uint){... */\n      swap1\n      swap2\n      jump\t// out\n        /* \"tests/practice.sol\":769:844  function balance() public view returns(uint){... */\n    tag_29:\n        /* \"tests/practice.sol\":808:812  uint */\n      0x00\n        /* \"tests/practice.sol\":831:836  value */\n      dup1\n      sload\n        /* \"tests/practice.sol\":824:836  return value */\n      swap1\n      pop\n        /* \"tests/practice.sol\":769:844  function balance() public view returns(uint){... */\n      swap1\n      jump\t// out\n        /* \"tests/practice.sol\":689:761  function deposit(uint amount) public  {... */\n    tag_34:\n        /* \"tests/practice.sol\":747:753  amount */\n      dup1\n        /* \"tests/practice.sol\":738:743  value */\n      0x00\n      dup1\n        /* \"tests/practice.sol\":738:753  value += amount */\n      dup3\n      dup3\n      sload\n      tag_58\n      swap2\n      swap1\n      tag_59\n      jump\t// in\n    tag_58:\n      swap3\n      pop\n      pop\n      dup2\n      swap1\n      sstore\n      pop\n        /* \"tests/practice.sol\":689:761  function deposit(uint amount) public  {... */\n      pop\n      jump\t// out\n        /* \"tests/practice.sol\":963:1046  function loan() public view  returns (bool){... */\n    tag_36:\n        /* \"tests/practice.sol\":1001:1005  bool */\n      0x00\n        /* \"tests/practice.sol\":1032:1034  20 */\n      0x14\n        /* \"tests/practice.sol\":1024:1029  value */\n      sload(0x00)\n        /* \"tests/practice.sol\":1024:1034  value > 20 */\n      gt\n        /* \"tests/practice.sol\":1017:1034  return value > 20 */\n      swap1\n      pop\n        /* \"tests/practice.sol\":963:1046  function loan() public view  returns (bool){... */\n      swap1\n      jump\t// out\n        /* \"#utility.yul\":7:82   */\n    tag_61:\n        /* \"#utility.yul\":40:46   */\n      0x00\n        /* \"#utility.yul\":73:75   */\n      0x40\n        /* \"#utility.yul\":67:76   */\n      mload\n        /* \"#utility.yul\":57:76   */\n      swap1\n      pop\n        /* \"#utility.yul\":7:82   */\n      swap1\n      jump\t// out\n        /* \"#utility.yul\":88:205   */\n    tag_62:\n        /* \"#utility.yul\":197:198   */\n      0x00\n        /* \"#utility.yul\":194:195   */\n      dup1\n        /* \"#utility.yul\":187:199   */\n      revert\n        /* \"#utility.yul\":211:328   */\n    tag_63:\n        /* \"#utility.yul\":320:321   */\n      0x00\n        /* \"#utility.yul\":317:318   */\n      dup1\n        /* \"#utility.yul\":310:322   */\n      revert\n        /* \"#utility.yul\":334:451   */\n    tag_64:\n        /* \"#utility.yul\":443:444   */\n      0x00\n        /* \"#utility.yul\":440:441   */\n      dup1\n        /* \"#utility.yul\":433:445   */\n      revert\n        /* \"#utility.yul\":457:574   */\n    tag_65:\n        /* \"#utility.yul\":566:567   */\n      0x00\n        /* \"#utility.yul\":563:564   */\n      dup1\n        /* \"#utility.yul\":556:568   */\n      revert\n        /* \"#utility.yul\":580:682   */\n    tag_66:\n        /* \"#utility.yul\":621:627   */\n      0x00\n        /* \"#utility.yul\":672:674   */\n      0x1f\n        /* \"#utility.yul\":668:675   */\n      not\n        /* \"#utility.yul\":663:665   */\n      0x1f\n        /* \"#utility.yul\":656:661   */\n      dup4\n        /* \"#utility.yul\":652:666   */\n      add\n        /* \"#utility.yul\":648:676   */\n      and\n        /* \"#utility.yul\":638:676   */\n      swap1\n      pop\n        /* \"#utility.yul\":580:682   */\n      swap2\n      swap1\n      pop\n      jump\t// out\n        /* \"#utility.yul\":688:868   */\n    tag_67:\n        /* \"#utility.yul\":736:813   */\n      0x4e487b7100000000000000000000000000000000000000000000000000000000\n        /* \"#utility.yul\":733:734   */\n      0x00\n        /* \"#utility.yul\":726:814   */\n      mstore\n        /* \"#utility.yul\":833:837   */\n      0x41\n        /* \"#utility.yul\":830:831   */\n      0x04\n        /* \"#utility.yul\":823:838   */\n      mstore\n        /* \"#utility.yul\":857:861   */\n      0x24\n        /* \"#utility.yul\":854:855   */\n      0x00\n        /* \"#utility.yul\":847:862   */\n      revert\n        /* \"#utility.yul\":874:1155   */\n    tag_68:\n        /* \"#utility.yul\":957:984   */\n      tag_110\n        /* \"#utility.yul\":979:983   */\n      dup3\n        /* \"#utility.yul\":957:984   */\n      tag_66\n      jump\t// in\n    tag_110:\n        /* \"#utility.yul\":949:955   */\n      dup2\n        /* \"#utility.yul\":945:985   */\n      add\n        /* \"#utility.yul\":1087:1093   */\n      dup2\n        /* \"#utility.yul\":1075:1085   */\n      dup2\n        /* \"#utility.yul\":1072:1094   */\n      lt\n        /* \"#utility.yul\":1051:1069   */\n      0xffffffffffffffff\n        /* \"#utility.yul\":1039:1049   */\n      dup3\n        /* \"#utility.yul\":1036:1070   */\n      gt\n        /* \"#utility.yul\":1033:1095   */\n      or\n        /* \"#utility.yul\":1030:1118   */\n      iszero\n      tag_111\n      jumpi\n        /* \"#utility.yul\":1098:1116   */\n      tag_112\n      tag_67\n      jump\t// in\n    tag_112:\n        /* \"#utility.yul\":1030:1118   */\n    tag_111:\n        /* \"#utility.yul\":1138:1148   */\n      dup1\n        /* \"#utility.yul\":1134:1136   */\n      0x40\n        /* \"#utility.yul\":1127:1149   */\n      mstore\n        /* \"#utility.yul\":917:1155   */\n      pop\n        /* \"#utility.yul\":874:1155   */\n      pop\n      pop\n      jump\t// out\n        /* \"#utility.yul\":1161:1290   */\n    tag_69:\n        /* \"#utility.yul\":1195:1201   */\n      0x00\n        /* \"#utility.yul\":1222:1242   */\n      tag_114\n      tag_61\n      jump\t// in\n    tag_114:\n        /* \"#utility.yul\":1212:1242   */\n      swap1\n      pop\n        /* \"#utility.yul\":1251:1284   */\n      tag_115\n        /* \"#utility.yul\":1279:1283   */\n      dup3\n        /* \"#utility.yul\":1271:1277   */\n      dup3\n        /* \"#utility.yul\":1251:1284   */\n      tag_68\n      jump\t// in\n    tag_115:\n        /* \"#utility.yul\":1161:1290   */\n      swap2\n      swap1\n      pop\n      jump\t// out\n        /* \"#utility.yul\":1296:1604   */\n    tag_70:\n        /* \"#utility.yul\":1358:1362   */\n      0x00\n        /* \"#utility.yul\":1448:1466   */\n      0xffffffffffffffff\n        /* \"#utility.yul\":1440:1446   */\n      dup3\n        /* \"#utility.yul\":1437:1467   */\n      gt\n        /* \"#utility.yul\":1434:1490   */\n      iszero\n      tag_117\n      jumpi\n        /* \"#utility.yul\":1470:1488   */\n      tag_118\n      tag_67\n      jump\t// in\n    tag_118:\n        /* \"#utility.yul\":1434:1490   */\n    tag_117:\n        /* \"#utility.yul\":1508:1537   */\n      tag_119\n        /* \"#utility.yul\":1530:1536   */\n      dup3\n        /* \"#utility.yul\":1508:1537   */\n      tag_66\n      jump\t// in\n    tag_119:\n        /* \"#utility.yul\":1500:1537   */\n      swap1\n      pop\n        /* \"#utility.yul\":1592:1596   */\n      0x20\n        /* \"#utility.yul\":1586:1590   */\n      dup2\n        /* \"#utility.yul\":1582:1597   */\n      add\n        /* \"#utility.yul\":1574:1597   */\n      swap1\n      pop\n        /* \"#utility.yul\":1296:1604   */\n      swap2\n      swap1\n      pop\n      jump\t// out\n        /* \"#utility.yul\":1610:1756   */\n    tag_71:\n        /* \"#utility.yul\":1707:1713   */\n      dup3\n        /* \"#utility.yul\":1702:1705   */\n      dup2\n        /* \"#utility.yul\":1697:1700   */\n      dup4\n        /* \"#utility.yul\":1684:1714   */\n      calldatacopy\n        /* \"#utility.yul\":1748:1749   */\n      0x00\n        /* \"#utility.yul\":1739:1745   */\n      dup4\n        /* \"#utility.yul\":1734:1737   */\n      dup4\n        /* \"#utility.yul\":1730:1746   */\n      add\n        /* \"#utility.yul\":1723:1750   */\n      mstore\n        /* \"#utility.yul\":1610:1756   */\n      pop\n      pop\n      pop\n      jump\t// out\n        /* \"#utility.yul\":1762:2187   */\n    tag_72:\n        /* \"#utility.yul\":1840:1845   */\n      0x00\n        /* \"#utility.yul\":1865:1931   */\n      tag_122\n        /* \"#utility.yul\":1881:1930   */\n      tag_123\n        /* \"#utility.yul\":1923:1929   */\n      dup5\n        /* \"#utility.yul\":1881:1930   */\n      tag_70\n      jump\t// in\n    tag_123:\n        /* \"#utility.yul\":1865:1931   */\n      tag_69\n      jump\t// in\n    tag_122:\n        /* \"#utility.yul\":1856:1931   */\n      swap1\n      pop\n        /* \"#utility.yul\":1954:1960   */\n      dup3\n        /* \"#utility.yul\":1947:1952   */\n      dup2\n        /* \"#utility.yul\":1940:1961   */\n      mstore\n        /* \"#utility.yul\":1992:1996   */\n      0x20\n        /* \"#utility.yul\":1985:1990   */\n      dup2\n        /* \"#utility.yul\":1981:1997   */\n      add\n        /* \"#utility.yul\":2030:2033   */\n      dup5\n        /* \"#utility.yul\":2021:2027   */\n      dup5\n        /* \"#utility.yul\":2016:2019   */\n      dup5\n        /* \"#utility.yul\":2012:2028   */\n      add\n        /* \"#utility.yul\":2009:2034   */\n      gt\n        /* \"#utility.yul\":2006:2118   */\n      iszero\n      tag_124\n      jumpi\n        /* \"#utility.yul\":2037:2116   */\n      tag_125\n      tag_65\n      jump\t// in\n    tag_125:\n        /* \"#utility.yul\":2006:2118   */\n    tag_124:\n        /* \"#utility.yul\":2127:2181   */\n      tag_126\n        /* \"#utility.yul\":2174:2180   */\n      dup5\n        /* \"#utility.yul\":2169:2172   */\n      dup3\n        /* \"#utility.yul\":2164:2167   */\n      dup6\n        /* \"#utility.yul\":2127:2181   */\n      tag_71\n      jump\t// in\n    tag_126:\n        /* \"#utility.yul\":1846:2187   */\n      pop\n        /* \"#utility.yul\":1762:2187   */\n      swap4\n      swap3\n      pop\n      pop\n      pop\n      jump\t// out\n        /* \"#utility.yul\":2207:2547   */\n    tag_73:\n        /* \"#utility.yul\":2263:2268   */\n      0x00\n        /* \"#utility.yul\":2312:2315   */\n      dup3\n        /* \"#utility.yul\":2305:2309   */\n      0x1f\n        /* \"#utility.yul\":2297:2303   */\n      dup4\n        /* \"#utility.yul\":2293:2310   */\n      add\n        /* \"#utility.yul\":2289:2316   */\n      slt\n        /* \"#utility.yul\":2279:2401   */\n      tag_128\n      jumpi\n        /* \"#utility.yul\":2320:2399   */\n      tag_129\n      tag_64\n      jump\t// in\n    tag_129:\n        /* \"#utility.yul\":2279:2401   */\n    tag_128:\n        /* \"#utility.yul\":2437:2443   */\n      dup2\n        /* \"#utility.yul\":2424:2444   */\n      calldataload\n        /* \"#utility.yul\":2462:2541   */\n      tag_130\n        /* \"#utility.yul\":2537:2540   */\n      dup5\n        /* \"#utility.yul\":2529:2535   */\n      dup3\n        /* \"#utility.yul\":2522:2526   */\n      0x20\n        /* \"#utility.yul\":2514:2520   */\n      dup7\n        /* \"#utility.yul\":2510:2527   */\n      add\n        /* \"#utility.yul\":2462:2541   */\n      tag_72\n      jump\t// in\n    tag_130:\n        /* \"#utility.yul\":2453:2541   */\n      swap2\n      pop\n        /* \"#utility.yul\":2269:2547   */\n      pop\n        /* \"#utility.yul\":2207:2547   */\n      swap3\n      swap2\n      pop\n      pop\n      jump\t// out\n        /* \"#utility.yul\":2553:2630   */\n    tag_74:\n        /* \"#utility.yul\":2590:2597   */\n      0x00\n        /* \"#utility.yul\":2619:2624   */\n      dup2\n        /* \"#utility.yul\":2608:2624   */\n      swap1\n      pop\n        /* \"#utility.yul\":2553:2630   */\n      swap2\n      swap1\n      pop\n      jump\t// out\n        /* \"#utility.yul\":2636:2758   */\n    tag_75:\n        /* \"#utility.yul\":2709:2733   */\n      tag_133\n        /* \"#utility.yul\":2727:2732   */\n      dup2\n        /* \"#utility.yul\":2709:2733   */\n      tag_74\n      jump\t// in\n    tag_133:\n        /* \"#utility.yul\":2702:2707   */\n      dup2\n        /* \"#utility.yul\":2699:2734   */\n      eq\n        /* \"#utility.yul\":2689:2752   */\n      tag_134\n      jumpi\n        /* \"#utility.yul\":2748:2749   */\n      0x00\n        /* \"#utility.yul\":2745:2746   */\n      dup1\n        /* \"#utility.yul\":2738:2750   */\n      revert\n        /* \"#utility.yul\":2689:2752   */\n    tag_134:\n        /* \"#utility.yul\":2636:2758   */\n      pop\n      jump\t// out\n        /* \"#utility.yul\":2764:2903   */\n    tag_76:\n        /* \"#utility.yul\":2810:2815   */\n      0x00\n        /* \"#utility.yul\":2848:2854   */\n      dup2\n        /* \"#utility.yul\":2835:2855   */\n      calldataload\n        /* \"#utility.yul\":2826:2855   */\n      swap1\n      pop\n        /* \"#utility.yul\":2864:2897   */\n      tag_136\n        /* \"#utility.yul\":2891:2896   */\n      dup2\n        /* \"#utility.yul\":2864:2897   */\n      tag_75\n      jump\t// in\n    tag_136:\n        /* \"#utility.yul\":2764:2903   */\n      swap3\n      swap2\n      pop\n      pop\n      jump\t// out\n        /* \"#utility.yul\":2909:3563   */\n    tag_13:\n        /* \"#utility.yul\":2987:2993   */\n      0x00\n        /* \"#utility.yul\":2995:3001   */\n      dup1\n        /* \"#utility.yul\":3044:3046   */\n      0x40\n        /* \"#utility.yul\":3032:3041   */\n      dup4\n        /* \"#utility.yul\":3023:3030   */\n      dup6\n        /* \"#utility.yul\":3019:3042   */\n      sub\n        /* \"#utility.yul\":3015:3047   */\n      slt\n        /* \"#utility.yul\":3012:3131   */\n      iszero\n      tag_138\n      jumpi\n        /* \"#utility.yul\":3050:3129   */\n      tag_139\n      tag_62\n      jump\t// in\n    tag_139:\n        /* \"#utility.yul\":3012:3131   */\n    tag_138:\n        /* \"#utility.yul\":3198:3199   */\n      0x00\n        /* \"#utility.yul\":3187:3196   */\n      dup4\n        /* \"#utility.yul\":3183:3200   */\n      add\n        /* \"#utility.yul\":3170:3201   */\n      calldataload\n        /* \"#utility.yul\":3228:3246   */\n      0xffffffffffffffff\n        /* \"#utility.yul\":3220:3226   */\n      dup2\n        /* \"#utility.yul\":3217:3247   */\n      gt\n        /* \"#utility.yul\":3214:3331   */\n      iszero\n      tag_140\n      jumpi\n        /* \"#utility.yul\":3250:3329   */\n      tag_141\n      tag_63\n      jump\t// in\n    tag_141:\n        /* \"#utility.yul\":3214:3331   */\n    tag_140:\n        /* \"#utility.yul\":3355:3418   */\n      tag_142\n        /* \"#utility.yul\":3410:3417   */\n      dup6\n        /* \"#utility.yul\":3401:3407   */\n      dup3\n        /* \"#utility.yul\":3390:3399   */\n      dup7\n        /* \"#utility.yul\":3386:3408   */\n      add\n        /* \"#utility.yul\":3355:3418   */\n      tag_73\n      jump\t// in\n    tag_142:\n        /* \"#utility.yul\":3345:3418   */\n      swap3\n      pop\n        /* \"#utility.yul\":3141:3428   */\n      pop\n        /* \"#utility.yul\":3467:3469   */\n      0x20\n        /* \"#utility.yul\":3493:3546   */\n      tag_143\n        /* \"#utility.yul\":3538:3545   */\n      dup6\n        /* \"#utility.yul\":3529:3535   */\n      dup3\n        /* \"#utility.yul\":3518:3527   */\n      dup7\n        /* \"#utility.yul\":3514:3536   */\n      add\n        /* \"#utility.yul\":3493:3546   */\n      tag_76\n      jump\t// in\n    tag_143:\n        /* \"#utility.yul\":3483:3546   */\n      swap2\n      pop\n        /* \"#utility.yul\":3438:3556   */\n      pop\n        /* \"#utility.yul\":2909:3563   */\n      swap3\n      pop\n      swap3\n      swap1\n      pop\n      jump\t// out\n        /* \"#utility.yul\":3569:3898   */\n    tag_17:\n        /* \"#utility.yul\":3628:3634   */\n      0x00\n        /* \"#utility.yul\":3677:3679   */\n      0x20\n        /* \"#utility.yul\":3665:3674   */\n      dup3\n        /* \"#utility.yul\":3656:3663   */\n      dup5\n        /* \"#utility.yul\":3652:3675   */\n      sub\n        /* \"#utility.yul\":3648:3680   */\n      slt\n        /* \"#utility.yul\":3645:3764   */\n      iszero\n      tag_145\n      jumpi\n        /* \"#utility.yul\":3683:3762   */\n      tag_146\n      tag_62\n      jump\t// in\n    tag_146:\n        /* \"#utility.yul\":3645:3764   */\n    tag_145:\n        /* \"#utility.yul\":3803:3804   */\n      0x00\n        /* \"#utility.yul\":3828:3881   */\n      tag_147\n        /* \"#utility.yul\":3873:3880   */\n      dup5\n        /* \"#utility.yul\":3864:3870   */\n      dup3\n        /* \"#utility.yul\":3853:3862   */\n      dup6\n        /* \"#utility.yul\":3849:3871   */\n      add\n        /* \"#utility.yul\":3828:3881   */\n      tag_76\n      jump\t// in\n    tag_147:\n        /* \"#utility.yul\":3818:3881   */\n      swap2\n      pop\n        /* \"#utility.yul\":3774:3891   */\n      pop\n        /* \"#utility.yul\":3569:3898   */\n      swap3\n      swap2\n      pop\n      pop\n      jump\t// out\n        /* \"#utility.yul\":3904:3994   */\n    tag_77:\n        /* \"#utility.yul\":3938:3945   */\n      0x00\n        /* \"#utility.yul\":3981:3986   */\n      dup2\n        /* \"#utility.yul\":3974:3987   */\n      iszero\n        /* \"#utility.yul\":3967:3988   */\n      iszero\n        /* \"#utility.yul\":3956:3988   */\n      swap1\n      pop\n        /* \"#utility.yul\":3904:3994   */\n      swap2\n      swap1\n      pop\n      jump\t// out\n        /* \"#utility.yul\":4000:4109   */\n    tag_78:\n        /* \"#utility.yul\":4081:4102   */\n      tag_150\n        /* \"#utility.yul\":4096:4101   */\n      dup2\n        /* \"#utility.yul\":4081:4102   */\n      tag_77\n      jump\t// in\n    tag_150:\n        /* \"#utility.yul\":4076:4079   */\n      dup3\n        /* \"#utility.yul\":4069:4103   */\n      mstore\n        /* \"#utility.yul\":4000:4109   */\n      pop\n      pop\n      jump\t// out\n        /* \"#utility.yul\":4115:4325   */\n    tag_20:\n        /* \"#utility.yul\":4202:4206   */\n      0x00\n        /* \"#utility.yul\":4240:4242   */\n      0x20\n        /* \"#utility.yul\":4229:4238   */\n      dup3\n        /* \"#utility.yul\":4225:4243   */\n      add\n        /* \"#utility.yul\":4217:4243   */\n      swap1\n      pop\n        /* \"#utility.yul\":4253:4318   */\n      tag_152\n        /* \"#utility.yul\":4315:4316   */\n      0x00\n        /* \"#utility.yul\":4304:4313   */\n      dup4\n        /* \"#utility.yul\":4300:4317   */\n      add\n        /* \"#utility.yul\":4291:4297   */\n      dup5\n        /* \"#utility.yul\":4253:4318   */\n      tag_78\n      jump\t// in\n    tag_152:\n        /* \"#utility.yul\":4115:4325   */\n      swap3\n      swap2\n      pop\n      pop\n      jump\t// out\n        /* \"#utility.yul\":4331:4430   */\n    tag_79:\n        /* \"#utility.yul\":4383:4389   */\n      0x00\n        /* \"#utility.yul\":4417:4422   */\n      dup2\n        /* \"#utility.yul\":4411:4423   */\n      mload\n        /* \"#utility.yul\":4401:4423   */\n      swap1\n      pop\n        /* \"#utility.yul\":4331:4430   */\n      swap2\n      swap1\n      pop\n      jump\t// out\n        /* \"#utility.yul\":4436:4605   */\n    tag_80:\n        /* \"#utility.yul\":4520:4531   */\n      0x00\n        /* \"#utility.yul\":4554:4560   */\n      dup3\n        /* \"#utility.yul\":4549:4552   */\n      dup3\n        /* \"#utility.yul\":4542:4561   */\n      mstore\n        /* \"#utility.yul\":4594:4598   */\n      0x20\n        /* \"#utility.yul\":4589:4592   */\n      dup3\n        /* \"#utility.yul\":4585:4599   */\n      add\n        /* \"#utility.yul\":4570:4599   */\n      swap1\n      pop\n        /* \"#utility.yul\":4436:4605   */\n      swap3\n      swap2\n      pop\n      pop\n      jump\t// out\n        /* \"#utility.yul\":4611:4857   */\n    tag_81:\n        /* \"#utility.yul\":4692:4693   */\n      0x00\n        /* \"#utility.yul\":4702:4815   */\n    tag_156:\n        /* \"#utility.yul\":4716:4722   */\n      dup4\n        /* \"#utility.yul\":4713:4714   */\n      dup2\n        /* \"#utility.yul\":4710:4723   */\n      lt\n        /* \"#utility.yul\":4702:4815   */\n      iszero\n      tag_158\n      jumpi\n        /* \"#utility.yul\":4801:4802   */\n      dup1\n        /* \"#utility.yul\":4796:4799   */\n      dup3\n        /* \"#utility.yul\":4792:4803   */\n      add\n        /* \"#utility.yul\":4786:4804   */\n      mload\n        /* \"#utility.yul\":4782:4783   */\n      dup2\n        /* \"#utility.yul\":4777:4780   */\n      dup5\n        /* \"#utility.yul\":4773:4784   */\n      add\n        /* \"#utility.yul\":4766:4805   */\n      mstore\n        /* \"#utility.yul\":4738:4740   */\n      0x20\n        /* \"#utility.yul\":4735:4736   */\n      dup2\n        /* \"#utility.yul\":4731:4741   */\n      add\n        /* \"#utility.yul\":4726:4741   */\n      swap1\n      pop\n        /* \"#utility.yul\":4702:4815   */\n      jump(tag_156)\n    tag_158:\n        /* \"#utility.yul\":4849:4850   */\n      0x00\n        /* \"#utility.yul\":4840:4846   */\n      dup5\n        /* \"#utility.yul\":4835:4838   */\n      dup5\n        /* \"#utility.yul\":4831:4847   */\n      add\n        /* \"#utility.yul\":4824:4851   */\n      mstore\n        /* \"#utility.yul\":4673:4857   */\n      pop\n        /* \"#utility.yul\":4611:4857   */\n      pop\n      pop\n      pop\n      jump\t// out\n        /* \"#utility.yul\":4863:5240   */\n    tag_82:\n        /* \"#utility.yul\":4951:4954   */\n      0x00\n        /* \"#utility.yul\":4979:5018   */\n      tag_160\n        /* \"#utility.yul\":5012:5017   */\n      dup3\n        /* \"#utility.yul\":4979:5018   */\n      tag_79\n      jump\t// in\n    tag_160:\n        /* \"#utility.yul\":5034:5105   */\n      tag_161\n        /* \"#utility.yul\":5098:5104   */\n      dup2\n        /* \"#utility.yul\":5093:5096   */\n      dup6\n        /* \"#utility.yul\":5034:5105   */\n      tag_80\n      jump\t// in\n    tag_161:\n        /* \"#utility.yul\":5027:5105   */\n      swap4\n      pop\n        /* \"#utility.yul\":5114:5179   */\n      tag_162\n        /* \"#utility.yul\":5172:5178   */\n      dup2\n        /* \"#utility.yul\":5167:5170   */\n      dup6\n        /* \"#utility.yul\":5160:5164   */\n      0x20\n        /* \"#utility.yul\":5153:5158   */\n      dup7\n        /* \"#utility.yul\":5149:5165   */\n      add\n        /* \"#utility.yul\":5114:5179   */\n      tag_81\n      jump\t// in\n    tag_162:\n        /* \"#utility.yul\":5204:5233   */\n      tag_163\n        /* \"#utility.yul\":5226:5232   */\n      dup2\n        /* \"#utility.yul\":5204:5233   */\n      tag_66\n      jump\t// in\n    tag_163:\n        /* \"#utility.yul\":5199:5202   */\n      dup5\n        /* \"#utility.yul\":5195:5234   */\n      add\n        /* \"#utility.yul\":5188:5234   */\n      swap2\n      pop\n        /* \"#utility.yul\":4955:5240   */\n      pop\n        /* \"#utility.yul\":4863:5240   */\n      swap3\n      swap2\n      pop\n      pop\n      jump\t// out\n        /* \"#utility.yul\":5246:5364   */\n    tag_83:\n        /* \"#utility.yul\":5333:5357   */\n      tag_165\n        /* \"#utility.yul\":5351:5356   */\n      dup2\n        /* \"#utility.yul\":5333:5357   */\n      tag_74\n      jump\t// in\n    tag_165:\n        /* \"#utility.yul\":5328:5331   */\n      dup3\n        /* \"#utility.yul\":5321:5358   */\n      mstore\n        /* \"#utility.yul\":5246:5364   */\n      pop\n      pop\n      jump\t// out\n        /* \"#utility.yul\":5370:5793   */\n    tag_27:\n        /* \"#utility.yul\":5511:5515   */\n      0x00\n        /* \"#utility.yul\":5549:5551   */\n      0x40\n        /* \"#utility.yul\":5538:5547   */\n      dup3\n        /* \"#utility.yul\":5534:5552   */\n      add\n        /* \"#utility.yul\":5526:5552   */\n      swap1\n      pop\n        /* \"#utility.yul\":5598:5607   */\n      dup2\n        /* \"#utility.yul\":5592:5596   */\n      dup2\n        /* \"#utility.yul\":5588:5608   */\n      sub\n        /* \"#utility.yul\":5584:5585   */\n      0x00\n        /* \"#utility.yul\":5573:5582   */\n      dup4\n        /* \"#utility.yul\":5569:5586   */\n      add\n        /* \"#utility.yul\":5562:5609   */\n      mstore\n        /* \"#utility.yul\":5626:5704   */\n      tag_167\n        /* \"#utility.yul\":5699:5703   */\n      dup2\n        /* \"#utility.yul\":5690:5696   */\n      dup6\n        /* \"#utility.yul\":5626:5704   */\n      tag_82\n      jump\t// in\n    tag_167:\n        /* \"#utility.yul\":5618:5704   */\n      swap1\n      pop\n        /* \"#utility.yul\":5714:5786   */\n      tag_168\n        /* \"#utility.yul\":5782:5784   */\n      0x20\n        /* \"#utility.yul\":5771:5780   */\n      dup4\n        /* \"#utility.yul\":5767:5785   */\n      add\n        /* \"#utility.yul\":5758:5764   */\n      dup5\n        /* \"#utility.yul\":5714:5786   */\n      tag_83\n      jump\t// in\n    tag_168:\n        /* \"#utility.yul\":5370:5793   */\n      swap4\n      swap3\n      pop\n      pop\n      pop\n      jump\t// out\n        /* \"#utility.yul\":5799:6021   */\n    tag_31:\n        /* \"#utility.yul\":5892:5896   */\n      0x00\n        /* \"#utility.yul\":5930:5932   */\n      0x20\n        /* \"#utility.yul\":5919:5928   */\n      dup3\n        /* \"#utility.yul\":5915:5933   */\n      add\n        /* \"#utility.yul\":5907:5933   */\n      swap1\n      pop\n        /* \"#utility.yul\":5943:6014   */\n      tag_170\n        /* \"#utility.yul\":6011:6012   */\n      0x00\n        /* \"#utility.yul\":6000:6009   */\n      dup4\n        /* \"#utility.yul\":5996:6013   */\n      add\n        /* \"#utility.yul\":5987:5993   */\n      dup5\n        /* \"#utility.yul\":5943:6014   */\n      tag_83\n      jump\t// in\n    tag_170:\n        /* \"#utility.yul\":5799:6021   */\n      swap3\n      swap2\n      pop\n      pop\n      jump\t// out\n        /* \"#utility.yul\":6027:6207   */\n    tag_84:\n        /* \"#utility.yul\":6075:6152   */\n      0x4e487b7100000000000000000000000000000000000000000000000000000000\n        /* \"#utility.yul\":6072:6073   */\n      0x00\n        /* \"#utility.yul\":6065:6153   */\n      mstore\n        /* \"#utility.yul\":6172:6176   */\n      0x22\n        /* \"#utility.yul\":6169:6170   */\n      0x04\n        /* \"#utility.yul\":6162:6177   */\n      mstore\n        /* \"#utility.yul\":6196:6200   */\n      0x24\n        /* \"#utility.yul\":6193:6194   */\n      0x00\n        /* \"#utility.yul\":6186:6201   */\n      revert\n        /* \"#utility.yul\":6213:6533   */\n    tag_51:\n        /* \"#utility.yul\":6257:6263   */\n      0x00\n        /* \"#utility.yul\":6294:6295   */\n      0x02\n        /* \"#utility.yul\":6288:6292   */\n      dup3\n        /* \"#utility.yul\":6284:6296   */\n      div\n        /* \"#utility.yul\":6274:6296   */\n      swap1\n      pop\n        /* \"#utility.yul\":6341:6342   */\n      0x01\n        /* \"#utility.yul\":6335:6339   */\n      dup3\n        /* \"#utility.yul\":6331:6343   */\n      and\n        /* \"#utility.yul\":6362:6380   */\n      dup1\n        /* \"#utility.yul\":6352:6433   */\n      tag_173\n      jumpi\n        /* \"#utility.yul\":6418:6422   */\n      0x7f\n        /* \"#utility.yul\":6410:6416   */\n      dup3\n        /* \"#utility.yul\":6406:6423   */\n      and\n        /* \"#utility.yul\":6396:6423   */\n      swap2\n      pop\n        /* \"#utility.yul\":6352:6433   */\n    tag_173:\n        /* \"#utility.yul\":6480:6482   */\n      0x20\n        /* \"#utility.yul\":6472:6478   */\n      dup3\n        /* \"#utility.yul\":6469:6483   */\n      lt\n        /* \"#utility.yul\":6449:6467   */\n      dup2\n        /* \"#utility.yul\":6446:6484   */\n      sub\n        /* \"#utility.yul\":6443:6527   */\n      tag_174\n      jumpi\n        /* \"#utility.yul\":6499:6517   */\n      tag_175\n      tag_84\n      jump\t// in\n    tag_175:\n        /* \"#utility.yul\":6443:6527   */\n    tag_174:\n        /* \"#utility.yul\":6264:6533   */\n      pop\n        /* \"#utility.yul\":6213:6533   */\n      swap2\n      swap1\n      pop\n      jump\t// out\n        /* \"#utility.yul\":6539:6680   */\n    tag_85:\n        /* \"#utility.yul\":6588:6592   */\n      0x00\n        /* \"#utility.yul\":6611:6614   */\n      dup2\n        /* \"#utility.yul\":6603:6614   */\n      swap1\n      pop\n        /* \"#utility.yul\":6634:6637   */\n      dup2\n        /* \"#utility.yul\":6631:6632   */\n      0x00\n        /* \"#utility.yul\":6624:6638   */\n      mstore\n        /* \"#utility.yul\":6668:6672   */\n      0x20\n        /* \"#utility.yul\":6665:6666   */\n      0x00\n        /* \"#utility.yul\":6655:6673   */\n      keccak256\n        /* \"#utility.yul\":6647:6673   */\n      swap1\n      pop\n        /* \"#utility.yul\":6539:6680   */\n      swap2\n      swap1\n      pop\n      jump\t// out\n        /* \"#utility.yul\":6686:6779   */\n    tag_86:\n        /* \"#utility.yul\":6723:6729   */\n      0x00\n        /* \"#utility.yul\":6770:6772   */\n      0x20\n        /* \"#utility.yul\":6765:6767   */\n      0x1f\n        /* \"#utility.yul\":6758:6763   */\n      dup4\n        /* \"#utility.yul\":6754:6768   */\n      add\n        /* \"#utility.yul\":6750:6773   */\n      div\n        /* \"#utility.yul\":6740:6773   */\n      swap1\n      pop\n        /* \"#utility.yul\":6686:6779   */\n      swap2\n      swap1\n      pop\n      jump\t// out\n        /* \"#utility.yul\":6785:6892   */\n    tag_87:\n        /* \"#utility.yul\":6829:6837   */\n      0x00\n        /* \"#utility.yul\":6879:6884   */\n      dup3\n        /* \"#utility.yul\":6873:6877   */\n      dup3\n        /* \"#utility.yul\":6869:6885   */\n      shl\n        /* \"#utility.yul\":6848:6885   */\n      swap1\n      pop\n        /* \"#utility.yul\":6785:6892   */\n      swap3\n      swap2\n      pop\n      pop\n      jump\t// out\n        /* \"#utility.yul\":6898:7291   */\n    tag_88:\n        /* \"#utility.yul\":6967:6973   */\n      0x00\n        /* \"#utility.yul\":7017:7018   */\n      0x08\n        /* \"#utility.yul\":7005:7015   */\n      dup4\n        /* \"#utility.yul\":7001:7019   */\n      mul\n        /* \"#utility.yul\":7040:7137   */\n      tag_180\n        /* \"#utility.yul\":7070:7136   */\n      0xffffffffffffffffffffffffffffffffffffffffffffffffffffffffffffffff\n        /* \"#utility.yul\":7059:7068   */\n      dup3\n        /* \"#utility.yul\":7040:7137   */\n      tag_87\n      jump\t// in\n    tag_180:\n        /* \"#utility.yul\":7158:7197   */\n      tag_181\n        /* \"#utility.yul\":7188:7196   */\n      dup7\n        /* \"#utility.yul\":7177:7186   */\n      dup4\n        /* \"#utility.yul\":7158:7197   */\n      tag_87\n      jump\t// in\n    tag_181:\n        /* \"#utility.yul\":7146:7197   */\n      swap6\n      pop\n        /* \"#utility.yul\":7230:7234   */\n      dup1\n        /* \"#utility.yul\":7226:7235   */\n      not\n        /* \"#utility.yul\":7219:7224   */\n      dup5\n        /* \"#utility.yul\":7215:7236   */\n      and\n        /* \"#utility.yul\":7206:7236   */\n      swap4\n      pop\n        /* \"#utility.yul\":7279:7283   */\n      dup1\n        /* \"#utility.yul\":7269:7277   */\n      dup7\n        /* \"#utility.yul\":7265:7284   */\n      and\n        /* \"#utility.yul\":7258:7263   */\n      dup5\n        /* \"#utility.yul\":7255:7285   */\n      or\n        /* \"#utility.yul\":7245:7285   */\n      swap3\n      pop\n        /* \"#utility.yul\":6974:7291   */\n      pop\n      pop\n        /* \"#utility.yul\":6898:7291   */\n      swap4\n      swap3\n      pop\n      pop\n      pop\n      jump\t// out\n        /* \"#utility.yul\":7297:7357   */\n    tag_89:\n        /* \"#utility.yul\":7325:7328   */\n      0x00\n        /* \"#utility.yul\":7346:7351   */\n      dup2\n        /* \"#utility.yul\":7339:7351   */\n      swap1\n      pop\n        /* \"#utility.yul\":7297:7357   */\n      swap2\n      swap1\n      pop\n      jump\t// out\n        /* \"#utility.yul\":7363:7505   */\n    tag_90:\n        /* \"#utility.yul\":7413:7422   */\n      0x00\n        /* \"#utility.yul\":7446:7499   */\n      tag_184\n        /* \"#utility.yul\":7464:7498   */\n      tag_185\n        /* \"#utility.yul\":7473:7497   */\n      tag_186\n        /* \"#utility.yul\":7491:7496   */\n      dup5\n        /* \"#utility.yul\":7473:7497   */\n      tag_74\n      jump\t// in\n    tag_186:\n        /* \"#utility.yul\":7464:7498   */\n      tag_89\n      jump\t// in\n    tag_185:\n        /* \"#utility.yul\":7446:7499   */\n      tag_74\n      jump\t// in\n    tag_184:\n        /* \"#utility.yul\":7433:7499   */\n      swap1\n      pop\n        /* \"#utility.yul\":7363:7505   */\n      swap2\n      swap1\n      pop\n      jump\t// out\n        /* \"#utility.yul\":7511:7586   */\n    tag_91:\n        /* \"#utility.yul\":7554:7557   */\n      0x00\n        /* \"#utility.yul\":7575:7580   */\n      dup2\n        /* \"#utility.yul\":7568:7580   */\n      swap1\n      pop\n        /* \"#utility.yul\":7511:7586   */\n      swap2\n      swap1\n      pop\n      jump\t// out\n        /* \"#utility.yul\":7592:7861   */\n    tag_92:\n        /* \"#utility.yul\":7702:7741   */\n      tag_189\n        /* \"#utility.yul\":7733:7740   */\n      dup4\n        /* \"#utility.yul\":7702:7741   */\n      tag_90\n      jump\t// in\n    tag_189:\n        /* \"#utility.yul\":7763:7854   */\n      tag_190\n        /* \"#utility.yul\":7812:7853   */\n      tag_191\n        /* \"#utility.yul\":7836:7852   */\n      dup3\n        /* \"#utility.yul\":7812:7853   */\n      tag_91\n      jump\t// in\n    tag_191:\n        /* \"#utility.yul\":7804:7810   */\n      dup5\n        /* \"#utility.yul\":7797:7801   */\n      dup5\n        /* \"#utility.yul\":7791:7802   */\n      sload\n        /* \"#utility.yul\":7763:7854   */\n      tag_88\n      jump\t// in\n    tag_190:\n        /* \"#utility.yul\":7757:7761   */\n      dup3\n        /* \"#utility.yul\":7750:7855   */\n      sstore\n        /* \"#utility.yul\":7668:7861   */\n      pop\n        /* \"#utility.yul\":7592:7861   */\n      pop\n      pop\n      pop\n      jump\t// out\n        /* \"#utility.yul\":7867:7940   */\n    tag_93:\n        /* \"#utility.yul\":7912:7915   */\n      0x00\n        /* \"#utility.yul\":7867:7940   */\n      swap1\n      jump\t// out\n        /* \"#utility.yul\":7946:8135   */\n    tag_94:\n        /* \"#utility.yul\":8023:8055   */\n      tag_194\n      tag_93\n      jump\t// in\n    tag_194:\n        /* \"#utility.yul\":8064:8129   */\n      tag_195\n        /* \"#utility.yul\":8122:8128   */\n      dup2\n        /* \"#utility.yul\":8114:8120   */\n      dup5\n        /* \"#utility.yul\":8108:8112   */\n      dup5\n        /* \"#utility.yul\":8064:8129   */\n      tag_92\n      jump\t// in\n    tag_195:\n        /* \"#utility.yul\":7999:8135   */\n      pop\n        /* \"#utility.yul\":7946:8135   */\n      pop\n      pop\n      jump\t// out\n        /* \"#utility.yul\":8141:8327   */\n    tag_95:\n        /* \"#utility.yul\":8201:8321   */\n    tag_197:\n        /* \"#utility.yul\":8218:8221   */\n      dup2\n        /* \"#utility.yul\":8211:8216   */\n      dup2\n        /* \"#utility.yul\":8208:8222   */\n      lt\n        /* \"#utility.yul\":8201:8321   */\n      iszero\n      tag_199\n      jumpi\n        /* \"#utility.yul\":8272:8311   */\n      tag_200\n        /* \"#utility.yul\":8309:8310   */\n      0x00\n        /* \"#utility.yul\":8302:8307   */\n      dup3\n        /* \"#utility.yul\":8272:8311   */\n      tag_94\n      jump\t// in\n    tag_200:\n        /* \"#utility.yul\":8245:8246   */\n      0x01\n        /* \"#utility.yul\":8238:8243   */\n      dup2\n        /* \"#utility.yul\":8234:8247   */\n      add\n        /* \"#utility.yul\":8225:8247   */\n      swap1\n      pop\n        /* \"#utility.yul\":8201:8321   */\n      jump(tag_197)\n    tag_199:\n        /* \"#utility.yul\":8141:8327   */\n      pop\n      pop\n      jump\t// out\n        /* \"#utility.yul\":8333:8876   */\n    tag_96:\n        /* \"#utility.yul\":8434:8436   */\n      0x1f\n        /* \"#utility.yul\":8429:8432   */\n      dup3\n        /* \"#utility.yul\":8426:8437   */\n      gt\n        /* \"#utility.yul\":8423:8869   */\n      iszero\n      tag_202\n      jumpi\n        /* \"#utility.yul\":8468:8506   */\n      tag_203\n        /* \"#utility.yul\":8500:8505   */\n      dup2\n        /* \"#utility.yul\":8468:8506   */\n      tag_85\n      jump\t// in\n    tag_203:\n        /* \"#utility.yul\":8552:8581   */\n      tag_204\n        /* \"#utility.yul\":8570:8580   */\n      dup5\n        /* \"#utility.yul\":8552:8581   */\n      tag_86\n      jump\t// in\n    tag_204:\n        /* \"#utility.yul\":8542:8550   */\n      dup2\n        /* \"#utility.yul\":8538:8582   */\n      add\n        /* \"#utility.yul\":8735:8737   */\n      0x20\n        /* \"#utility.yul\":8723:8733   */\n      dup6\n        /* \"#utility.yul\":8720:8738   */\n      lt\n        /* \"#utility.yul\":8717:8766   */\n      iszero\n      tag_205\n      jumpi\n        /* \"#utility.yul\":8756:8764   */\n      dup2\n        /* \"#utility.yul\":8741:8764   */\n      swap1\n      pop\n        /* \"#utility.yul\":8717:8766   */\n    tag_205:\n        /* \"#utility.yul\":8779:8859   */\n      tag_206\n        /* \"#utility.yul\":8835:8857   */\n      tag_207\n        /* \"#utility.yul\":8853:8856   */\n      dup6\n        /* \"#utility.yul\":8835:8857   */\n      tag_86\n      jump\t// in\n    tag_207:\n        /* \"#utility.yul\":8825:8833   */\n      dup4\n        /* \"#utility.yul\":8821:8858   */\n      add\n        /* \"#utility.yul\":8808:8819   */\n      dup3\n        /* \"#utility.yul\":8779:8859   */\n      tag_95\n      jump\t// in\n    tag_206:\n        /* \"#utility.yul\":8438:8869   */\n      pop\n      pop\n        /* \"#utility.yul\":8423:8869   */\n    tag_202:\n        /* \"#utility.yul\":8333:8876   */\n      pop\n      pop\n      pop\n      jump\t// out\n        /* \"#utility.yul\":8882:8999   */\n    tag_97:\n        /* \"#utility.yul\":8936:8944   */\n      0x00\n        /* \"#utility.yul\":8986:8991   */\n      dup3\n        /* \"#utility.yul\":8980:8984   */\n      dup3\n        /* \"#utility.yul\":8976:8992   */\n      shr\n        /* \"#utility.yul\":8955:8992   */\n      swap1\n      pop\n        /* \"#utility.yul\":8882:8999   */\n      swap3\n      swap2\n      pop\n      pop\n      jump\t// out\n        /* \"#utility.yul\":9005:9174   */\n    tag_98:\n        /* \"#utility.yul\":9049:9055   */\n      0x00\n        /* \"#utility.yul\":9082:9133   */\n      tag_210\n        /* \"#utility.yul\":9130:9131   */\n      0x00\n        /* \"#utility.yul\":9126:9132   */\n      not\n        /* \"#utility.yul\":9118:9123   */\n      dup5\n        /* \"#utility.yul\":9115:9116   */\n      0x08\n        /* \"#utility.yul\":9111:9124   */\n      mul\n        /* \"#utility.yul\":9082:9133   */\n      tag_97\n      jump\t// in\n    tag_210:\n        /* \"#utility.yul\":9078:9134   */\n      not\n        /* \"#utility.yul\":9163:9167   */\n      dup1\n        /* \"#utility.yul\":9157:9161   */\n      dup4\n        /* \"#utility.yul\":9153:9168   */\n      and\n        /* \"#utility.yul\":9143:9168   */\n      swap2\n      pop\n        /* \"#utility.yul\":9056:9174   */\n      pop\n        /* \"#utility.yul\":9005:9174   */\n      swap3\n      swap2\n      pop\n      pop\n      jump\t// out\n        /* \"#utility.yul\":9179:9474   */\n    tag_99:\n        /* \"#utility.yul\":9255:9259   */\n      0x00\n        /* \"#utility.yul\":9401:9430   */\n      tag_212\n        /* \"#utility.yul\":9426:9429   */\n      dup4\n        /* \"#utility.yul\":9420:9424   */\n      dup4\n        /* \"#utility.yul\":9401:9430   */\n      tag_98\n      jump\t// in\n    tag_212:\n        /* \"#utility.yul\":9393:9430   */\n      swap2\n      pop\n        /* \"#utility.yul\":9463:9466   */\n      dup3\n        /* \"#utility.yul\":9460:9461   */\n      0x02\n        /* \"#utility.yul\":9456:9467   */\n      mul\n        /* \"#utility.yul\":9450:9454   */\n      dup3\n        /* \"#utility.yul\":9447:9468   */\n      or\n        /* \"#utility.yul\":9439:9468   */\n      swap1\n      pop\n        /* \"#utility.yul\":9179:9474   */\n      swap3\n      swap2\n      pop\n      pop\n      jump\t// out\n        /* \"#utility.yul\":9479:10874   */\n    tag_40:\n        /* \"#utility.yul\":9596:9633   */\n      tag_214\n        /* \"#utility.yul\":9629:9632   */\n      dup3\n        /* \"#utility.yul\":9596:9633   */\n      tag_79\n      jump\t// in\n    tag_214:\n        /* \"#utility.yul\":9698:9716   */\n      0xffffffffffffffff\n        /* \"#utility.yul\":9690:9696   */\n      dup2\n        /* \"#utility.yul\":9687:9717   */\n      gt\n        /* \"#utility.yul\":9684:9740   */\n      iszero\n      tag_215\n      jumpi\n        /* \"#utility.yul\":9720:9738   */\n      tag_216\n      tag_67\n      jump\t// in\n    tag_216:\n        /* \"#utility.yul\":9684:9740   */\n    tag_215:\n        /* \"#utility.yul\":9764:9802   */\n      tag_217\n        /* \"#utility.yul\":9796:9800   */\n      dup3\n        /* \"#utility.yul\":9790:9801   */\n      sload\n        /* \"#utility.yul\":9764:9802   */\n      tag_51\n      jump\t// in\n    tag_217:\n        /* \"#utility.yul\":9849:9916   */\n      tag_218\n        /* \"#utility.yul\":9909:9915   */\n      dup3\n        /* \"#utility.yul\":9901:9907   */\n      dup3\n        /* \"#utility.yul\":9895:9899   */\n      dup6\n        /* \"#utility.yul\":9849:9916   */\n      tag_96\n      jump\t// in\n    tag_218:\n        /* \"#utility.yul\":9943:9944   */\n      0x00\n        /* \"#utility.yul\":9967:9971   */\n      0x20\n        /* \"#utility.yul\":9954:9971   */\n      swap1\n      pop\n        /* \"#utility.yul\":9999:10001   */\n      0x1f\n        /* \"#utility.yul\":9991:9997   */\n      dup4\n        /* \"#utility.yul\":9988:10002   */\n      gt\n        /* \"#utility.yul\":10016:10017   */\n      0x01\n        /* \"#utility.yul\":10011:10629   */\n      dup2\n      eq\n      tag_220\n      jumpi\n        /* \"#utility.yul\":10673:10674   */\n      0x00\n        /* \"#utility.yul\":10690:10696   */\n      dup5\n        /* \"#utility.yul\":10687:10764   */\n      iszero\n      tag_221\n      jumpi\n        /* \"#utility.yul\":10739:10748   */\n      dup3\n        /* \"#utility.yul\":10734:10737   */\n      dup8\n        /* \"#utility.yul\":10730:10749   */\n      add\n        /* \"#utility.yul\":10724:10750   */\n      mload\n        /* \"#utility.yul\":10715:10750   */\n      swap1\n      pop\n        /* \"#utility.yul\":10687:10764   */\n    tag_221:\n        /* \"#utility.yul\":10790:10857   */\n      tag_222\n        /* \"#utility.yul\":10850:10856   */\n      dup6\n        /* \"#utility.yul\":10843:10848   */\n      dup3\n        /* \"#utility.yul\":10790:10857   */\n      tag_99\n      jump\t// in\n    tag_222:\n        /* \"#utility.yul\":10784:10788   */\n      dup7\n        /* \"#utility.yul\":10777:10858   */\n      sstore\n        /* \"#utility.yul\":10646:10868   */\n      pop\n        /* \"#utility.yul\":9981:10868   */\n      jump(tag_219)\n        /* \"#utility.yul\":10011:10629   */\n    tag_220:\n        /* \"#utility.yul\":10063:10067   */\n      0x1f\n        /* \"#utility.yul\":10059:10068   */\n      not\n        /* \"#utility.yul\":10051:10057   */\n      dup5\n        /* \"#utility.yul\":10047:10069   */\n      and\n        /* \"#utility.yul\":10097:10134   */\n      tag_223\n        /* \"#utility.yul\":10129:10133   */\n      dup7\n        /* \"#utility.yul\":10097:10134   */\n      tag_85\n      jump\t// in\n    tag_223:\n        /* \"#utility.yul\":10156:10157   */\n      0x00\n        /* \"#utility.yul\":10170:10378   */\n    tag_224:\n        /* \"#utility.yul\":10184:10191   */\n      dup3\n        /* \"#utility.yul\":10181:10182   */\n      dup2\n        /* \"#utility.yul\":10178:10192   */\n      lt\n        /* \"#utility.yul\":10170:10378   */\n      iszero\n      tag_226\n      jumpi\n        /* \"#utility.yul\":10263:10272   */\n      dup5\n        /* \"#utility.yul\":10258:10261   */\n      dup10\n        /* \"#utility.yul\":10254:10273   */\n      add\n        /* \"#utility.yul\":10248:10274   */\n      mload\n        /* \"#utility.yul\":10240:10246   */\n      dup3\n        /* \"#utility.yul\":10233:10275   */\n      sstore\n        /* \"#utility.yul\":10314:10315   */\n      0x01\n        /* \"#utility.yul\":10306:10312   */\n      dup3\n        /* \"#utility.yul\":10302:10316   */\n      add\n        /* \"#utility.yul\":10292:10316   */\n      swap2\n      pop\n        /* \"#utility.yul\":10361:10363   */\n      0x20\n        /* \"#utility.yul\":10350:10359   */\n      dup6\n        /* \"#utility.yul\":10346:10364   */\n      add\n        /* \"#utility.yul\":10333:10364   */\n      swap5\n      pop\n        /* \"#utility.yul\":10207:10211   */\n      0x20\n        /* \"#utility.yul\":10204:10205   */\n      dup2\n        /* \"#utility.yul\":10200:10212   */\n      add\n        /* \"#utility.yul\":10195:10212   */\n      swap1\n      pop\n        /* \"#utility.yul\":10170:10378   */\n      jump(tag_224)\n    tag_226:\n        /* \"#utility.yul\":10406:10412   */\n      dup7\n        /* \"#utility.yul\":10397:10404   */\n      dup4\n        /* \"#utility.yul\":10394:10413   */\n      lt\n        /* \"#utility.yul\":10391:10570   */\n      iszero\n      tag_227\n      jumpi\n        /* \"#utility.yul\":10464:10473   */\n      dup5\n        /* \"#utility.yul\":10459:10462   */\n      dup10\n        /* \"#utility.yul\":10455:10474   */\n      add\n        /* \"#utility.yul\":10449:10475   */\n      mload\n        /* \"#utility.yul\":10507:10555   */\n      tag_228\n        /* \"#utility.yul\":10549:10553   */\n      0x1f\n        /* \"#utility.yul\":10541:10547   */\n      dup10\n        /* \"#utility.yul\":10537:10554   */\n      and\n        /* \"#utility.yul\":10526:10535   */\n      dup3\n        /* \"#utility.yul\":10507:10555   */\n      tag_98\n      jump\t// in\n    tag_228:\n        /* \"#utility.yul\":10499:10505   */\n      dup4\n        /* \"#utility.yul\":10492:10556   */\n      sstore\n        /* \"#utility.yul\":10414:10570   */\n      pop\n        /* \"#utility.yul\":10391:10570   */\n    tag_227:\n        /* \"#utility.yul\":10616:10617   */\n      0x01\n        /* \"#utility.yul\":10612:10613   */\n      0x02\n        /* \"#utility.yul\":10604:10610   */\n      dup9\n        /* \"#utility.yul\":10600:10614   */\n      mul\n        /* \"#utility.yul\":10596:10618   */\n      add\n        /* \"#utility.yul\":10590:10594   */\n      dup9\n        /* \"#utility.yul\":10583:10619   */\n      sstore\n        /* \"#utility.yul\":10018:10629   */\n      pop\n      pop\n      pop\n        /* \"#utility.yul\":9981:10868   */\n    tag_219:\n      pop\n        /* \"#utility.yul\":9571:10874   */\n      pop\n      pop\n      pop\n        /* \"#utility.yul\":9479:10874   */\n      pop\n      pop\n      jump\t// out\n        /* \"#utility.yul\":10880:11060   */\n    tag_100:\n        /* \"#utility.yul\":10928:11005   */\n      0x4e487b7100000000000000000000000000000000000000000000000000000000\n        /* \"#utility.yul\":10925:10926   */\n      0x00\n        /* \"#utility.yul\":10918:11006   */\n      mstore\n        /* \"#utility.yul\":11025:11029   */\n      0x11\n        /* \"#utility.yul\":11022:11023   */\n      0x04\n        /* \"#utility.yul\":11015:11030   */\n      mstore\n        /* \"#utility.yul\":11049:11053   */\n      0x24\n        /* \"#utility.yul\":11046:11047   */\n      0x00\n        /* \"#utility.yul\":11039:11054   */\n      revert\n        /* \"#utility.yul\":11066:11260   */\n    tag_48:\n        /* \"#utility.yul\":11106:11110   */\n      0x00\n        /* \"#utility.yul\":11126:11146   */\n      tag_231\n        /* \"#utility.yul\":11144:11145   */\n      dup3\n        /* \"#utility.yul\":11126:11146   */\n      tag_74\n      jump\t// in\n    tag_231:\n        /* \"#utility.yul\":11121:11146   */\n      swap2\n      pop\n        /* \"#utility.yul\":11160:11180   */\n      tag_232\n        /* \"#utility.yul\":11178:11179   */\n      dup4\n        /* \"#utility.yul\":11160:11180   */\n      tag_74\n      jump\t// in\n    tag_232:\n        /* \"#utility.yul\":11155:11180   */\n      swap3\n      pop\n        /* \"#utility.yul\":11204:11205   */\n      dup3\n        /* \"#utility.yul\":11201:11202   */\n      dup3\n        /* \"#utility.yul\":11197:11206   */\n      sub\n        /* \"#utility.yul\":11189:11206   */\n      swap1\n      pop\n        /* \"#utility.yul\":11228:11229   */\n      dup2\n        /* \"#utility.yul\":11222:11226   */\n      dup2\n        /* \"#utility.yul\":11219:11230   */\n      gt\n        /* \"#utility.yul\":11216:11253   */\n      iszero\n      tag_233\n      jumpi\n        /* \"#utility.yul\":11233:11251   */\n      tag_234\n      tag_100\n      jump\t// in\n    tag_234:\n        /* \"#utility.yul\":11216:11253   */\n    tag_233:\n        /* \"#utility.yul\":11066:11260   */\n      swap3\n      swap2\n      pop\n      pop\n      jump\t// out\n        /* \"#utility.yul\":11266:11457   */\n    tag_59:\n        /* \"#utility.yul\":11306:11309   */\n      0x00\n        /* \"#utility.yul\":11325:11345   */\n      tag_236\n        /* \"#utility.yul\":11343:11344   */\n      dup3\n        /* \"#utility.yul\":11325:11345   */\n      tag_74\n      jump\t// in\n    tag_236:\n        /* \"#utility.yul\":11320:11345   */\n      swap2\n      pop\n        /* \"#utility.yul\":11359:11379   */\n      tag_237\n        /* \"#utility.yul\":11377:11378   */\n      dup4\n        /* \"#utility.yul\":11359:11379   */\n      tag_74\n      jump\t// in\n    tag_237:\n        /* \"#utility.yul\":11354:11379   */\n      swap3\n      pop\n        /* \"#utility.yul\":11402:11403   */\n      dup3\n        /* \"#utility.yul\":11399:11400   */\n      dup3\n        /* \"#utility.yul\":11395:11404   */\n      add\n        /* \"#utility.yul\":11388:11404   */\n      swap1\n      pop\n        /* \"#utility.yul\":11423:11426   */\n      dup1\n        /* \"#utility.yul\":11420:11421   */\n      dup3\n        /* \"#utility.yul\":11417:11427   */\n      gt\n        /* \"#utility.yul\":11414:11450   */\n      iszero\n      tag_238\n      jumpi\n        /* \"#utility.yul\":11430:11448   */\n      tag_239\n      tag_100\n      jump\t// in\n    tag_239:\n        /* \"#utility.yul\":11414:11450   */\n    tag_238:\n        /* \"#utility.yul\":11266:11457   */\n      swap3\n      swap2\n      pop\n      pop\n      jump\t// out\n\n    auxdata: 0xa2646970667358221220f630844949602639189496d7b260f616ea877cbac1f9708e4ac2ab0def98a12064736f6c63430008130033\n}\n",
				"bytecode": {
					"linkReferences": {},
					"object": "6080604052600a60025534801561001557600080fd5b506109af806100256000396000f3fe608060405234801561001057600080fd5b506004361061007d5760003560e01c8063958159cc1161005b578063958159cc146100ea578063b69ef8a814610109578063b6b55f2514610127578063d285b7b4146101435761007d565b806323f859711461008257806326a1f4211461009e5780632e1a7d4d146100ce575b600080fd5b61009c6004803603810190610097919061046c565b610161565b005b6100b860048036038101906100b391906104c8565b61017c565b6040516100c59190610510565b60405180910390f35b6100e860048036038101906100e391906104c8565b61018a565b005b6100f261020e565b6040516101009291906105b9565b60405180910390f35b6101116102ab565b60405161011e91906105e9565b60405180910390f35b610141600480360381019061013c91906104c8565b6102b4565b005b61014b6102cf565b6040516101589190610510565b60405180910390f35b81600490816101709190610810565b50806003819055505050565b600080548211159050919050565b3373ffffffffffffffffffffffffffffffffffffffff16600160009054906101000a900473ffffffffffffffffffffffffffffffffffffffff1673ffffffffffffffffffffffffffffffffffffffff16146101e457600080fd5b6101ed8161017c565b1561020b57806000808282546102039190610911565b925050819055505b50565b60606000600460035481805461022390610633565b80601f016020809104026020016040519081016040528092919081815260200182805461024f90610633565b801561029c5780601f106102715761010080835404028352916020019161029c565b820191906000526020600020905b81548152906001019060200180831161027f57829003601f168201915b50505050509150915091509091565b60008054905090565b806000808282546102c59190610945565b9250508190555050565b6000601460005411905090565b6000604051905090565b600080fd5b600080fd5b600080fd5b600080fd5b6000601f19601f8301169050919050565b7f4e487b7100000000000000000000000000000000000000000000000000000000600052604160045260246000fd5b610343826102fa565b810181811067ffffffffffffffff821117156103625761036161030b565b5b80604052505050565b60006103756102dc565b9050610381828261033a565b919050565b600067ffffffffffffffff8211156103a1576103a061030b565b5b6103aa826102fa565b9050602081019050919050565b82818337600083830152505050565b60006103d96103d484610386565b61036b565b9050828152602081018484840111156103f5576103f46102f5565b5b6104008482856103b7565b509392505050565b600082601f83011261041d5761041c6102f0565b5b813561042d8482602086016103c6565b91505092915050565b6000819050919050565b61044981610436565b811461045457600080fd5b50565b60008135905061046681610440565b92915050565b60008060408385031215610483576104826102e6565b5b600083013567ffffffffffffffff8111156104a1576104a06102eb565b5b6104ad85828601610408565b92505060206104be85828601610457565b9150509250929050565b6000602082840312156104de576104dd6102e6565b5b60006104ec84828501610457565b91505092915050565b60008115159050919050565b61050a816104f5565b82525050565b60006020820190506105256000830184610501565b92915050565b600081519050919050565b600082825260208201905092915050565b60005b8381101561056557808201518184015260208101905061054a565b60008484015250505050565b600061057c8261052b565b6105868185610536565b9350610596818560208601610547565b61059f816102fa565b840191505092915050565b6105b381610436565b82525050565b600060408201905081810360008301526105d38185610571565b90506105e260208301846105aa565b9392505050565b60006020820190506105fe60008301846105aa565b92915050565b7f4e487b7100000000000000000000000000000000000000000000000000000000600052602260045260246000fd5b6000600282049050600182168061064b57607f821691505b60208210810361065e5761065d610604565b5b50919050565b60008190508160005260206000209050919050565b60006020601f8301049050919050565b600082821b905092915050565b6000600883026106c67fffffffffffffffffffffffffffffffffffffffffffffffffffffffffffffffff82610689565b6106d08683610689565b95508019841693508086168417925050509392505050565b6000819050919050565b600061070d61070861070384610436565b6106e8565b610436565b9050919050565b6000819050919050565b610727836106f2565b61073b61073382610714565b848454610696565b825550505050565b600090565b610750610743565b61075b81848461071e565b505050565b5b8181101561077f57610774600082610748565b600181019050610761565b5050565b601f8211156107c45761079581610664565b61079e84610679565b810160208510156107ad578190505b6107c16107b985610679565b830182610760565b50505b505050565b600082821c905092915050565b60006107e7600019846008026107c9565b1980831691505092915050565b600061080083836107d6565b9150826002028217905092915050565b6108198261052b565b67ffffffffffffffff8111156108325761083161030b565b5b61083c8254610633565b610847828285610783565b600060209050601f83116001811461087a5760008415610868578287015190505b61087285826107f4565b8655506108da565b601f19841661088886610664565b60005b828110156108b05784890151825560018201915060208501945060208101905061088b565b868310156108cd57848901516108c9601f8916826107d6565b8355505b6001600288020188555050505b505050505050565b7f4e487b7100000000000000000000000000000000000000000000000000000000600052601160045260246000fd5b600061091c82610436565b915061092783610436565b925082820390508181111561093f5761093e6108e2565b5b92915050565b600061095082610436565b915061095b83610436565b9250828201905080821115610973576109726108e2565b5b9291505056fea2646970667358221220f630844949602639189496d7b260f616ea877cbac1f9708e4ac2ab0def98a12064736f6c63430008130033",
					"opcodes": "PUSH1 0x80 PUSH1 0x40 MSTORE PUSH1 0xA PUSH1 0x2 SSTORE CALLVALUE DUP1 ISZERO PUSH2 0x15 JUMPI PUSH1 0x0 DUP1 REVERT JUMPDEST POP PUSH2 0x9AF DUP1 PUSH2 0x25 PUSH1 0x0 CODECOPY PUSH1 0x0 RETURN INVALID PUSH1 0x80 PUSH1 0x40 MSTORE CALLVALUE DUP1 ISZERO PUSH2 0x10 JUMPI PUSH1 0x0 DUP1 REVERT JUMPDEST POP PUSH1 0x4 CALLDATASIZE LT PUSH2 0x7D JUMPI PUSH1 0x0 CALLDATALOAD PUSH1 0xE0 SHR DUP1 PUSH4 0x958159CC GT PUSH2 0x5B JUMPI DUP1 PUSH4 0x958159CC EQ PUSH2 0xEA JUMPI DUP1 PUSH4 0xB69EF8A8 EQ PUSH2 0x109 JUMPI DUP1 PUSH4 0xB6B55F25 EQ PUSH2 0x127 JUMPI DUP1 PUSH4 0xD285B7B4 EQ PUSH2 0x143 JUMPI PUSH2 0x7D JUMP JUMPDEST DUP1 PUSH4 0x23F85971 EQ PUSH2 0x82 JUMPI DUP1 PUSH4 0x26A1F421 EQ PUSH2 0x9E JUMPI DUP1 PUSH4 0x2E1A7D4D EQ PUSH2 0xCE JUMPI JUMPDEST PUSH1 0x0 DUP1 REVERT JUMPDEST PUSH2 0x9C PUSH1 0x4 DUP1 CALLDATASIZE SUB DUP2 ADD SWAP1 PUSH2 0x97 SWAP2 SWAP1 PUSH2 0x46C JUMP JUMPDEST PUSH2 0x161 JUMP JUMPDEST STOP JUMPDEST PUSH2 0xB8 PUSH1 0x4 DUP1 CALLDATASIZE SUB DUP2 ADD SWAP1 PUSH2 0xB3 SWAP2 SWAP1 PUSH2 0x4C8 JUMP JUMPDEST PUSH2 0x17C JUMP JUMPDEST PUSH1 0x40 MLOAD PUSH2 0xC5 SWAP2 SWAP1 PUSH2 0x510 JUMP JUMPDEST PUSH1 0x40 MLOAD DUP1 SWAP2 SUB SWAP1 RETURN JUMPDEST PUSH2 0xE8 PUSH1 0x4 DUP1 CALLDATASIZE SUB DUP2 ADD SWAP1 PUSH2 0xE3 SWAP2 SWAP1 PUSH2 0x4C8 JUMP JUMPDEST PUSH2 0x18A JUMP JUMPDEST STOP JUMPDEST PUSH2 0xF2 PUSH2 0x20E JUMP JUMPDEST PUSH1 0x40 MLOAD PUSH2 0x100 SWAP3 SWAP2 SWAP1 PUSH2 0x5B9 JUMP JUMPDEST PUSH1 0x40 MLOAD DUP1 SWAP2 SUB SWAP1 RETURN JUMPDEST PUSH2 0x111 PUSH2 0x2AB JUMP JUMPDEST PUSH1 0x40 MLOAD PUSH2 0x11E SWAP2 SWAP1 PUSH2 0x5E9 JUMP JUMPDEST PUSH1 0x40 MLOAD DUP1 SWAP2 SUB SWAP1 RETURN JUMPDEST PUSH2 0x141 PUSH1 0x4 DUP1 CALLDATASIZE SUB DUP2 ADD SWAP1 PUSH2 0x13C SWAP2 SWAP1 PUSH2 0x4C8 JUMP JUMPDEST PUSH2 0x2B4 JUMP JUMPDEST STOP JUMPDEST PUSH2 0x14B PUSH2 0x2CF JUMP JUMPDEST PUSH1 0x40 MLOAD PUSH2 0x158 SWAP2 SWAP1 PUSH2 0x510 JUMP JUMPDEST PUSH1 0x40 MLOAD DUP1 SWAP2 SUB SWAP1 RETURN JUMPDEST DUP2 PUSH1 0x4 SWAP1 DUP2 PUSH2 0x170 SWAP2 SWAP1 PUSH2 0x810 JUMP JUMPDEST POP DUP1 PUSH1 0x3 DUP2 SWAP1 SSTORE POP POP POP JUMP JUMPDEST PUSH1 0x0 DUP1 SLOAD DUP3 GT ISZERO SWAP1 POP SWAP2 SWAP1 POP JUMP JUMPDEST CALLER PUSH20 0xFFFFFFFFFFFFFFFFFFFFFFFFFFFFFFFFFFFFFFFF AND PUSH1 0x1 PUSH1 0x0 SWAP1 SLOAD SWAP1 PUSH2 0x100 EXP SWAP1 DIV PUSH20 0xFFFFFFFFFFFFFFFFFFFFFFFFFFFFFFFFFFFFFFFF AND PUSH20 0xFFFFFFFFFFFFFFFFFFFFFFFFFFFFFFFFFFFFFFFF AND EQ PUSH2 0x1E4 JUMPI PUSH1 0x0 DUP1 REVERT JUMPDEST PUSH2 0x1ED DUP2 PUSH2 0x17C JUMP JUMPDEST ISZERO PUSH2 0x20B JUMPI DUP1 PUSH1 0x0 DUP1 DUP3 DUP3 SLOAD PUSH2 0x203 SWAP2 SWAP1 PUSH2 0x911 JUMP JUMPDEST SWAP3 POP POP DUP2 SWAP1 SSTORE POP JUMPDEST POP JUMP JUMPDEST PUSH1 0x60 PUSH1 0x0 PUSH1 0x4 PUSH1 0x3 SLOAD DUP2 DUP1 SLOAD PUSH2 0x223 SWAP1 PUSH2 0x633 JUMP JUMPDEST DUP1 PUSH1 0x1F ADD PUSH1 0x20 DUP1 SWAP2 DIV MUL PUSH1 0x20 ADD PUSH1 0x40 MLOAD SWAP1 DUP2 ADD PUSH1 0x40 MSTORE DUP1 SWAP3 SWAP2 SWAP1 DUP2 DUP2 MSTORE PUSH1 0x20 ADD DUP3 DUP1 SLOAD PUSH2 0x24F SWAP1 PUSH2 0x633 JUMP JUMPDEST DUP1 ISZERO PUSH2 0x29C JUMPI DUP1 PUSH1 0x1F LT PUSH2 0x271 JUMPI PUSH2 0x100 DUP1 DUP4 SLOAD DIV MUL DUP4 MSTORE SWAP2 PUSH1 0x20 ADD SWAP2 PUSH2 0x29C JUMP JUMPDEST DUP3 ADD SWAP2 SWAP1 PUSH1 0x0 MSTORE PUSH1 0x20 PUSH1 0x0 KECCAK256 SWAP1 JUMPDEST DUP2 SLOAD DUP2 MSTORE SWAP1 PUSH1 0x1 ADD SWAP1 PUSH1 0x20 ADD DUP1 DUP4 GT PUSH2 0x27F JUMPI DUP3 SWAP1 SUB PUSH1 0x1F AND DUP3 ADD SWAP2 JUMPDEST POP POP POP POP POP SWAP2 POP SWAP2 POP SWAP2 POP SWAP1 SWAP2 JUMP JUMPDEST PUSH1 0x0 DUP1 SLOAD SWAP1 POP SWAP1 JUMP JUMPDEST DUP1 PUSH1 0x0 DUP1 DUP3 DUP3 SLOAD PUSH2 0x2C5 SWAP2 SWAP1 PUSH2 0x945 JUMP JUMPDEST SWAP3 POP POP DUP2 SWAP1 SSTORE POP POP JUMP JUMPDEST PUSH1 0x0 PUSH1 0x14 PUSH1 0x0 SLOAD GT SWAP1 POP SWAP1 JUMP JUMPDEST PUSH1 0x0 PUSH1 0x40 MLOAD SWAP1 POP SWAP1 JUMP JUMPDEST PUSH1 0x0 DUP1 REVERT JUMPDEST PUSH1 0x0 DUP1 REVERT JUMPDEST PUSH1 0x0 DUP1 REVERT JUMPDEST PUSH1 0x0 DUP1 REVERT JUMPDEST PUSH1 0x0 PUSH1 0x1F NOT PUSH1 0x1F DUP4 ADD AND SWAP1 POP SWAP2 SWAP1 POP JUMP JUMPDEST PUSH32 0x4E487B7100000000000000000000000000000000000000000000000000000000 PUSH1 0x0 MSTORE PUSH1 0x41 PUSH1 0x4 MSTORE PUSH1 0x24 PUSH1 0x0 REVERT JUMPDEST PUSH2 0x343 DUP3 PUSH2 0x2FA JUMP JUMPDEST DUP2 ADD DUP2 DUP2 LT PUSH8 0xFFFFFFFFFFFFFFFF DUP3 GT OR ISZERO PUSH2 0x362 JUMPI PUSH2 0x361 PUSH2 0x30B JUMP JUMPDEST JUMPDEST DUP1 PUSH1 0x40 MSTORE POP POP POP JUMP JUMPDEST PUSH1 0x0 PUSH2 0x375 PUSH2 0x2DC JUMP JUMPDEST SWAP1 POP PUSH2 0x381 DUP3 DUP3 PUSH2 0x33A JUMP JUMPDEST SWAP2 SWAP1 POP JUMP JUMPDEST PUSH1 0x0 PUSH8 0xFFFFFFFFFFFFFFFF DUP3 GT ISZERO PUSH2 0x3A1 JUMPI PUSH2 0x3A0 PUSH2 0x30B JUMP JUMPDEST JUMPDEST PUSH2 0x3AA DUP3 PUSH2 0x2FA JUMP JUMPDEST SWAP1 POP PUSH1 0x20 DUP2 ADD SWAP1 POP SWAP2 SWAP1 POP JUMP JUMPDEST DUP3 DUP2 DUP4 CALLDATACOPY PUSH1 0x0 DUP4 DUP4 ADD MSTORE POP POP POP JUMP JUMPDEST PUSH1 0x0 PUSH2 0x3D9 PUSH2 0x3D4 DUP5 PUSH2 0x386 JUMP JUMPDEST PUSH2 0x36B JUMP JUMPDEST SWAP1 POP DUP3 DUP2 MSTORE PUSH1 0x20 DUP2 ADD DUP5 DUP5 DUP5 ADD GT ISZERO PUSH2 0x3F5 JUMPI PUSH2 0x3F4 PUSH2 0x2F5 JUMP JUMPDEST JUMPDEST PUSH2 0x400 DUP5 DUP3 DUP6 PUSH2 0x3B7 JUMP JUMPDEST POP SWAP4 SWAP3 POP POP POP JUMP JUMPDEST PUSH1 0x0 DUP3 PUSH1 0x1F DUP4 ADD SLT PUSH2 0x41D JUMPI PUSH2 0x41C PUSH2 0x2F0 JUMP JUMPDEST JUMPDEST DUP2 CALLDATALOAD PUSH2 0x42D DUP5 DUP3 PUSH1 0x20 DUP7 ADD PUSH2 0x3C6 JUMP JUMPDEST SWAP2 POP POP SWAP3 SWAP2 POP POP JUMP JUMPDEST PUSH1 0x0 DUP2 SWAP1 POP SWAP2 SWAP1 POP JUMP JUMPDEST PUSH2 0x449 DUP2 PUSH2 0x436 JUMP JUMPDEST DUP2 EQ PUSH2 0x454 JUMPI PUSH1 0x0 DUP1 REVERT JUMPDEST POP JUMP JUMPDEST PUSH1 0x0 DUP2 CALLDATALOAD SWAP1 POP PUSH2 0x466 DUP2 PUSH2 0x440 JUMP JUMPDEST SWAP3 SWAP2 POP POP JUMP JUMPDEST PUSH1 0x0 DUP1 PUSH1 0x40 DUP4 DUP6 SUB SLT ISZERO PUSH2 0x483 JUMPI PUSH2 0x482 PUSH2 0x2E6 JUMP JUMPDEST JUMPDEST PUSH1 0x0 DUP4 ADD CALLDATALOAD PUSH8 0xFFFFFFFFFFFFFFFF DUP2 GT ISZERO PUSH2 0x4A1 JUMPI PUSH2 0x4A0 PUSH2 0x2EB JUMP JUMPDEST JUMPDEST PUSH2 0x4AD DUP6 DUP3 DUP7 ADD PUSH2 0x408 JUMP JUMPDEST SWAP3 POP POP PUSH1 0x20 PUSH2 0x4BE DUP6 DUP3 DUP7 ADD PUSH2 0x457 JUMP JUMPDEST SWAP2 POP POP SWAP3 POP SWAP3 SWAP1 POP JUMP JUMPDEST PUSH1 0x0 PUSH1 0x20 DUP3 DUP5 SUB SLT ISZERO PUSH2 0x4DE JUMPI PUSH2 0x4DD PUSH2 0x2E6 JUMP JUMPDEST JUMPDEST PUSH1 0x0 PUSH2 0x4EC DUP5 DUP3 DUP6 ADD PUSH2 0x457 JUMP JUMPDEST SWAP2 POP POP SWAP3 SWAP2 POP POP JUMP JUMPDEST PUSH1 0x0 DUP2 ISZERO ISZERO SWAP1 POP SWAP2 SWAP1 POP JUMP JUMPDEST PUSH2 0x50A DUP2 PUSH2 0x4F5 JUMP JUMPDEST DUP3 MSTORE POP POP JUMP JUMPDEST PUSH1 0x0 PUSH1 0x20 DUP3 ADD SWAP1 POP PUSH2 0x525 PUSH1 0x0 DUP4 ADD DUP5 PUSH2 0x501 JUMP JUMPDEST SWAP3 SWAP2 POP POP JUMP JUMPDEST PUSH1 0x0 DUP2 MLOAD SWAP1 POP SWAP2 SWAP1 POP JUMP JUMPDEST PUSH1 0x0 DUP3 DUP3 MSTORE PUSH1 0x20 DUP3 ADD SWAP1 POP SWAP3 SWAP2 POP POP JUMP JUMPDEST PUSH1 0x0 JUMPDEST DUP4 DUP2 LT ISZERO PUSH2 0x565 JUMPI DUP1 DUP3 ADD MLOAD DUP2 DUP5 ADD MSTORE PUSH1 0x20 DUP2 ADD SWAP1 POP PUSH2 0x54A JUMP JUMPDEST PUSH1 0x0 DUP5 DUP5 ADD MSTORE POP POP POP POP JUMP JUMPDEST PUSH1 0x0 PUSH2 0x57C DUP3 PUSH2 0x52B JUMP JUMPDEST PUSH2 0x586 DUP2 DUP6 PUSH2 0x536 JUMP JUMPDEST SWAP4 POP PUSH2 0x596 DUP2 DUP6 PUSH1 0x20 DUP7 ADD PUSH2 0x547 JUMP JUMPDEST PUSH2 0x59F DUP2 PUSH2 0x2FA JUMP JUMPDEST DUP5 ADD SWAP2 POP POP SWAP3 SWAP2 POP POP JUMP JUMPDEST PUSH2 0x5B3 DUP2 PUSH2 0x436 JUMP JUMPDEST DUP3 MSTORE POP POP JUMP JUMPDEST PUSH1 0x0 PUSH1 0x40 DUP3 ADD SWAP1 POP DUP2 DUP2 SUB PUSH1 0x0 DUP4 ADD MSTORE PUSH2 0x5D3 DUP2 DUP6 PUSH2 0x571 JUMP JUMPDEST SWAP1 POP PUSH2 0x5E2 PUSH1 0x20 DUP4 ADD DUP5 PUSH2 0x5AA JUMP JUMPDEST SWAP4 SWAP3 POP POP POP JUMP JUMPDEST PUSH1 0x0 PUSH1 0x20 DUP3 ADD SWAP1 POP PUSH2 0x5FE PUSH1 0x0 DUP4 ADD DUP5 PUSH2 0x5AA JUMP JUMPDEST SWAP3 SWAP2 POP POP JUMP JUMPDEST PUSH32 0x4E487B7100000000000000000000000000000000000000000000000000000000 PUSH1 0x0 MSTORE PUSH1 0x22 PUSH1 0x4 MSTORE PUSH1 0x24 PUSH1 0x0 REVERT JUMPDEST PUSH1 0x0 PUSH1 0x2 DUP3 DIV SWAP1 POP PUSH1 0x1 DUP3 AND DUP1 PUSH2 0x64B JUMPI PUSH1 0x7F DUP3 AND SWAP2 POP JUMPDEST PUSH1 0x20 DUP3 LT DUP2 SUB PUSH2 0x65E JUMPI PUSH2 0x65D PUSH2 0x604 JUMP JUMPDEST JUMPDEST POP SWAP2 SWAP1 POP JUMP JUMPDEST PUSH1 0x0 DUP2 SWAP1 POP DUP2 PUSH1 0x0 MSTORE PUSH1 0x20 PUSH1 0x0 KECCAK256 SWAP1 POP SWAP2 SWAP1 POP JUMP JUMPDEST PUSH1 0x0 PUSH1 0x20 PUSH1 0x1F DUP4 ADD DIV SWAP1 POP SWAP2 SWAP1 POP JUMP JUMPDEST PUSH1 0x0 DUP3 DUP3 SHL SWAP1 POP SWAP3 SWAP2 POP POP JUMP JUMPDEST PUSH1 0x0 PUSH1 0x8 DUP4 MUL PUSH2 0x6C6 PUSH32 0xFFFFFFFFFFFFFFFFFFFFFFFFFFFFFFFFFFFFFFFFFFFFFFFFFFFFFFFFFFFFFFFF DUP3 PUSH2 0x689 JUMP JUMPDEST PUSH2 0x6D0 DUP7 DUP4 PUSH2 0x689 JUMP JUMPDEST SWAP6 POP DUP1 NOT DUP5 AND SWAP4 POP DUP1 DUP7 AND DUP5 OR SWAP3 POP POP POP SWAP4 SWAP3 POP POP POP JUMP JUMPDEST PUSH1 0x0 DUP2 SWAP1 POP SWAP2 SWAP1 POP JUMP JUMPDEST PUSH1 0x0 PUSH2 0x70D PUSH2 0x708 PUSH2 0x703 DUP5 PUSH2 0x436 JUMP JUMPDEST PUSH2 0x6E8 JUMP JUMPDEST PUSH2 0x436 JUMP JUMPDEST SWAP1 POP SWAP2 SWAP1 POP JUMP JUMPDEST PUSH1 0x0 DUP2 SWAP1 POP SWAP2 SWAP1 POP JUMP JUMPDEST PUSH2 0x727 DUP4 PUSH2 0x6F2 JUMP JUMPDEST PUSH2 0x73B PUSH2 0x733 DUP3 PUSH2 0x714 JUMP JUMPDEST DUP5 DUP5 SLOAD PUSH2 0x696 JUMP JUMPDEST DUP3 SSTORE POP POP POP POP JUMP JUMPDEST PUSH1 0x0 SWAP1 JUMP JUMPDEST PUSH2 0x750 PUSH2 0x743 JUMP JUMPDEST PUSH2 0x75B DUP2 DUP5 DUP5 PUSH2 0x71E JUMP JUMPDEST POP POP POP JUMP JUMPDEST JUMPDEST DUP2 DUP2 LT ISZERO PUSH2 0x77F JUMPI PUSH2 0x774 PUSH1 0x0 DUP3 PUSH2 0x748 JUMP JUMPDEST PUSH1 0x1 DUP2 ADD SWAP1 POP PUSH2 0x761 JUMP JUMPDEST POP POP JUMP JUMPDEST PUSH1 0x1F DUP3 GT ISZERO PUSH2 0x7C4 JUMPI PUSH2 0x795 DUP2 PUSH2 0x664 JUMP JUMPDEST PUSH2 0x79E DUP5 PUSH2 0x679 JUMP JUMPDEST DUP2 ADD PUSH1 0x20 DUP6 LT ISZERO PUSH2 0x7AD JUMPI DUP2 SWAP1 POP JUMPDEST PUSH2 0x7C1 PUSH2 0x7B9 DUP6 PUSH2 0x679 JUMP JUMPDEST DUP4 ADD DUP3 PUSH2 0x760 JUMP JUMPDEST POP POP JUMPDEST POP POP POP JUMP JUMPDEST PUSH1 0x0 DUP3 DUP3 SHR SWAP1 POP SWAP3 SWAP2 POP POP JUMP JUMPDEST PUSH1 0x0 PUSH2 0x7E7 PUSH1 0x0 NOT DUP5 PUSH1 0x8 MUL PUSH2 0x7C9 JUMP JUMPDEST NOT DUP1 DUP4 AND SWAP2 POP POP SWAP3 SWAP2 POP POP JUMP JUMPDEST PUSH1 0x0 PUSH2 0x800 DUP4 DUP4 PUSH2 0x7D6 JUMP JUMPDEST SWAP2 POP DUP3 PUSH1 0x2 MUL DUP3 OR SWAP1 POP SWAP3 SWAP2 POP POP JUMP JUMPDEST PUSH2 0x819 DUP3 PUSH2 0x52B JUMP JUMPDEST PUSH8 0xFFFFFFFFFFFFFFFF DUP2 GT ISZERO PUSH2 0x832 JUMPI PUSH2 0x831 PUSH2 0x30B JUMP JUMPDEST JUMPDEST PUSH2 0x83C DUP3 SLOAD PUSH2 0x633 JUMP JUMPDEST PUSH2 0x847 DUP3 DUP3 DUP6 PUSH2 0x783 JUMP JUMPDEST PUSH1 0x0 PUSH1 0x20 SWAP1 POP PUSH1 0x1F DUP4 GT PUSH1 0x1 DUP2 EQ PUSH2 0x87A JUMPI PUSH1 0x0 DUP5 ISZERO PUSH2 0x868 JUMPI DUP3 DUP8 ADD MLOAD SWAP1 POP JUMPDEST PUSH2 0x872 DUP6 DUP3 PUSH2 0x7F4 JUMP JUMPDEST DUP7 SSTORE POP PUSH2 0x8DA JUMP JUMPDEST PUSH1 0x1F NOT DUP5 AND PUSH2 0x888 DUP7 PUSH2 0x664 JUMP JUMPDEST PUSH1 0x0 JUMPDEST DUP3 DUP2 LT ISZERO PUSH2 0x8B0 JUMPI DUP5 DUP10 ADD MLOAD DUP3 SSTORE PUSH1 0x1 DUP3 ADD SWAP2 POP PUSH1 0x20 DUP6 ADD SWAP5 POP PUSH1 0x20 DUP2 ADD SWAP1 POP PUSH2 0x88B JUMP JUMPDEST DUP7 DUP4 LT ISZERO PUSH2 0x8CD JUMPI DUP5 DUP10 ADD MLOAD PUSH2 0x8C9 PUSH1 0x1F DUP10 AND DUP3 PUSH2 0x7D6 JUMP JUMPDEST DUP4 SSTORE POP JUMPDEST PUSH1 0x1 PUSH1 0x2 DUP9 MUL ADD DUP9 SSTORE POP POP POP JUMPDEST POP POP POP POP POP POP JUMP JUMPDEST PUSH32 0x4E487B7100000000000000000000000000000000000000000000000000000000 PUSH1 0x0 MSTORE PUSH1 0x11 PUSH1 0x4 MSTORE PUSH1 0x24 PUSH1 0x0 REVERT JUMPDEST PUSH1 0x0 PUSH2 0x91C DUP3 PUSH2 0x436 JUMP JUMPDEST SWAP2 POP PUSH2 0x927 DUP4 PUSH2 0x436 JUMP JUMPDEST SWAP3 POP DUP3 DUP3 SUB SWAP1 POP DUP2 DUP2 GT ISZERO PUSH2 0x93F JUMPI PUSH2 0x93E PUSH2 0x8E2 JUMP JUMPDEST JUMPDEST SWAP3 SWAP2 POP POP JUMP JUMPDEST PUSH1 0x0 PUSH2 0x950 DUP3 PUSH2 0x436 JUMP JUMPDEST SWAP2 POP PUSH2 0x95B DUP4 PUSH2 0x436 JUMP JUMPDEST SWAP3 POP DUP3 DUP3 ADD SWAP1 POP DUP1 DUP3 GT ISZERO PUSH2 0x973 JUMPI PUSH2 0x972 PUSH2 0x8E2 JUMP JUMPDEST JUMPDEST SWAP3 SWAP2 POP POP JUMP INVALID LOG2 PUSH5 0x6970667358 0x22 SLT KECCAK256 0xF6 ADDRESS DUP5 0x49 0x49 PUSH1 0x26 CODECOPY XOR SWAP5 SWAP7 0xD7 0xB2 PUSH1 0xF6 AND 0xEA DUP8 PUSH29 0xBAC1F9708E4AC2AB0DEF98A12064736F6C634300081300330000000000 "
				},
				"gasEstimates": {
					"creation": {
						"codeDepositCost": "495800",
						"executionCost": "22636",
						"totalCost": "518436"
					},
					"external": {
						"balance()": "2459",
						"checkvalue(uint256)": "2740",
						"deposit(uint256)": "infinite",
						"getnameage()": "infinite",
						"loan()": "2515",
						"setnameage(string,uint256)": "infinite",
						"withdraw(uint256)": "infinite"
					}
				},
				"methodIdentifiers": {
					"balance()": "b69ef8a8",
					"checkvalue(uint256)": "26a1f421",
					"deposit(uint256)": "b6b55f25",
					"getnameage()": "958159cc",
					"loan()": "d285b7b4",
					"setnameage(string,uint256)": "23f85971",
					"withdraw(uint256)": "2e1a7d4d"
				}
			},
			"storageLayout": {
				"storage": [
					{
						"astId": 18,
						"contract": "tests/practice.sol:myfirstcontract",
						"label": "value",
						"offset": 0,
						"slot": "0",
						"type": "t_uint256"
					},
					{
						"astId": 20,
						"contract": "tests/practice.sol:myfirstcontract",
						"label": "owner",
						"offset": 0,
						"slot": "1",
						"type": "t_address"
					},
					{
						"astId": 94,
						"contract": "tests/practice.sol:myfirstcontract",
						"label": "bank",
						"offset": 0,
						"slot": "2",
						"type": "t_uint256"
					},
					{
						"astId": 96,
						"contract": "tests/practice.sol:myfirstcontract",
						"label": "age",
						"offset": 0,
						"slot": "3",
						"type": "t_uint256"
					},
					{
						"astId": 98,
						"contract": "tests/practice.sol:myfirstcontract",
						"label": "name",
						"offset": 0,
						"slot": "4",
						"type": "t_string_storage"
					}
				],
				"types": {
					"t_address": {
						"encoding": "inplace",
						"label": "address",
						"numberOfBytes": "20"
					},
					"t_string_storage": {
						"encoding": "bytes",
						"label": "string",
						"numberOfBytes": "32"
					},
					"t_uint256": {
						"encoding": "inplace",
						"label": "uint256",
						"numberOfBytes": "32"
					}
				}
			},
			"userdoc": {
				"kind": "user",
				"methods": {},
				"version": 1
			}
		}
	}
}